{"contracts/IdentityAndAccessManagement.sol":{"IdentityAndAccessManagement":{"abi":[{"inputs":[],"stateMutability":"nonpayable","type":"constructor"},{"anonymous":false,"inputs":[{"indexed":false,"internalType":"string","name":"attributeID","type":"string"},{"indexed":false,"internalType":"string","name":"platform","type":"string"},{"indexed":false,"internalType":"string","name":"permission","type":"string"}],"name":"AccessPolicyAdded","type":"event"},{"anonymous":false,"inputs":[{"indexed":false,"internalType":"string","name":"fingerprint","type":"string"},{"indexed":false,"internalType":"string","name":"attributeKey","type":"string"},{"indexed":false,"internalType":"string","name":"attributeValue","type":"string"},{"indexed":false,"internalType":"uint256","name":"timestamp","type":"uint256"}],"name":"AttributeAdded","type":"event"},{"anonymous":false,"inputs":[{"indexed":false,"internalType":"string","name":"username","type":"string"},{"indexed":false,"internalType":"string","name":"fingerprint","type":"string"},{"indexed":false,"internalType":"string","name":"publicKey","type":"string"}],"name":"UserIdentityAdded","type":"event"},{"anonymous":false,"inputs":[{"indexed":false,"internalType":"string","name":"username","type":"string"},{"indexed":false,"internalType":"string","name":"oldPublicKey","type":"string"},{"indexed":false,"internalType":"string","name":"newPublicKey","type":"string"}],"name":"UserIdentityRecovered","type":"event"},{"anonymous":false,"inputs":[{"indexed":false,"internalType":"string","name":"username","type":"string"}],"name":"UserIdentityRevoked","type":"event"},{"inputs":[{"internalType":"string","name":"","type":"string"}],"name":"accessPolicies","outputs":[{"internalType":"string","name":"attributeID","type":"string"},{"internalType":"string","name":"platform","type":"string"},{"internalType":"string","name":"permission","type":"string"}],"stateMutability":"view","type":"function"},{"inputs":[{"internalType":"string","name":"_attributeID","type":"string"},{"internalType":"string","name":"_platform","type":"string"},{"internalType":"string","name":"_permission","type":"string"}],"name":"addAccessPolicy","outputs":[],"stateMutability":"nonpayable","type":"function"},{"inputs":[{"internalType":"string","name":"_fingerprint","type":"string"},{"internalType":"string","name":"_attributeKey","type":"string"},{"internalType":"string","name":"_attributeValue","type":"string"},{"internalType":"uint256","name":"_timestamp","type":"uint256"}],"name":"addAttribute","outputs":[],"stateMutability":"nonpayable","type":"function"},{"inputs":[{"internalType":"string","name":"_username","type":"string"},{"internalType":"string","name":"_fingerprint","type":"string"},{"internalType":"string","name":"_publicKey","type":"string"}],"name":"addUserIdentity","outputs":[],"stateMutability":"nonpayable","type":"function"},{"inputs":[{"internalType":"string","name":"_attributeID","type":"string"},{"internalType":"string","name":"_platform","type":"string"}],"name":"getAccessPolicy","outputs":[{"internalType":"string","name":"","type":"string"}],"stateMutability":"view","type":"function"},{"inputs":[{"internalType":"string","name":"_fingerprint","type":"string"},{"internalType":"string","name":"_attributeKey","type":"string"}],"name":"getAttribute","outputs":[{"internalType":"string","name":"","type":"string"},{"internalType":"string","name":"","type":"string"},{"internalType":"uint256","name":"","type":"uint256"}],"stateMutability":"view","type":"function"},{"inputs":[{"internalType":"string","name":"_fingerprint","type":"string"}],"name":"getUserAttributes","outputs":[{"components":[{"internalType":"string","name":"key","type":"string"},{"internalType":"string","name":"value","type":"string"},{"internalType":"uint256","name":"timestamp","type":"uint256"}],"internalType":"struct IdentityAndAccessManagement.Attribute[]","name":"","type":"tuple[]"}],"stateMutability":"view","type":"function"},{"inputs":[{"internalType":"string","name":"_fingerprint","type":"string"}],"name":"getUserAttributesCount","outputs":[{"internalType":"uint256","name":"","type":"uint256"}],"stateMutability":"view","type":"function"},{"inputs":[],"name":"owner","outputs":[{"internalType":"address","name":"","type":"address"}],"stateMutability":"view","type":"function"},{"inputs":[{"internalType":"address","name":"","type":"address"}],"name":"publicKeys","outputs":[{"internalType":"string","name":"","type":"string"}],"stateMutability":"view","type":"function"},{"inputs":[{"internalType":"string","name":"_username","type":"string"},{"internalType":"string","name":"_newPublicKey","type":"string"},{"internalType":"string","name":"_fingerprint","type":"string"}],"name":"recoverUserIdentity","outputs":[],"stateMutability":"nonpayable","type":"function"},{"inputs":[],"name":"retrievePublicKey","outputs":[{"internalType":"string","name":"","type":"string"}],"stateMutability":"view","type":"function"},{"inputs":[{"internalType":"string","name":"_username","type":"string"},{"internalType":"string","name":"_fingerprint","type":"string"}],"name":"revokeUserIdentity","outputs":[],"stateMutability":"nonpayable","type":"function"},{"inputs":[{"internalType":"string","name":"_publicKey","type":"string"}],"name":"setPublicKey","outputs":[{"internalType":"bool","name":"","type":"bool"}],"stateMutability":"nonpayable","type":"function"},{"inputs":[{"internalType":"string","name":"","type":"string"}],"name":"usedFingerprints","outputs":[{"internalType":"bool","name":"","type":"bool"}],"stateMutability":"view","type":"function"},{"inputs":[{"internalType":"string","name":"","type":"string"},{"internalType":"string","name":"","type":"string"}],"name":"userAttributes","outputs":[{"internalType":"string","name":"key","type":"string"},{"internalType":"string","name":"value","type":"string"},{"internalType":"uint256","name":"timestamp","type":"uint256"}],"stateMutability":"view","type":"function"},{"inputs":[{"internalType":"string","name":"","type":"string"}],"name":"userIdentities","outputs":[{"internalType":"string","name":"username","type":"string"},{"internalType":"string","name":"fingerprint","type":"string"},{"internalType":"string","name":"publicKey","type":"string"}],"stateMutability":"view","type":"function"},{"inputs":[{"internalType":"uint256","name":"","type":"uint256"}],"name":"userIdentityKeys","outputs":[{"internalType":"string","name":"","type":"string"}],"stateMutability":"view","type":"function"}],"evm":{"bytecode":{"linkReferences":{},"object":"608060405234801561001057600080fd5b50336000806101000a81548173ffffffffffffffffffffffffffffffffffffffff021916908373ffffffffffffffffffffffffffffffffffffffff160217905550612c3a806100606000396000f3fe608060405234801561001057600080fd5b50600436106101165760003560e01c80637e0eb265116100a2578063b2f0383d11610071578063b2f0383d14610343578063bf2d0daf1461035f578063cd7a499614610391578063efd0ce07146103ad578063f12ae456146103c957610116565b80637e0eb265146102a95780638a6d7388146102d95780638da5cb5b146102f5578063a3d6f9a91461031357610116565b806363d8331a116100e957806363d8331a146101c95780636f6fc077146101fb57806370978a301461022b578063757a408f1461025b578063774e11dc1461027957610116565b80630a3756cb1461011b5780630cd9adf01461013757806311c4c4bc146101675780633ef69c8b14610199575b600080fd5b61013560048036038101906101309190611f18565b6103fb565b005b610151600480360381019061014c91906120c6565b610590565b60405161015e9190612609565b60405180910390f35b610181600480360381019061017c9190611ed7565b61063c565b6040516101909392919061262b565b60405180910390f35b6101b360048036038101906101ae9190611f18565b610814565b6040516101c09190612609565b60405180910390f35b6101e360048036038101906101de9190611ed7565b610a5b565b6040516101f29392919061262b565b60405180910390f35b61021560048036038101906102109190611ed7565b610c33565b60405161022291906125ee565b60405180910390f35b61024560048036038101906102409190611ed7565b610d21565b60405161025291906125cc565b60405180910390f35b610263610fac565b6040516102709190612609565b60405180910390f35b610293600480360381019061028e9190611ed7565b61107b565b6040516102a091906127f6565b60405180910390f35b6102c360048036038101906102be9190611ed7565b6110f8565b6040516102d091906125ee565b60405180910390f35b6102f360048036038101906102ee9190611f84565b61112e565b005b6102fd611350565b60405161030a91906125b1565b60405180910390f35b61032d60048036038101906103289190611eae565b611374565b60405161033a9190612609565b60405180910390f35b61035d60048036038101906103589190611f84565b611414565b005b61037960048036038101906103749190611f18565b611575565b604051610388939291906126d1565b60405180910390f35b6103ab60048036038101906103a6919061201b565b611756565b005b6103c760048036038101906103c29190611f84565b611835565b005b6103e360048036038101906103de9190611f18565b6119f8565b6040516103f2939291906126d1565b60405180910390f35b600060028360405161040d9190612583565b90815260200160405180910390209050600081600001805461042e90612a5d565b90501415610471576040517f08c379a000000000000000000000000000000000000000000000000000000000815260040161046890612796565b60405180910390fd5b81805190602001208160010160405161048a919061256c565b6040518091039020146104d2576040517f08c379a00000000000000000000000000000000000000000000000000000000081526004016104c9906127b6565b60405180910390fd5b6003816001016040516104e5919061259a565b908152602001604051809103902060006101000a81549060ff02191690556002836040516105139190612583565b9081526020016040518091039020600080820160006105329190611d18565b6001820160006105429190611d18565b6002820160006105529190611d18565b50507fcac1ad720d45ac4c27b66d58f8da61d658da25d9ca0194ff38bd98838f9502d0836040516105839190612609565b60405180910390a1505050565b600481815481106105a057600080fd5b9060005260206000200160009150905080546105bb90612a5d565b80601f01602080910402602001604051908101604052809291908181526020018280546105e790612a5d565b80156106345780601f1061060957610100808354040283529160200191610634565b820191906000526020600020905b81548152906001019060200180831161061757829003601f168201915b505050505081565b60068180516020810182018051848252602083016020850120818352809550505050505060009150905080600001805461067590612a5d565b80601f01602080910402602001604051908101604052809291908181526020018280546106a190612a5d565b80156106ee5780601f106106c3576101008083540402835291602001916106ee565b820191906000526020600020905b8154815290600101906020018083116106d157829003601f168201915b50505050509080600101805461070390612a5d565b80601f016020809104026020016040519081016040528092919081815260200182805461072f90612a5d565b801561077c5780601f106107515761010080835404028352916020019161077c565b820191906000526020600020905b81548152906001019060200180831161075f57829003601f168201915b50505050509080600201805461079190612a5d565b80601f01602080910402602001604051908101604052809291908181526020018280546107bd90612a5d565b801561080a5780601f106107df5761010080835404028352916020019161080a565b820191906000526020600020905b8154815290600101906020018083116107ed57829003601f168201915b5050505050905083565b606060006006846040516108289190612583565b908152602001604051809103902060405180606001604052908160008201805461085190612a5d565b80601f016020809104026020016040519081016040528092919081815260200182805461087d90612a5d565b80156108ca5780601f1061089f576101008083540402835291602001916108ca565b820191906000526020600020905b8154815290600101906020018083116108ad57829003601f168201915b505050505081526020016001820180546108e390612a5d565b80601f016020809104026020016040519081016040528092919081815260200182805461090f90612a5d565b801561095c5780601f106109315761010080835404028352916020019161095c565b820191906000526020600020905b81548152906001019060200180831161093f57829003601f168201915b5050505050815260200160028201805461097590612a5d565b80601f01602080910402602001604051908101604052809291908181526020018280546109a190612a5d565b80156109ee5780601f106109c3576101008083540402835291602001916109ee565b820191906000526020600020905b8154815290600101906020018083116109d157829003601f168201915b5050505050815250509050828051906020012081602001518051906020012014610a4d576040517f08c379a0000000000000000000000000000000000000000000000000000000008152600401610a4490612716565b60405180910390fd5b806040015191505092915050565b600281805160208101820180518482526020830160208501208183528095505050505050600091509050806000018054610a9490612a5d565b80601f0160208091040260200160405190810160405280929190818152602001828054610ac090612a5d565b8015610b0d5780601f10610ae257610100808354040283529160200191610b0d565b820191906000526020600020905b815481529060010190602001808311610af057829003601f168201915b505050505090806001018054610b2290612a5d565b80601f0160208091040260200160405190810160405280929190818152602001828054610b4e90612a5d565b8015610b9b5780601f10610b7057610100808354040283529160200191610b9b565b820191906000526020600020905b815481529060010190602001808311610b7e57829003601f168201915b505050505090806002018054610bb090612a5d565b80601f0160208091040260200160405190810160405280929190818152602001828054610bdc90612a5d565b8015610c295780601f10610bfe57610100808354040283529160200191610c29565b820191906000526020600020905b815481529060010190602001808311610c0c57829003601f168201915b5050505050905083565b60008060009054906101000a900473ffffffffffffffffffffffffffffffffffffffff1673ffffffffffffffffffffffffffffffffffffffff163373ffffffffffffffffffffffffffffffffffffffff1614610cc4576040517f08c379a0000000000000000000000000000000000000000000000000000000008152600401610cbb906127d6565b60405180910390fd5b81600160003373ffffffffffffffffffffffffffffffffffffffff1673ffffffffffffffffffffffffffffffffffffffff1681526020019081526020016000209080519060200190610d17929190611d58565b5060019050919050565b60606000610d2e8361107b565b905060008167ffffffffffffffff811115610d72577f4e487b7100000000000000000000000000000000000000000000000000000000600052604160045260246000fd5b604051908082528060200260200182016040528015610dab57816020015b610d98611dde565b815260200190600190039081610d905790505b5090506000805b83811015610fa0576000610dc582611b6b565b9050600587604051610dd79190612583565b908152602001604051809103902081604051610df39190612583565b9081526020016040518091039020604051806060016040529081600082018054610e1c90612a5d565b80601f0160208091040260200160405190810160405280929190818152602001828054610e4890612a5d565b8015610e955780601f10610e6a57610100808354040283529160200191610e95565b820191906000526020600020905b815481529060010190602001808311610e7857829003601f168201915b50505050508152602001600182018054610eae90612a5d565b80601f0160208091040260200160405190810160405280929190818152602001828054610eda90612a5d565b8015610f275780601f10610efc57610100808354040283529160200191610f27565b820191906000526020600020905b815481529060010190602001808311610f0a57829003601f168201915b50505050508152602001600282015481525050848481518110610f73577f4e487b7100000000000000000000000000000000000000000000000000000000600052603260045260246000fd5b60200260200101819052508280610f8990612a8f565b935050508080610f9890612a8f565b915050610db2565b50819350505050919050565b6060600160003373ffffffffffffffffffffffffffffffffffffffff1673ffffffffffffffffffffffffffffffffffffffff1681526020019081526020016000208054610ff890612a5d565b80601f016020809104026020016040519081016040528092919081815260200182805461102490612a5d565b80156110715780601f1061104657610100808354040283529160200191611071565b820191906000526020600020905b81548152906001019060200180831161105457829003601f168201915b5050505050905090565b600080600090505b60006005846040516110959190612583565b90815260200160405180910390206110ac83611b6b565b6040516110b99190612583565b908152602001604051809103902060000180546110d590612a5d565b9050146110ef5780806110e790612a8f565b915050611083565b80915050919050565b6003818051602081018201805184825260208301602085012081835280955050505050506000915054906101000a900460ff1681565b60006002846040516111409190612583565b9081526020016040518091039020600001805461115c90612a5d565b90501461119e576040517f08c379a000000000000000000000000000000000000000000000000000000000815260040161119590612776565b60405180910390fd5b6003826040516111ae9190612583565b908152602001604051809103902060009054906101000a900460ff161561120a576040517f08c379a000000000000000000000000000000000000000000000000000000000815260040161120190612756565b60405180910390fd5b6040518060600160405280848152602001838152602001828152506002846040516112359190612583565b9081526020016040518091039020600082015181600001908051906020019061125f929190611d58565b50602082015181600101908051906020019061127c929190611d58565b506040820151816002019080519060200190611299929190611d58565b509050506004839080600181540180825580915050600190039060005260206000200160009091909190915090805190602001906112d8929190611d58565b5060016003836040516112eb9190612583565b908152602001604051809103902060006101000a81548160ff0219169083151502179055507fe89f9d1db4a80497359a0e8138342d3dc7a087c12a922ffbfa1b1f4516f080b88383836040516113439392919061262b565b60405180910390a1505050565b60008054906101000a900473ffffffffffffffffffffffffffffffffffffffff1681565b6001602052806000526040600020600091509050805461139390612a5d565b80601f01602080910402602001604051908101604052809291908181526020018280546113bf90612a5d565b801561140c5780601f106113e15761010080835404028352916020019161140c565b820191906000526020600020905b8154815290600101906020018083116113ef57829003601f168201915b505050505081565b60008054906101000a900473ffffffffffffffffffffffffffffffffffffffff1673ffffffffffffffffffffffffffffffffffffffff163373ffffffffffffffffffffffffffffffffffffffff16146114a2576040517f08c379a0000000000000000000000000000000000000000000000000000000008152600401611499906127d6565b60405180910390fd5b6040518060600160405280848152602001838152602001828152506006846040516114cd9190612583565b908152602001604051809103902060008201518160000190805190602001906114f7929190611d58565b506020820151816001019080519060200190611514929190611d58565b506040820151816002019080519060200190611531929190611d58565b509050507f09bacb16a856389bf4d5e2dd536a58997f73bf52fc710c76d32f543e86ce7b868383836040516115689392919061262b565b60405180910390a1505050565b60608060008060058660405161158b9190612583565b9081526020016040518091039020856040516115a79190612583565b90815260200160405180910390206040518060600160405290816000820180546115d090612a5d565b80601f01602080910402602001604051908101604052809291908181526020018280546115fc90612a5d565b80156116495780601f1061161e57610100808354040283529160200191611649565b820191906000526020600020905b81548152906001019060200180831161162c57829003601f168201915b5050505050815260200160018201805461166290612a5d565b80601f016020809104026020016040519081016040528092919081815260200182805461168e90612a5d565b80156116db5780601f106116b0576101008083540402835291602001916116db565b820191906000526020600020905b8154815290600101906020018083116116be57829003601f168201915b50505050508152602001600282015481525050905060008160000151511415611739576040517f08c379a000000000000000000000000000000000000000000000000000000000815260040161173090612736565b60405180910390fd5b806000015181602001518260400151935093509350509250925092565b6040518060600160405280848152602001838152602001828152506005856040516117819190612583565b90815260200160405180910390208460405161179d9190612583565b908152602001604051809103902060008201518160000190805190602001906117c7929190611d58565b5060208201518160010190805190602001906117e4929190611d58565b50604082015181600201559050507f47a10ed39c81f9f7fbc51698556008663c5a73ec3e7d3fab18c6a4b1af09c7d0848484846040516118279493929190612677565b60405180910390a150505050565b60006002846040516118479190612583565b90815260200160405180910390209050600081600001805461186890612a5d565b905014156118ab576040517f08c379a00000000000000000000000000000000000000000000000000000000081526004016118a290612796565b60405180910390fd5b8180519060200120816001016040516118c4919061256c565b60405180910390201461190c576040517f08c379a0000000000000000000000000000000000000000000000000000000008152600401611903906127b6565b60405180910390fd5b600081600201805461191d90612a5d565b80601f016020809104026020016040519081016040528092919081815260200182805461194990612a5d565b80156119965780601f1061196b57610100808354040283529160200191611996565b820191906000526020600020905b81548152906001019060200180831161197957829003601f168201915b50505050509050838260020190805190602001906119b5929190611d58565b507f827688bd0ea6902ec08e3a700169a47d5b58e633a7252d2d78a738e71deba3be8582866040516119e99392919061262b565b60405180910390a15050505050565b6005828051602081018201805184825260208301602085012081835280955050505050508180516020810182018051848252602083016020850120818352809550505050505060009150915050806000018054611a5490612a5d565b80601f0160208091040260200160405190810160405280929190818152602001828054611a8090612a5d565b8015611acd5780601f10611aa257610100808354040283529160200191611acd565b820191906000526020600020905b815481529060010190602001808311611ab057829003601f168201915b505050505090806001018054611ae290612a5d565b80601f0160208091040260200160405190810160405280929190818152602001828054611b0e90612a5d565b8015611b5b5780601f10611b3057610100808354040283529160200191611b5b565b820191906000526020600020905b815481529060010190602001808311611b3e57829003601f168201915b5050505050908060020154905083565b60606000821415611bb3576040518060400160405280600181526020017f30000000000000000000000000000000000000000000000000000000000000008152509050611d13565b600082905060005b60008214611be5578080611bce90612a8f565b915050600a82611bde919061296e565b9150611bbb565b60008167ffffffffffffffff811115611c27577f4e487b7100000000000000000000000000000000000000000000000000000000600052604160045260246000fd5b6040519080825280601f01601f191660200182016040528015611c595781602001600182028036833780820191505090505b5090505b60008514611d0c57600182611c72919061299f565b9150600a85611c819190612ad8565b6030611c8d9190612918565b60f81b818381518110611cc9577f4e487b7100000000000000000000000000000000000000000000000000000000600052603260045260246000fd5b60200101907effffffffffffffffffffffffffffffffffffffffffffffffffffffffffffff1916908160001a905350600a85611d05919061296e565b9450611c5d565b8093505050505b919050565b508054611d2490612a5d565b6000825580601f10611d365750611d55565b601f016020900490600052602060002090810190611d549190611dff565b5b50565b828054611d6490612a5d565b90600052602060002090601f016020900481019282611d865760008555611dcd565b82601f10611d9f57805160ff1916838001178555611dcd565b82800160010185558215611dcd579182015b82811115611dcc578251825591602001919060010190611db1565b5b509050611dda9190611dff565b5090565b60405180606001604052806060815260200160608152602001600081525090565b5b80821115611e18576000816000905550600101611e00565b5090565b6000611e2f611e2a84612842565b612811565b905082815260208101848484011115611e4757600080fd5b611e52848285612a1b565b509392505050565b600081359050611e6981612bd6565b92915050565b600082601f830112611e8057600080fd5b8135611e90848260208601611e1c565b91505092915050565b600081359050611ea881612bed565b92915050565b600060208284031215611ec057600080fd5b6000611ece84828501611e5a565b91505092915050565b600060208284031215611ee957600080fd5b600082013567ffffffffffffffff811115611f0357600080fd5b611f0f84828501611e6f565b91505092915050565b60008060408385031215611f2b57600080fd5b600083013567ffffffffffffffff811115611f4557600080fd5b611f5185828601611e6f565b925050602083013567ffffffffffffffff811115611f6e57600080fd5b611f7a85828601611e6f565b9150509250929050565b600080600060608486031215611f9957600080fd5b600084013567ffffffffffffffff811115611fb357600080fd5b611fbf86828701611e6f565b935050602084013567ffffffffffffffff811115611fdc57600080fd5b611fe886828701611e6f565b925050604084013567ffffffffffffffff81111561200557600080fd5b61201186828701611e6f565b9150509250925092565b6000806000806080858703121561203157600080fd5b600085013567ffffffffffffffff81111561204b57600080fd5b61205787828801611e6f565b945050602085013567ffffffffffffffff81111561207457600080fd5b61208087828801611e6f565b935050604085013567ffffffffffffffff81111561209d57600080fd5b6120a987828801611e6f565b92505060606120ba87828801611e99565b91505092959194509250565b6000602082840312156120d857600080fd5b60006120e684828501611e99565b91505092915050565b60006120fb83836124f7565b905092915050565b61210c816129d3565b82525050565b600061211d826128ac565b61212781856128cf565b93508360208202850161213985612872565b8060005b85811015612175578484038952815161215685826120ef565b9450612161836128c2565b925060208a0199505060018101905061213d565b50829750879550505050505092915050565b612190816129e5565b82525050565b600081546121a381612a5d565b6121ad81866128e0565b945060018216600081146121c857600181146121d95761220c565b60ff1983168652818601935061220c565b6121e285612882565b60005b83811015612204578154818901526001820191506020810190506121e5565b838801955050505b50505092915050565b6000612220826128b7565b61222a81856128eb565b935061223a818560208601612a2a565b61224381612bc5565b840191505092915050565b6000612259826128b7565b61226381856128fc565b9350612273818560208601612a2a565b61227c81612bc5565b840191505092915050565b6000612292826128b7565b61229c818561290d565b93506122ac818560208601612a2a565b80840191505092915050565b600081546122c581612a5d565b6122cf818661290d565b945060018216600081146122ea57600181146122fb5761232e565b60ff1983168652818601935061232e565b61230485612897565b60005b8381101561232657815481890152600182019150602081019050612307565b838801955050505b50505092915050565b60006123446018836128fc565b91507f4e6f206d61746368696e6720706f6c69637920666f756e6400000000000000006000830152602082019050919050565b60006123846018836128fc565b91507f41747472696275746520646f6573206e6f7420657869737400000000000000006000830152602082019050919050565b60006123c46018836128fc565b91507f46696e6765727072696e7420616c7265616479207573656400000000000000006000830152602082019050919050565b60006124046017836128fc565b91507f557365726e616d6520616c7265616479206578697374730000000000000000006000830152602082019050919050565b60006124446013836128fc565b91507f5573657220646f6573206e6f74206578697374000000000000000000000000006000830152602082019050919050565b60006124846013836128fc565b91507f496e76616c69642066696e6765727072696e74000000000000000000000000006000830152602082019050919050565b60006124c4600e836128fc565b91507f4e6f7420617574686f72697a65640000000000000000000000000000000000006000830152602082019050919050565b600060608301600083015184820360008601526125148282612215565b9150506020830151848203602086015261252e8282612215565b9150506040830151612543604086018261254e565b508091505092915050565b61255781612a11565b82525050565b61256681612a11565b82525050565b60006125788284612196565b915081905092915050565b600061258f8284612287565b915081905092915050565b60006125a682846122b8565b915081905092915050565b60006020820190506125c66000830184612103565b92915050565b600060208201905081810360008301526125e68184612112565b905092915050565b60006020820190506126036000830184612187565b92915050565b60006020820190508181036000830152612623818461224e565b905092915050565b60006060820190508181036000830152612645818661224e565b90508181036020830152612659818561224e565b9050818103604083015261266d818461224e565b9050949350505050565b60006080820190508181036000830152612691818761224e565b905081810360208301526126a5818661224e565b905081810360408301526126b9818561224e565b90506126c8606083018461255d565b95945050505050565b600060608201905081810360008301526126eb818661224e565b905081810360208301526126ff818561224e565b905061270e604083018461255d565b949350505050565b6000602082019050818103600083015261272f81612337565b9050919050565b6000602082019050818103600083015261274f81612377565b9050919050565b6000602082019050818103600083015261276f816123b7565b9050919050565b6000602082019050818103600083015261278f816123f7565b9050919050565b600060208201905081810360008301526127af81612437565b9050919050565b600060208201905081810360008301526127cf81612477565b9050919050565b600060208201905081810360008301526127ef816124b7565b9050919050565b600060208201905061280b600083018461255d565b92915050565b6000604051905081810181811067ffffffffffffffff8211171561283857612837612b96565b5b8060405250919050565b600067ffffffffffffffff82111561285d5761285c612b96565b5b601f19601f8301169050602081019050919050565b6000819050602082019050919050565b60008190508160005260206000209050919050565b60008190508160005260206000209050919050565b600081519050919050565b600081519050919050565b6000602082019050919050565b600082825260208201905092915050565b600081905092915050565b600082825260208201905092915050565b600082825260208201905092915050565b600081905092915050565b600061292382612a11565b915061292e83612a11565b9250827fffffffffffffffffffffffffffffffffffffffffffffffffffffffffffffffff0382111561296357612962612b09565b5b828201905092915050565b600061297982612a11565b915061298483612a11565b92508261299457612993612b38565b5b828204905092915050565b60006129aa82612a11565b91506129b583612a11565b9250828210156129c8576129c7612b09565b5b828203905092915050565b60006129de826129f1565b9050919050565b60008115159050919050565b600073ffffffffffffffffffffffffffffffffffffffff82169050919050565b6000819050919050565b82818337600083830152505050565b60005b83811015612a48578082015181840152602081019050612a2d565b83811115612a57576000848401525b50505050565b60006002820490506001821680612a7557607f821691505b60208210811415612a8957612a88612b67565b5b50919050565b6000612a9a82612a11565b91507fffffffffffffffffffffffffffffffffffffffffffffffffffffffffffffffff821415612acd57612acc612b09565b5b600182019050919050565b6000612ae382612a11565b9150612aee83612a11565b925082612afe57612afd612b38565b5b828206905092915050565b7f4e487b7100000000000000000000000000000000000000000000000000000000600052601160045260246000fd5b7f4e487b7100000000000000000000000000000000000000000000000000000000600052601260045260246000fd5b7f4e487b7100000000000000000000000000000000000000000000000000000000600052602260045260246000fd5b7f4e487b7100000000000000000000000000000000000000000000000000000000600052604160045260246000fd5b6000601f19601f8301169050919050565b612bdf816129d3565b8114612bea57600080fd5b50565b612bf681612a11565b8114612c0157600080fd5b5056fea26469706673582212201e5434a7d876874f9c84892dcee3d47b6327fbf649b4cd39986fd4ff96c711ce64736f6c63430008000033","opcodes":"PUSH1 0x80 PUSH1 0x40 MSTORE CALLVALUE DUP1 ISZERO PUSH2 0x10 JUMPI PUSH1 0x0 DUP1 REVERT JUMPDEST POP CALLER PUSH1 0x0 DUP1 PUSH2 0x100 EXP DUP2 SLOAD DUP2 PUSH20 0xFFFFFFFFFFFFFFFFFFFFFFFFFFFFFFFFFFFFFFFF MUL NOT AND SWAP1 DUP4 PUSH20 0xFFFFFFFFFFFFFFFFFFFFFFFFFFFFFFFFFFFFFFFF AND MUL OR SWAP1 SSTORE POP PUSH2 0x2C3A DUP1 PUSH2 0x60 PUSH1 0x0 CODECOPY PUSH1 0x0 RETURN INVALID PUSH1 0x80 PUSH1 0x40 MSTORE CALLVALUE DUP1 ISZERO PUSH2 0x10 JUMPI PUSH1 0x0 DUP1 REVERT JUMPDEST POP PUSH1 0x4 CALLDATASIZE LT PUSH2 0x116 JUMPI PUSH1 0x0 CALLDATALOAD PUSH1 0xE0 SHR DUP1 PUSH4 0x7E0EB265 GT PUSH2 0xA2 JUMPI DUP1 PUSH4 0xB2F0383D GT PUSH2 0x71 JUMPI DUP1 PUSH4 0xB2F0383D EQ PUSH2 0x343 JUMPI DUP1 PUSH4 0xBF2D0DAF EQ PUSH2 0x35F JUMPI DUP1 PUSH4 0xCD7A4996 EQ PUSH2 0x391 JUMPI DUP1 PUSH4 0xEFD0CE07 EQ PUSH2 0x3AD JUMPI DUP1 PUSH4 0xF12AE456 EQ PUSH2 0x3C9 JUMPI PUSH2 0x116 JUMP JUMPDEST DUP1 PUSH4 0x7E0EB265 EQ PUSH2 0x2A9 JUMPI DUP1 PUSH4 0x8A6D7388 EQ PUSH2 0x2D9 JUMPI DUP1 PUSH4 0x8DA5CB5B EQ PUSH2 0x2F5 JUMPI DUP1 PUSH4 0xA3D6F9A9 EQ PUSH2 0x313 JUMPI PUSH2 0x116 JUMP JUMPDEST DUP1 PUSH4 0x63D8331A GT PUSH2 0xE9 JUMPI DUP1 PUSH4 0x63D8331A EQ PUSH2 0x1C9 JUMPI DUP1 PUSH4 0x6F6FC077 EQ PUSH2 0x1FB JUMPI DUP1 PUSH4 0x70978A30 EQ PUSH2 0x22B JUMPI DUP1 PUSH4 0x757A408F EQ PUSH2 0x25B JUMPI DUP1 PUSH4 0x774E11DC EQ PUSH2 0x279 JUMPI PUSH2 0x116 JUMP JUMPDEST DUP1 PUSH4 0xA3756CB EQ PUSH2 0x11B JUMPI DUP1 PUSH4 0xCD9ADF0 EQ PUSH2 0x137 JUMPI DUP1 PUSH4 0x11C4C4BC EQ PUSH2 0x167 JUMPI DUP1 PUSH4 0x3EF69C8B EQ PUSH2 0x199 JUMPI JUMPDEST PUSH1 0x0 DUP1 REVERT JUMPDEST PUSH2 0x135 PUSH1 0x4 DUP1 CALLDATASIZE SUB DUP2 ADD SWAP1 PUSH2 0x130 SWAP2 SWAP1 PUSH2 0x1F18 JUMP JUMPDEST PUSH2 0x3FB JUMP JUMPDEST STOP JUMPDEST PUSH2 0x151 PUSH1 0x4 DUP1 CALLDATASIZE SUB DUP2 ADD SWAP1 PUSH2 0x14C SWAP2 SWAP1 PUSH2 0x20C6 JUMP JUMPDEST PUSH2 0x590 JUMP JUMPDEST PUSH1 0x40 MLOAD PUSH2 0x15E SWAP2 SWAP1 PUSH2 0x2609 JUMP JUMPDEST PUSH1 0x40 MLOAD DUP1 SWAP2 SUB SWAP1 RETURN JUMPDEST PUSH2 0x181 PUSH1 0x4 DUP1 CALLDATASIZE SUB DUP2 ADD SWAP1 PUSH2 0x17C SWAP2 SWAP1 PUSH2 0x1ED7 JUMP JUMPDEST PUSH2 0x63C JUMP JUMPDEST PUSH1 0x40 MLOAD PUSH2 0x190 SWAP4 SWAP3 SWAP2 SWAP1 PUSH2 0x262B JUMP JUMPDEST PUSH1 0x40 MLOAD DUP1 SWAP2 SUB SWAP1 RETURN JUMPDEST PUSH2 0x1B3 PUSH1 0x4 DUP1 CALLDATASIZE SUB DUP2 ADD SWAP1 PUSH2 0x1AE SWAP2 SWAP1 PUSH2 0x1F18 JUMP JUMPDEST PUSH2 0x814 JUMP JUMPDEST PUSH1 0x40 MLOAD PUSH2 0x1C0 SWAP2 SWAP1 PUSH2 0x2609 JUMP JUMPDEST PUSH1 0x40 MLOAD DUP1 SWAP2 SUB SWAP1 RETURN JUMPDEST PUSH2 0x1E3 PUSH1 0x4 DUP1 CALLDATASIZE SUB DUP2 ADD SWAP1 PUSH2 0x1DE SWAP2 SWAP1 PUSH2 0x1ED7 JUMP JUMPDEST PUSH2 0xA5B JUMP JUMPDEST PUSH1 0x40 MLOAD PUSH2 0x1F2 SWAP4 SWAP3 SWAP2 SWAP1 PUSH2 0x262B JUMP JUMPDEST PUSH1 0x40 MLOAD DUP1 SWAP2 SUB SWAP1 RETURN JUMPDEST PUSH2 0x215 PUSH1 0x4 DUP1 CALLDATASIZE SUB DUP2 ADD SWAP1 PUSH2 0x210 SWAP2 SWAP1 PUSH2 0x1ED7 JUMP JUMPDEST PUSH2 0xC33 JUMP JUMPDEST PUSH1 0x40 MLOAD PUSH2 0x222 SWAP2 SWAP1 PUSH2 0x25EE JUMP JUMPDEST PUSH1 0x40 MLOAD DUP1 SWAP2 SUB SWAP1 RETURN JUMPDEST PUSH2 0x245 PUSH1 0x4 DUP1 CALLDATASIZE SUB DUP2 ADD SWAP1 PUSH2 0x240 SWAP2 SWAP1 PUSH2 0x1ED7 JUMP JUMPDEST PUSH2 0xD21 JUMP JUMPDEST PUSH1 0x40 MLOAD PUSH2 0x252 SWAP2 SWAP1 PUSH2 0x25CC JUMP JUMPDEST PUSH1 0x40 MLOAD DUP1 SWAP2 SUB SWAP1 RETURN JUMPDEST PUSH2 0x263 PUSH2 0xFAC JUMP JUMPDEST PUSH1 0x40 MLOAD PUSH2 0x270 SWAP2 SWAP1 PUSH2 0x2609 JUMP JUMPDEST PUSH1 0x40 MLOAD DUP1 SWAP2 SUB SWAP1 RETURN JUMPDEST PUSH2 0x293 PUSH1 0x4 DUP1 CALLDATASIZE SUB DUP2 ADD SWAP1 PUSH2 0x28E SWAP2 SWAP1 PUSH2 0x1ED7 JUMP JUMPDEST PUSH2 0x107B JUMP JUMPDEST PUSH1 0x40 MLOAD PUSH2 0x2A0 SWAP2 SWAP1 PUSH2 0x27F6 JUMP JUMPDEST PUSH1 0x40 MLOAD DUP1 SWAP2 SUB SWAP1 RETURN JUMPDEST PUSH2 0x2C3 PUSH1 0x4 DUP1 CALLDATASIZE SUB DUP2 ADD SWAP1 PUSH2 0x2BE SWAP2 SWAP1 PUSH2 0x1ED7 JUMP JUMPDEST PUSH2 0x10F8 JUMP JUMPDEST PUSH1 0x40 MLOAD PUSH2 0x2D0 SWAP2 SWAP1 PUSH2 0x25EE JUMP JUMPDEST PUSH1 0x40 MLOAD DUP1 SWAP2 SUB SWAP1 RETURN JUMPDEST PUSH2 0x2F3 PUSH1 0x4 DUP1 CALLDATASIZE SUB DUP2 ADD SWAP1 PUSH2 0x2EE SWAP2 SWAP1 PUSH2 0x1F84 JUMP JUMPDEST PUSH2 0x112E JUMP JUMPDEST STOP JUMPDEST PUSH2 0x2FD PUSH2 0x1350 JUMP JUMPDEST PUSH1 0x40 MLOAD PUSH2 0x30A SWAP2 SWAP1 PUSH2 0x25B1 JUMP JUMPDEST PUSH1 0x40 MLOAD DUP1 SWAP2 SUB SWAP1 RETURN JUMPDEST PUSH2 0x32D PUSH1 0x4 DUP1 CALLDATASIZE SUB DUP2 ADD SWAP1 PUSH2 0x328 SWAP2 SWAP1 PUSH2 0x1EAE JUMP JUMPDEST PUSH2 0x1374 JUMP JUMPDEST PUSH1 0x40 MLOAD PUSH2 0x33A SWAP2 SWAP1 PUSH2 0x2609 JUMP JUMPDEST PUSH1 0x40 MLOAD DUP1 SWAP2 SUB SWAP1 RETURN JUMPDEST PUSH2 0x35D PUSH1 0x4 DUP1 CALLDATASIZE SUB DUP2 ADD SWAP1 PUSH2 0x358 SWAP2 SWAP1 PUSH2 0x1F84 JUMP JUMPDEST PUSH2 0x1414 JUMP JUMPDEST STOP JUMPDEST PUSH2 0x379 PUSH1 0x4 DUP1 CALLDATASIZE SUB DUP2 ADD SWAP1 PUSH2 0x374 SWAP2 SWAP1 PUSH2 0x1F18 JUMP JUMPDEST PUSH2 0x1575 JUMP JUMPDEST PUSH1 0x40 MLOAD PUSH2 0x388 SWAP4 SWAP3 SWAP2 SWAP1 PUSH2 0x26D1 JUMP JUMPDEST PUSH1 0x40 MLOAD DUP1 SWAP2 SUB SWAP1 RETURN JUMPDEST PUSH2 0x3AB PUSH1 0x4 DUP1 CALLDATASIZE SUB DUP2 ADD SWAP1 PUSH2 0x3A6 SWAP2 SWAP1 PUSH2 0x201B JUMP JUMPDEST PUSH2 0x1756 JUMP JUMPDEST STOP JUMPDEST PUSH2 0x3C7 PUSH1 0x4 DUP1 CALLDATASIZE SUB DUP2 ADD SWAP1 PUSH2 0x3C2 SWAP2 SWAP1 PUSH2 0x1F84 JUMP JUMPDEST PUSH2 0x1835 JUMP JUMPDEST STOP JUMPDEST PUSH2 0x3E3 PUSH1 0x4 DUP1 CALLDATASIZE SUB DUP2 ADD SWAP1 PUSH2 0x3DE SWAP2 SWAP1 PUSH2 0x1F18 JUMP JUMPDEST PUSH2 0x19F8 JUMP JUMPDEST PUSH1 0x40 MLOAD PUSH2 0x3F2 SWAP4 SWAP3 SWAP2 SWAP1 PUSH2 0x26D1 JUMP JUMPDEST PUSH1 0x40 MLOAD DUP1 SWAP2 SUB SWAP1 RETURN JUMPDEST PUSH1 0x0 PUSH1 0x2 DUP4 PUSH1 0x40 MLOAD PUSH2 0x40D SWAP2 SWAP1 PUSH2 0x2583 JUMP JUMPDEST SWAP1 DUP2 MSTORE PUSH1 0x20 ADD PUSH1 0x40 MLOAD DUP1 SWAP2 SUB SWAP1 KECCAK256 SWAP1 POP PUSH1 0x0 DUP2 PUSH1 0x0 ADD DUP1 SLOAD PUSH2 0x42E SWAP1 PUSH2 0x2A5D JUMP JUMPDEST SWAP1 POP EQ ISZERO PUSH2 0x471 JUMPI PUSH1 0x40 MLOAD PUSH32 0x8C379A000000000000000000000000000000000000000000000000000000000 DUP2 MSTORE PUSH1 0x4 ADD PUSH2 0x468 SWAP1 PUSH2 0x2796 JUMP JUMPDEST PUSH1 0x40 MLOAD DUP1 SWAP2 SUB SWAP1 REVERT JUMPDEST DUP2 DUP1 MLOAD SWAP1 PUSH1 0x20 ADD KECCAK256 DUP2 PUSH1 0x1 ADD PUSH1 0x40 MLOAD PUSH2 0x48A SWAP2 SWAP1 PUSH2 0x256C JUMP JUMPDEST PUSH1 0x40 MLOAD DUP1 SWAP2 SUB SWAP1 KECCAK256 EQ PUSH2 0x4D2 JUMPI PUSH1 0x40 MLOAD PUSH32 0x8C379A000000000000000000000000000000000000000000000000000000000 DUP2 MSTORE PUSH1 0x4 ADD PUSH2 0x4C9 SWAP1 PUSH2 0x27B6 JUMP JUMPDEST PUSH1 0x40 MLOAD DUP1 SWAP2 SUB SWAP1 REVERT JUMPDEST PUSH1 0x3 DUP2 PUSH1 0x1 ADD PUSH1 0x40 MLOAD PUSH2 0x4E5 SWAP2 SWAP1 PUSH2 0x259A JUMP JUMPDEST SWAP1 DUP2 MSTORE PUSH1 0x20 ADD PUSH1 0x40 MLOAD DUP1 SWAP2 SUB SWAP1 KECCAK256 PUSH1 0x0 PUSH2 0x100 EXP DUP2 SLOAD SWAP1 PUSH1 0xFF MUL NOT AND SWAP1 SSTORE PUSH1 0x2 DUP4 PUSH1 0x40 MLOAD PUSH2 0x513 SWAP2 SWAP1 PUSH2 0x2583 JUMP JUMPDEST SWAP1 DUP2 MSTORE PUSH1 0x20 ADD PUSH1 0x40 MLOAD DUP1 SWAP2 SUB SWAP1 KECCAK256 PUSH1 0x0 DUP1 DUP3 ADD PUSH1 0x0 PUSH2 0x532 SWAP2 SWAP1 PUSH2 0x1D18 JUMP JUMPDEST PUSH1 0x1 DUP3 ADD PUSH1 0x0 PUSH2 0x542 SWAP2 SWAP1 PUSH2 0x1D18 JUMP JUMPDEST PUSH1 0x2 DUP3 ADD PUSH1 0x0 PUSH2 0x552 SWAP2 SWAP1 PUSH2 0x1D18 JUMP JUMPDEST POP POP PUSH32 0xCAC1AD720D45AC4C27B66D58F8DA61D658DA25D9CA0194FF38BD98838F9502D0 DUP4 PUSH1 0x40 MLOAD PUSH2 0x583 SWAP2 SWAP1 PUSH2 0x2609 JUMP JUMPDEST PUSH1 0x40 MLOAD DUP1 SWAP2 SUB SWAP1 LOG1 POP POP POP JUMP JUMPDEST PUSH1 0x4 DUP2 DUP2 SLOAD DUP2 LT PUSH2 0x5A0 JUMPI PUSH1 0x0 DUP1 REVERT JUMPDEST SWAP1 PUSH1 0x0 MSTORE PUSH1 0x20 PUSH1 0x0 KECCAK256 ADD PUSH1 0x0 SWAP2 POP SWAP1 POP DUP1 SLOAD PUSH2 0x5BB SWAP1 PUSH2 0x2A5D JUMP JUMPDEST DUP1 PUSH1 0x1F ADD PUSH1 0x20 DUP1 SWAP2 DIV MUL PUSH1 0x20 ADD PUSH1 0x40 MLOAD SWAP1 DUP2 ADD PUSH1 0x40 MSTORE DUP1 SWAP3 SWAP2 SWAP1 DUP2 DUP2 MSTORE PUSH1 0x20 ADD DUP3 DUP1 SLOAD PUSH2 0x5E7 SWAP1 PUSH2 0x2A5D JUMP JUMPDEST DUP1 ISZERO PUSH2 0x634 JUMPI DUP1 PUSH1 0x1F LT PUSH2 0x609 JUMPI PUSH2 0x100 DUP1 DUP4 SLOAD DIV MUL DUP4 MSTORE SWAP2 PUSH1 0x20 ADD SWAP2 PUSH2 0x634 JUMP JUMPDEST DUP3 ADD SWAP2 SWAP1 PUSH1 0x0 MSTORE PUSH1 0x20 PUSH1 0x0 KECCAK256 SWAP1 JUMPDEST DUP2 SLOAD DUP2 MSTORE SWAP1 PUSH1 0x1 ADD SWAP1 PUSH1 0x20 ADD DUP1 DUP4 GT PUSH2 0x617 JUMPI DUP3 SWAP1 SUB PUSH1 0x1F AND DUP3 ADD SWAP2 JUMPDEST POP POP POP POP POP DUP2 JUMP JUMPDEST PUSH1 0x6 DUP2 DUP1 MLOAD PUSH1 0x20 DUP2 ADD DUP3 ADD DUP1 MLOAD DUP5 DUP3 MSTORE PUSH1 0x20 DUP4 ADD PUSH1 0x20 DUP6 ADD KECCAK256 DUP2 DUP4 MSTORE DUP1 SWAP6 POP POP POP POP POP POP PUSH1 0x0 SWAP2 POP SWAP1 POP DUP1 PUSH1 0x0 ADD DUP1 SLOAD PUSH2 0x675 SWAP1 PUSH2 0x2A5D JUMP JUMPDEST DUP1 PUSH1 0x1F ADD PUSH1 0x20 DUP1 SWAP2 DIV MUL PUSH1 0x20 ADD PUSH1 0x40 MLOAD SWAP1 DUP2 ADD PUSH1 0x40 MSTORE DUP1 SWAP3 SWAP2 SWAP1 DUP2 DUP2 MSTORE PUSH1 0x20 ADD DUP3 DUP1 SLOAD PUSH2 0x6A1 SWAP1 PUSH2 0x2A5D JUMP JUMPDEST DUP1 ISZERO PUSH2 0x6EE JUMPI DUP1 PUSH1 0x1F LT PUSH2 0x6C3 JUMPI PUSH2 0x100 DUP1 DUP4 SLOAD DIV MUL DUP4 MSTORE SWAP2 PUSH1 0x20 ADD SWAP2 PUSH2 0x6EE JUMP JUMPDEST DUP3 ADD SWAP2 SWAP1 PUSH1 0x0 MSTORE PUSH1 0x20 PUSH1 0x0 KECCAK256 SWAP1 JUMPDEST DUP2 SLOAD DUP2 MSTORE SWAP1 PUSH1 0x1 ADD SWAP1 PUSH1 0x20 ADD DUP1 DUP4 GT PUSH2 0x6D1 JUMPI DUP3 SWAP1 SUB PUSH1 0x1F AND DUP3 ADD SWAP2 JUMPDEST POP POP POP POP POP SWAP1 DUP1 PUSH1 0x1 ADD DUP1 SLOAD PUSH2 0x703 SWAP1 PUSH2 0x2A5D JUMP JUMPDEST DUP1 PUSH1 0x1F ADD PUSH1 0x20 DUP1 SWAP2 DIV MUL PUSH1 0x20 ADD PUSH1 0x40 MLOAD SWAP1 DUP2 ADD PUSH1 0x40 MSTORE DUP1 SWAP3 SWAP2 SWAP1 DUP2 DUP2 MSTORE PUSH1 0x20 ADD DUP3 DUP1 SLOAD PUSH2 0x72F SWAP1 PUSH2 0x2A5D JUMP JUMPDEST DUP1 ISZERO PUSH2 0x77C JUMPI DUP1 PUSH1 0x1F LT PUSH2 0x751 JUMPI PUSH2 0x100 DUP1 DUP4 SLOAD DIV MUL DUP4 MSTORE SWAP2 PUSH1 0x20 ADD SWAP2 PUSH2 0x77C JUMP JUMPDEST DUP3 ADD SWAP2 SWAP1 PUSH1 0x0 MSTORE PUSH1 0x20 PUSH1 0x0 KECCAK256 SWAP1 JUMPDEST DUP2 SLOAD DUP2 MSTORE SWAP1 PUSH1 0x1 ADD SWAP1 PUSH1 0x20 ADD DUP1 DUP4 GT PUSH2 0x75F JUMPI DUP3 SWAP1 SUB PUSH1 0x1F AND DUP3 ADD SWAP2 JUMPDEST POP POP POP POP POP SWAP1 DUP1 PUSH1 0x2 ADD DUP1 SLOAD PUSH2 0x791 SWAP1 PUSH2 0x2A5D JUMP JUMPDEST DUP1 PUSH1 0x1F ADD PUSH1 0x20 DUP1 SWAP2 DIV MUL PUSH1 0x20 ADD PUSH1 0x40 MLOAD SWAP1 DUP2 ADD PUSH1 0x40 MSTORE DUP1 SWAP3 SWAP2 SWAP1 DUP2 DUP2 MSTORE PUSH1 0x20 ADD DUP3 DUP1 SLOAD PUSH2 0x7BD SWAP1 PUSH2 0x2A5D JUMP JUMPDEST DUP1 ISZERO PUSH2 0x80A JUMPI DUP1 PUSH1 0x1F LT PUSH2 0x7DF JUMPI PUSH2 0x100 DUP1 DUP4 SLOAD DIV MUL DUP4 MSTORE SWAP2 PUSH1 0x20 ADD SWAP2 PUSH2 0x80A JUMP JUMPDEST DUP3 ADD SWAP2 SWAP1 PUSH1 0x0 MSTORE PUSH1 0x20 PUSH1 0x0 KECCAK256 SWAP1 JUMPDEST DUP2 SLOAD DUP2 MSTORE SWAP1 PUSH1 0x1 ADD SWAP1 PUSH1 0x20 ADD DUP1 DUP4 GT PUSH2 0x7ED JUMPI DUP3 SWAP1 SUB PUSH1 0x1F AND DUP3 ADD SWAP2 JUMPDEST POP POP POP POP POP SWAP1 POP DUP4 JUMP JUMPDEST PUSH1 0x60 PUSH1 0x0 PUSH1 0x6 DUP5 PUSH1 0x40 MLOAD PUSH2 0x828 SWAP2 SWAP1 PUSH2 0x2583 JUMP JUMPDEST SWAP1 DUP2 MSTORE PUSH1 0x20 ADD PUSH1 0x40 MLOAD DUP1 SWAP2 SUB SWAP1 KECCAK256 PUSH1 0x40 MLOAD DUP1 PUSH1 0x60 ADD PUSH1 0x40 MSTORE SWAP1 DUP2 PUSH1 0x0 DUP3 ADD DUP1 SLOAD PUSH2 0x851 SWAP1 PUSH2 0x2A5D JUMP JUMPDEST DUP1 PUSH1 0x1F ADD PUSH1 0x20 DUP1 SWAP2 DIV MUL PUSH1 0x20 ADD PUSH1 0x40 MLOAD SWAP1 DUP2 ADD PUSH1 0x40 MSTORE DUP1 SWAP3 SWAP2 SWAP1 DUP2 DUP2 MSTORE PUSH1 0x20 ADD DUP3 DUP1 SLOAD PUSH2 0x87D SWAP1 PUSH2 0x2A5D JUMP JUMPDEST DUP1 ISZERO PUSH2 0x8CA JUMPI DUP1 PUSH1 0x1F LT PUSH2 0x89F JUMPI PUSH2 0x100 DUP1 DUP4 SLOAD DIV MUL DUP4 MSTORE SWAP2 PUSH1 0x20 ADD SWAP2 PUSH2 0x8CA JUMP JUMPDEST DUP3 ADD SWAP2 SWAP1 PUSH1 0x0 MSTORE PUSH1 0x20 PUSH1 0x0 KECCAK256 SWAP1 JUMPDEST DUP2 SLOAD DUP2 MSTORE SWAP1 PUSH1 0x1 ADD SWAP1 PUSH1 0x20 ADD DUP1 DUP4 GT PUSH2 0x8AD JUMPI DUP3 SWAP1 SUB PUSH1 0x1F AND DUP3 ADD SWAP2 JUMPDEST POP POP POP POP POP DUP2 MSTORE PUSH1 0x20 ADD PUSH1 0x1 DUP3 ADD DUP1 SLOAD PUSH2 0x8E3 SWAP1 PUSH2 0x2A5D JUMP JUMPDEST DUP1 PUSH1 0x1F ADD PUSH1 0x20 DUP1 SWAP2 DIV MUL PUSH1 0x20 ADD PUSH1 0x40 MLOAD SWAP1 DUP2 ADD PUSH1 0x40 MSTORE DUP1 SWAP3 SWAP2 SWAP1 DUP2 DUP2 MSTORE PUSH1 0x20 ADD DUP3 DUP1 SLOAD PUSH2 0x90F SWAP1 PUSH2 0x2A5D JUMP JUMPDEST DUP1 ISZERO PUSH2 0x95C JUMPI DUP1 PUSH1 0x1F LT PUSH2 0x931 JUMPI PUSH2 0x100 DUP1 DUP4 SLOAD DIV MUL DUP4 MSTORE SWAP2 PUSH1 0x20 ADD SWAP2 PUSH2 0x95C JUMP JUMPDEST DUP3 ADD SWAP2 SWAP1 PUSH1 0x0 MSTORE PUSH1 0x20 PUSH1 0x0 KECCAK256 SWAP1 JUMPDEST DUP2 SLOAD DUP2 MSTORE SWAP1 PUSH1 0x1 ADD SWAP1 PUSH1 0x20 ADD DUP1 DUP4 GT PUSH2 0x93F JUMPI DUP3 SWAP1 SUB PUSH1 0x1F AND DUP3 ADD SWAP2 JUMPDEST POP POP POP POP POP DUP2 MSTORE PUSH1 0x20 ADD PUSH1 0x2 DUP3 ADD DUP1 SLOAD PUSH2 0x975 SWAP1 PUSH2 0x2A5D JUMP JUMPDEST DUP1 PUSH1 0x1F ADD PUSH1 0x20 DUP1 SWAP2 DIV MUL PUSH1 0x20 ADD PUSH1 0x40 MLOAD SWAP1 DUP2 ADD PUSH1 0x40 MSTORE DUP1 SWAP3 SWAP2 SWAP1 DUP2 DUP2 MSTORE PUSH1 0x20 ADD DUP3 DUP1 SLOAD PUSH2 0x9A1 SWAP1 PUSH2 0x2A5D JUMP JUMPDEST DUP1 ISZERO PUSH2 0x9EE JUMPI DUP1 PUSH1 0x1F LT PUSH2 0x9C3 JUMPI PUSH2 0x100 DUP1 DUP4 SLOAD DIV MUL DUP4 MSTORE SWAP2 PUSH1 0x20 ADD SWAP2 PUSH2 0x9EE JUMP JUMPDEST DUP3 ADD SWAP2 SWAP1 PUSH1 0x0 MSTORE PUSH1 0x20 PUSH1 0x0 KECCAK256 SWAP1 JUMPDEST DUP2 SLOAD DUP2 MSTORE SWAP1 PUSH1 0x1 ADD SWAP1 PUSH1 0x20 ADD DUP1 DUP4 GT PUSH2 0x9D1 JUMPI DUP3 SWAP1 SUB PUSH1 0x1F AND DUP3 ADD SWAP2 JUMPDEST POP POP POP POP POP DUP2 MSTORE POP POP SWAP1 POP DUP3 DUP1 MLOAD SWAP1 PUSH1 0x20 ADD KECCAK256 DUP2 PUSH1 0x20 ADD MLOAD DUP1 MLOAD SWAP1 PUSH1 0x20 ADD KECCAK256 EQ PUSH2 0xA4D JUMPI PUSH1 0x40 MLOAD PUSH32 0x8C379A000000000000000000000000000000000000000000000000000000000 DUP2 MSTORE PUSH1 0x4 ADD PUSH2 0xA44 SWAP1 PUSH2 0x2716 JUMP JUMPDEST PUSH1 0x40 MLOAD DUP1 SWAP2 SUB SWAP1 REVERT JUMPDEST DUP1 PUSH1 0x40 ADD MLOAD SWAP2 POP POP SWAP3 SWAP2 POP POP JUMP JUMPDEST PUSH1 0x2 DUP2 DUP1 MLOAD PUSH1 0x20 DUP2 ADD DUP3 ADD DUP1 MLOAD DUP5 DUP3 MSTORE PUSH1 0x20 DUP4 ADD PUSH1 0x20 DUP6 ADD KECCAK256 DUP2 DUP4 MSTORE DUP1 SWAP6 POP POP POP POP POP POP PUSH1 0x0 SWAP2 POP SWAP1 POP DUP1 PUSH1 0x0 ADD DUP1 SLOAD PUSH2 0xA94 SWAP1 PUSH2 0x2A5D JUMP JUMPDEST DUP1 PUSH1 0x1F ADD PUSH1 0x20 DUP1 SWAP2 DIV MUL PUSH1 0x20 ADD PUSH1 0x40 MLOAD SWAP1 DUP2 ADD PUSH1 0x40 MSTORE DUP1 SWAP3 SWAP2 SWAP1 DUP2 DUP2 MSTORE PUSH1 0x20 ADD DUP3 DUP1 SLOAD PUSH2 0xAC0 SWAP1 PUSH2 0x2A5D JUMP JUMPDEST DUP1 ISZERO PUSH2 0xB0D JUMPI DUP1 PUSH1 0x1F LT PUSH2 0xAE2 JUMPI PUSH2 0x100 DUP1 DUP4 SLOAD DIV MUL DUP4 MSTORE SWAP2 PUSH1 0x20 ADD SWAP2 PUSH2 0xB0D JUMP JUMPDEST DUP3 ADD SWAP2 SWAP1 PUSH1 0x0 MSTORE PUSH1 0x20 PUSH1 0x0 KECCAK256 SWAP1 JUMPDEST DUP2 SLOAD DUP2 MSTORE SWAP1 PUSH1 0x1 ADD SWAP1 PUSH1 0x20 ADD DUP1 DUP4 GT PUSH2 0xAF0 JUMPI DUP3 SWAP1 SUB PUSH1 0x1F AND DUP3 ADD SWAP2 JUMPDEST POP POP POP POP POP SWAP1 DUP1 PUSH1 0x1 ADD DUP1 SLOAD PUSH2 0xB22 SWAP1 PUSH2 0x2A5D JUMP JUMPDEST DUP1 PUSH1 0x1F ADD PUSH1 0x20 DUP1 SWAP2 DIV MUL PUSH1 0x20 ADD PUSH1 0x40 MLOAD SWAP1 DUP2 ADD PUSH1 0x40 MSTORE DUP1 SWAP3 SWAP2 SWAP1 DUP2 DUP2 MSTORE PUSH1 0x20 ADD DUP3 DUP1 SLOAD PUSH2 0xB4E SWAP1 PUSH2 0x2A5D JUMP JUMPDEST DUP1 ISZERO PUSH2 0xB9B JUMPI DUP1 PUSH1 0x1F LT PUSH2 0xB70 JUMPI PUSH2 0x100 DUP1 DUP4 SLOAD DIV MUL DUP4 MSTORE SWAP2 PUSH1 0x20 ADD SWAP2 PUSH2 0xB9B JUMP JUMPDEST DUP3 ADD SWAP2 SWAP1 PUSH1 0x0 MSTORE PUSH1 0x20 PUSH1 0x0 KECCAK256 SWAP1 JUMPDEST DUP2 SLOAD DUP2 MSTORE SWAP1 PUSH1 0x1 ADD SWAP1 PUSH1 0x20 ADD DUP1 DUP4 GT PUSH2 0xB7E JUMPI DUP3 SWAP1 SUB PUSH1 0x1F AND DUP3 ADD SWAP2 JUMPDEST POP POP POP POP POP SWAP1 DUP1 PUSH1 0x2 ADD DUP1 SLOAD PUSH2 0xBB0 SWAP1 PUSH2 0x2A5D JUMP JUMPDEST DUP1 PUSH1 0x1F ADD PUSH1 0x20 DUP1 SWAP2 DIV MUL PUSH1 0x20 ADD PUSH1 0x40 MLOAD SWAP1 DUP2 ADD PUSH1 0x40 MSTORE DUP1 SWAP3 SWAP2 SWAP1 DUP2 DUP2 MSTORE PUSH1 0x20 ADD DUP3 DUP1 SLOAD PUSH2 0xBDC SWAP1 PUSH2 0x2A5D JUMP JUMPDEST DUP1 ISZERO PUSH2 0xC29 JUMPI DUP1 PUSH1 0x1F LT PUSH2 0xBFE JUMPI PUSH2 0x100 DUP1 DUP4 SLOAD DIV MUL DUP4 MSTORE SWAP2 PUSH1 0x20 ADD SWAP2 PUSH2 0xC29 JUMP JUMPDEST DUP3 ADD SWAP2 SWAP1 PUSH1 0x0 MSTORE PUSH1 0x20 PUSH1 0x0 KECCAK256 SWAP1 JUMPDEST DUP2 SLOAD DUP2 MSTORE SWAP1 PUSH1 0x1 ADD SWAP1 PUSH1 0x20 ADD DUP1 DUP4 GT PUSH2 0xC0C JUMPI DUP3 SWAP1 SUB PUSH1 0x1F AND DUP3 ADD SWAP2 JUMPDEST POP POP POP POP POP SWAP1 POP DUP4 JUMP JUMPDEST PUSH1 0x0 DUP1 PUSH1 0x0 SWAP1 SLOAD SWAP1 PUSH2 0x100 EXP SWAP1 DIV PUSH20 0xFFFFFFFFFFFFFFFFFFFFFFFFFFFFFFFFFFFFFFFF AND PUSH20 0xFFFFFFFFFFFFFFFFFFFFFFFFFFFFFFFFFFFFFFFF AND CALLER PUSH20 0xFFFFFFFFFFFFFFFFFFFFFFFFFFFFFFFFFFFFFFFF AND EQ PUSH2 0xCC4 JUMPI PUSH1 0x40 MLOAD PUSH32 0x8C379A000000000000000000000000000000000000000000000000000000000 DUP2 MSTORE PUSH1 0x4 ADD PUSH2 0xCBB SWAP1 PUSH2 0x27D6 JUMP JUMPDEST PUSH1 0x40 MLOAD DUP1 SWAP2 SUB SWAP1 REVERT JUMPDEST DUP2 PUSH1 0x1 PUSH1 0x0 CALLER PUSH20 0xFFFFFFFFFFFFFFFFFFFFFFFFFFFFFFFFFFFFFFFF AND PUSH20 0xFFFFFFFFFFFFFFFFFFFFFFFFFFFFFFFFFFFFFFFF AND DUP2 MSTORE PUSH1 0x20 ADD SWAP1 DUP2 MSTORE PUSH1 0x20 ADD PUSH1 0x0 KECCAK256 SWAP1 DUP1 MLOAD SWAP1 PUSH1 0x20 ADD SWAP1 PUSH2 0xD17 SWAP3 SWAP2 SWAP1 PUSH2 0x1D58 JUMP JUMPDEST POP PUSH1 0x1 SWAP1 POP SWAP2 SWAP1 POP JUMP JUMPDEST PUSH1 0x60 PUSH1 0x0 PUSH2 0xD2E DUP4 PUSH2 0x107B JUMP JUMPDEST SWAP1 POP PUSH1 0x0 DUP2 PUSH8 0xFFFFFFFFFFFFFFFF DUP2 GT ISZERO PUSH2 0xD72 JUMPI PUSH32 0x4E487B7100000000000000000000000000000000000000000000000000000000 PUSH1 0x0 MSTORE PUSH1 0x41 PUSH1 0x4 MSTORE PUSH1 0x24 PUSH1 0x0 REVERT JUMPDEST PUSH1 0x40 MLOAD SWAP1 DUP1 DUP3 MSTORE DUP1 PUSH1 0x20 MUL PUSH1 0x20 ADD DUP3 ADD PUSH1 0x40 MSTORE DUP1 ISZERO PUSH2 0xDAB JUMPI DUP2 PUSH1 0x20 ADD JUMPDEST PUSH2 0xD98 PUSH2 0x1DDE JUMP JUMPDEST DUP2 MSTORE PUSH1 0x20 ADD SWAP1 PUSH1 0x1 SWAP1 SUB SWAP1 DUP2 PUSH2 0xD90 JUMPI SWAP1 POP JUMPDEST POP SWAP1 POP PUSH1 0x0 DUP1 JUMPDEST DUP4 DUP2 LT ISZERO PUSH2 0xFA0 JUMPI PUSH1 0x0 PUSH2 0xDC5 DUP3 PUSH2 0x1B6B JUMP JUMPDEST SWAP1 POP PUSH1 0x5 DUP8 PUSH1 0x40 MLOAD PUSH2 0xDD7 SWAP2 SWAP1 PUSH2 0x2583 JUMP JUMPDEST SWAP1 DUP2 MSTORE PUSH1 0x20 ADD PUSH1 0x40 MLOAD DUP1 SWAP2 SUB SWAP1 KECCAK256 DUP2 PUSH1 0x40 MLOAD PUSH2 0xDF3 SWAP2 SWAP1 PUSH2 0x2583 JUMP JUMPDEST SWAP1 DUP2 MSTORE PUSH1 0x20 ADD PUSH1 0x40 MLOAD DUP1 SWAP2 SUB SWAP1 KECCAK256 PUSH1 0x40 MLOAD DUP1 PUSH1 0x60 ADD PUSH1 0x40 MSTORE SWAP1 DUP2 PUSH1 0x0 DUP3 ADD DUP1 SLOAD PUSH2 0xE1C SWAP1 PUSH2 0x2A5D JUMP JUMPDEST DUP1 PUSH1 0x1F ADD PUSH1 0x20 DUP1 SWAP2 DIV MUL PUSH1 0x20 ADD PUSH1 0x40 MLOAD SWAP1 DUP2 ADD PUSH1 0x40 MSTORE DUP1 SWAP3 SWAP2 SWAP1 DUP2 DUP2 MSTORE PUSH1 0x20 ADD DUP3 DUP1 SLOAD PUSH2 0xE48 SWAP1 PUSH2 0x2A5D JUMP JUMPDEST DUP1 ISZERO PUSH2 0xE95 JUMPI DUP1 PUSH1 0x1F LT PUSH2 0xE6A JUMPI PUSH2 0x100 DUP1 DUP4 SLOAD DIV MUL DUP4 MSTORE SWAP2 PUSH1 0x20 ADD SWAP2 PUSH2 0xE95 JUMP JUMPDEST DUP3 ADD SWAP2 SWAP1 PUSH1 0x0 MSTORE PUSH1 0x20 PUSH1 0x0 KECCAK256 SWAP1 JUMPDEST DUP2 SLOAD DUP2 MSTORE SWAP1 PUSH1 0x1 ADD SWAP1 PUSH1 0x20 ADD DUP1 DUP4 GT PUSH2 0xE78 JUMPI DUP3 SWAP1 SUB PUSH1 0x1F AND DUP3 ADD SWAP2 JUMPDEST POP POP POP POP POP DUP2 MSTORE PUSH1 0x20 ADD PUSH1 0x1 DUP3 ADD DUP1 SLOAD PUSH2 0xEAE SWAP1 PUSH2 0x2A5D JUMP JUMPDEST DUP1 PUSH1 0x1F ADD PUSH1 0x20 DUP1 SWAP2 DIV MUL PUSH1 0x20 ADD PUSH1 0x40 MLOAD SWAP1 DUP2 ADD PUSH1 0x40 MSTORE DUP1 SWAP3 SWAP2 SWAP1 DUP2 DUP2 MSTORE PUSH1 0x20 ADD DUP3 DUP1 SLOAD PUSH2 0xEDA SWAP1 PUSH2 0x2A5D JUMP JUMPDEST DUP1 ISZERO PUSH2 0xF27 JUMPI DUP1 PUSH1 0x1F LT PUSH2 0xEFC JUMPI PUSH2 0x100 DUP1 DUP4 SLOAD DIV MUL DUP4 MSTORE SWAP2 PUSH1 0x20 ADD SWAP2 PUSH2 0xF27 JUMP JUMPDEST DUP3 ADD SWAP2 SWAP1 PUSH1 0x0 MSTORE PUSH1 0x20 PUSH1 0x0 KECCAK256 SWAP1 JUMPDEST DUP2 SLOAD DUP2 MSTORE SWAP1 PUSH1 0x1 ADD SWAP1 PUSH1 0x20 ADD DUP1 DUP4 GT PUSH2 0xF0A JUMPI DUP3 SWAP1 SUB PUSH1 0x1F AND DUP3 ADD SWAP2 JUMPDEST POP POP POP POP POP DUP2 MSTORE PUSH1 0x20 ADD PUSH1 0x2 DUP3 ADD SLOAD DUP2 MSTORE POP POP DUP5 DUP5 DUP2 MLOAD DUP2 LT PUSH2 0xF73 JUMPI PUSH32 0x4E487B7100000000000000000000000000000000000000000000000000000000 PUSH1 0x0 MSTORE PUSH1 0x32 PUSH1 0x4 MSTORE PUSH1 0x24 PUSH1 0x0 REVERT JUMPDEST PUSH1 0x20 MUL PUSH1 0x20 ADD ADD DUP2 SWAP1 MSTORE POP DUP3 DUP1 PUSH2 0xF89 SWAP1 PUSH2 0x2A8F JUMP JUMPDEST SWAP4 POP POP POP DUP1 DUP1 PUSH2 0xF98 SWAP1 PUSH2 0x2A8F JUMP JUMPDEST SWAP2 POP POP PUSH2 0xDB2 JUMP JUMPDEST POP DUP2 SWAP4 POP POP POP POP SWAP2 SWAP1 POP JUMP JUMPDEST PUSH1 0x60 PUSH1 0x1 PUSH1 0x0 CALLER PUSH20 0xFFFFFFFFFFFFFFFFFFFFFFFFFFFFFFFFFFFFFFFF AND PUSH20 0xFFFFFFFFFFFFFFFFFFFFFFFFFFFFFFFFFFFFFFFF AND DUP2 MSTORE PUSH1 0x20 ADD SWAP1 DUP2 MSTORE PUSH1 0x20 ADD PUSH1 0x0 KECCAK256 DUP1 SLOAD PUSH2 0xFF8 SWAP1 PUSH2 0x2A5D JUMP JUMPDEST DUP1 PUSH1 0x1F ADD PUSH1 0x20 DUP1 SWAP2 DIV MUL PUSH1 0x20 ADD PUSH1 0x40 MLOAD SWAP1 DUP2 ADD PUSH1 0x40 MSTORE DUP1 SWAP3 SWAP2 SWAP1 DUP2 DUP2 MSTORE PUSH1 0x20 ADD DUP3 DUP1 SLOAD PUSH2 0x1024 SWAP1 PUSH2 0x2A5D JUMP JUMPDEST DUP1 ISZERO PUSH2 0x1071 JUMPI DUP1 PUSH1 0x1F LT PUSH2 0x1046 JUMPI PUSH2 0x100 DUP1 DUP4 SLOAD DIV MUL DUP4 MSTORE SWAP2 PUSH1 0x20 ADD SWAP2 PUSH2 0x1071 JUMP JUMPDEST DUP3 ADD SWAP2 SWAP1 PUSH1 0x0 MSTORE PUSH1 0x20 PUSH1 0x0 KECCAK256 SWAP1 JUMPDEST DUP2 SLOAD DUP2 MSTORE SWAP1 PUSH1 0x1 ADD SWAP1 PUSH1 0x20 ADD DUP1 DUP4 GT PUSH2 0x1054 JUMPI DUP3 SWAP1 SUB PUSH1 0x1F AND DUP3 ADD SWAP2 JUMPDEST POP POP POP POP POP SWAP1 POP SWAP1 JUMP JUMPDEST PUSH1 0x0 DUP1 PUSH1 0x0 SWAP1 POP JUMPDEST PUSH1 0x0 PUSH1 0x5 DUP5 PUSH1 0x40 MLOAD PUSH2 0x1095 SWAP2 SWAP1 PUSH2 0x2583 JUMP JUMPDEST SWAP1 DUP2 MSTORE PUSH1 0x20 ADD PUSH1 0x40 MLOAD DUP1 SWAP2 SUB SWAP1 KECCAK256 PUSH2 0x10AC DUP4 PUSH2 0x1B6B JUMP JUMPDEST PUSH1 0x40 MLOAD PUSH2 0x10B9 SWAP2 SWAP1 PUSH2 0x2583 JUMP JUMPDEST SWAP1 DUP2 MSTORE PUSH1 0x20 ADD PUSH1 0x40 MLOAD DUP1 SWAP2 SUB SWAP1 KECCAK256 PUSH1 0x0 ADD DUP1 SLOAD PUSH2 0x10D5 SWAP1 PUSH2 0x2A5D JUMP JUMPDEST SWAP1 POP EQ PUSH2 0x10EF JUMPI DUP1 DUP1 PUSH2 0x10E7 SWAP1 PUSH2 0x2A8F JUMP JUMPDEST SWAP2 POP POP PUSH2 0x1083 JUMP JUMPDEST DUP1 SWAP2 POP POP SWAP2 SWAP1 POP JUMP JUMPDEST PUSH1 0x3 DUP2 DUP1 MLOAD PUSH1 0x20 DUP2 ADD DUP3 ADD DUP1 MLOAD DUP5 DUP3 MSTORE PUSH1 0x20 DUP4 ADD PUSH1 0x20 DUP6 ADD KECCAK256 DUP2 DUP4 MSTORE DUP1 SWAP6 POP POP POP POP POP POP PUSH1 0x0 SWAP2 POP SLOAD SWAP1 PUSH2 0x100 EXP SWAP1 DIV PUSH1 0xFF AND DUP2 JUMP JUMPDEST PUSH1 0x0 PUSH1 0x2 DUP5 PUSH1 0x40 MLOAD PUSH2 0x1140 SWAP2 SWAP1 PUSH2 0x2583 JUMP JUMPDEST SWAP1 DUP2 MSTORE PUSH1 0x20 ADD PUSH1 0x40 MLOAD DUP1 SWAP2 SUB SWAP1 KECCAK256 PUSH1 0x0 ADD DUP1 SLOAD PUSH2 0x115C SWAP1 PUSH2 0x2A5D JUMP JUMPDEST SWAP1 POP EQ PUSH2 0x119E JUMPI PUSH1 0x40 MLOAD PUSH32 0x8C379A000000000000000000000000000000000000000000000000000000000 DUP2 MSTORE PUSH1 0x4 ADD PUSH2 0x1195 SWAP1 PUSH2 0x2776 JUMP JUMPDEST PUSH1 0x40 MLOAD DUP1 SWAP2 SUB SWAP1 REVERT JUMPDEST PUSH1 0x3 DUP3 PUSH1 0x40 MLOAD PUSH2 0x11AE SWAP2 SWAP1 PUSH2 0x2583 JUMP JUMPDEST SWAP1 DUP2 MSTORE PUSH1 0x20 ADD PUSH1 0x40 MLOAD DUP1 SWAP2 SUB SWAP1 KECCAK256 PUSH1 0x0 SWAP1 SLOAD SWAP1 PUSH2 0x100 EXP SWAP1 DIV PUSH1 0xFF AND ISZERO PUSH2 0x120A JUMPI PUSH1 0x40 MLOAD PUSH32 0x8C379A000000000000000000000000000000000000000000000000000000000 DUP2 MSTORE PUSH1 0x4 ADD PUSH2 0x1201 SWAP1 PUSH2 0x2756 JUMP JUMPDEST PUSH1 0x40 MLOAD DUP1 SWAP2 SUB SWAP1 REVERT JUMPDEST PUSH1 0x40 MLOAD DUP1 PUSH1 0x60 ADD PUSH1 0x40 MSTORE DUP1 DUP5 DUP2 MSTORE PUSH1 0x20 ADD DUP4 DUP2 MSTORE PUSH1 0x20 ADD DUP3 DUP2 MSTORE POP PUSH1 0x2 DUP5 PUSH1 0x40 MLOAD PUSH2 0x1235 SWAP2 SWAP1 PUSH2 0x2583 JUMP JUMPDEST SWAP1 DUP2 MSTORE PUSH1 0x20 ADD PUSH1 0x40 MLOAD DUP1 SWAP2 SUB SWAP1 KECCAK256 PUSH1 0x0 DUP3 ADD MLOAD DUP2 PUSH1 0x0 ADD SWAP1 DUP1 MLOAD SWAP1 PUSH1 0x20 ADD SWAP1 PUSH2 0x125F SWAP3 SWAP2 SWAP1 PUSH2 0x1D58 JUMP JUMPDEST POP PUSH1 0x20 DUP3 ADD MLOAD DUP2 PUSH1 0x1 ADD SWAP1 DUP1 MLOAD SWAP1 PUSH1 0x20 ADD SWAP1 PUSH2 0x127C SWAP3 SWAP2 SWAP1 PUSH2 0x1D58 JUMP JUMPDEST POP PUSH1 0x40 DUP3 ADD MLOAD DUP2 PUSH1 0x2 ADD SWAP1 DUP1 MLOAD SWAP1 PUSH1 0x20 ADD SWAP1 PUSH2 0x1299 SWAP3 SWAP2 SWAP1 PUSH2 0x1D58 JUMP JUMPDEST POP SWAP1 POP POP PUSH1 0x4 DUP4 SWAP1 DUP1 PUSH1 0x1 DUP2 SLOAD ADD DUP1 DUP3 SSTORE DUP1 SWAP2 POP POP PUSH1 0x1 SWAP1 SUB SWAP1 PUSH1 0x0 MSTORE PUSH1 0x20 PUSH1 0x0 KECCAK256 ADD PUSH1 0x0 SWAP1 SWAP2 SWAP1 SWAP2 SWAP1 SWAP2 POP SWAP1 DUP1 MLOAD SWAP1 PUSH1 0x20 ADD SWAP1 PUSH2 0x12D8 SWAP3 SWAP2 SWAP1 PUSH2 0x1D58 JUMP JUMPDEST POP PUSH1 0x1 PUSH1 0x3 DUP4 PUSH1 0x40 MLOAD PUSH2 0x12EB SWAP2 SWAP1 PUSH2 0x2583 JUMP JUMPDEST SWAP1 DUP2 MSTORE PUSH1 0x20 ADD PUSH1 0x40 MLOAD DUP1 SWAP2 SUB SWAP1 KECCAK256 PUSH1 0x0 PUSH2 0x100 EXP DUP2 SLOAD DUP2 PUSH1 0xFF MUL NOT AND SWAP1 DUP4 ISZERO ISZERO MUL OR SWAP1 SSTORE POP PUSH32 0xE89F9D1DB4A80497359A0E8138342D3DC7A087C12A922FFBFA1B1F4516F080B8 DUP4 DUP4 DUP4 PUSH1 0x40 MLOAD PUSH2 0x1343 SWAP4 SWAP3 SWAP2 SWAP1 PUSH2 0x262B JUMP JUMPDEST PUSH1 0x40 MLOAD DUP1 SWAP2 SUB SWAP1 LOG1 POP POP POP JUMP JUMPDEST PUSH1 0x0 DUP1 SLOAD SWAP1 PUSH2 0x100 EXP SWAP1 DIV PUSH20 0xFFFFFFFFFFFFFFFFFFFFFFFFFFFFFFFFFFFFFFFF AND DUP2 JUMP JUMPDEST PUSH1 0x1 PUSH1 0x20 MSTORE DUP1 PUSH1 0x0 MSTORE PUSH1 0x40 PUSH1 0x0 KECCAK256 PUSH1 0x0 SWAP2 POP SWAP1 POP DUP1 SLOAD PUSH2 0x1393 SWAP1 PUSH2 0x2A5D JUMP JUMPDEST DUP1 PUSH1 0x1F ADD PUSH1 0x20 DUP1 SWAP2 DIV MUL PUSH1 0x20 ADD PUSH1 0x40 MLOAD SWAP1 DUP2 ADD PUSH1 0x40 MSTORE DUP1 SWAP3 SWAP2 SWAP1 DUP2 DUP2 MSTORE PUSH1 0x20 ADD DUP3 DUP1 SLOAD PUSH2 0x13BF SWAP1 PUSH2 0x2A5D JUMP JUMPDEST DUP1 ISZERO PUSH2 0x140C JUMPI DUP1 PUSH1 0x1F LT PUSH2 0x13E1 JUMPI PUSH2 0x100 DUP1 DUP4 SLOAD DIV MUL DUP4 MSTORE SWAP2 PUSH1 0x20 ADD SWAP2 PUSH2 0x140C JUMP JUMPDEST DUP3 ADD SWAP2 SWAP1 PUSH1 0x0 MSTORE PUSH1 0x20 PUSH1 0x0 KECCAK256 SWAP1 JUMPDEST DUP2 SLOAD DUP2 MSTORE SWAP1 PUSH1 0x1 ADD SWAP1 PUSH1 0x20 ADD DUP1 DUP4 GT PUSH2 0x13EF JUMPI DUP3 SWAP1 SUB PUSH1 0x1F AND DUP3 ADD SWAP2 JUMPDEST POP POP POP POP POP DUP2 JUMP JUMPDEST PUSH1 0x0 DUP1 SLOAD SWAP1 PUSH2 0x100 EXP SWAP1 DIV PUSH20 0xFFFFFFFFFFFFFFFFFFFFFFFFFFFFFFFFFFFFFFFF AND PUSH20 0xFFFFFFFFFFFFFFFFFFFFFFFFFFFFFFFFFFFFFFFF AND CALLER PUSH20 0xFFFFFFFFFFFFFFFFFFFFFFFFFFFFFFFFFFFFFFFF AND EQ PUSH2 0x14A2 JUMPI PUSH1 0x40 MLOAD PUSH32 0x8C379A000000000000000000000000000000000000000000000000000000000 DUP2 MSTORE PUSH1 0x4 ADD PUSH2 0x1499 SWAP1 PUSH2 0x27D6 JUMP JUMPDEST PUSH1 0x40 MLOAD DUP1 SWAP2 SUB SWAP1 REVERT JUMPDEST PUSH1 0x40 MLOAD DUP1 PUSH1 0x60 ADD PUSH1 0x40 MSTORE DUP1 DUP5 DUP2 MSTORE PUSH1 0x20 ADD DUP4 DUP2 MSTORE PUSH1 0x20 ADD DUP3 DUP2 MSTORE POP PUSH1 0x6 DUP5 PUSH1 0x40 MLOAD PUSH2 0x14CD SWAP2 SWAP1 PUSH2 0x2583 JUMP JUMPDEST SWAP1 DUP2 MSTORE PUSH1 0x20 ADD PUSH1 0x40 MLOAD DUP1 SWAP2 SUB SWAP1 KECCAK256 PUSH1 0x0 DUP3 ADD MLOAD DUP2 PUSH1 0x0 ADD SWAP1 DUP1 MLOAD SWAP1 PUSH1 0x20 ADD SWAP1 PUSH2 0x14F7 SWAP3 SWAP2 SWAP1 PUSH2 0x1D58 JUMP JUMPDEST POP PUSH1 0x20 DUP3 ADD MLOAD DUP2 PUSH1 0x1 ADD SWAP1 DUP1 MLOAD SWAP1 PUSH1 0x20 ADD SWAP1 PUSH2 0x1514 SWAP3 SWAP2 SWAP1 PUSH2 0x1D58 JUMP JUMPDEST POP PUSH1 0x40 DUP3 ADD MLOAD DUP2 PUSH1 0x2 ADD SWAP1 DUP1 MLOAD SWAP1 PUSH1 0x20 ADD SWAP1 PUSH2 0x1531 SWAP3 SWAP2 SWAP1 PUSH2 0x1D58 JUMP JUMPDEST POP SWAP1 POP POP PUSH32 0x9BACB16A856389BF4D5E2DD536A58997F73BF52FC710C76D32F543E86CE7B86 DUP4 DUP4 DUP4 PUSH1 0x40 MLOAD PUSH2 0x1568 SWAP4 SWAP3 SWAP2 SWAP1 PUSH2 0x262B JUMP JUMPDEST PUSH1 0x40 MLOAD DUP1 SWAP2 SUB SWAP1 LOG1 POP POP POP JUMP JUMPDEST PUSH1 0x60 DUP1 PUSH1 0x0 DUP1 PUSH1 0x5 DUP7 PUSH1 0x40 MLOAD PUSH2 0x158B SWAP2 SWAP1 PUSH2 0x2583 JUMP JUMPDEST SWAP1 DUP2 MSTORE PUSH1 0x20 ADD PUSH1 0x40 MLOAD DUP1 SWAP2 SUB SWAP1 KECCAK256 DUP6 PUSH1 0x40 MLOAD PUSH2 0x15A7 SWAP2 SWAP1 PUSH2 0x2583 JUMP JUMPDEST SWAP1 DUP2 MSTORE PUSH1 0x20 ADD PUSH1 0x40 MLOAD DUP1 SWAP2 SUB SWAP1 KECCAK256 PUSH1 0x40 MLOAD DUP1 PUSH1 0x60 ADD PUSH1 0x40 MSTORE SWAP1 DUP2 PUSH1 0x0 DUP3 ADD DUP1 SLOAD PUSH2 0x15D0 SWAP1 PUSH2 0x2A5D JUMP JUMPDEST DUP1 PUSH1 0x1F ADD PUSH1 0x20 DUP1 SWAP2 DIV MUL PUSH1 0x20 ADD PUSH1 0x40 MLOAD SWAP1 DUP2 ADD PUSH1 0x40 MSTORE DUP1 SWAP3 SWAP2 SWAP1 DUP2 DUP2 MSTORE PUSH1 0x20 ADD DUP3 DUP1 SLOAD PUSH2 0x15FC SWAP1 PUSH2 0x2A5D JUMP JUMPDEST DUP1 ISZERO PUSH2 0x1649 JUMPI DUP1 PUSH1 0x1F LT PUSH2 0x161E JUMPI PUSH2 0x100 DUP1 DUP4 SLOAD DIV MUL DUP4 MSTORE SWAP2 PUSH1 0x20 ADD SWAP2 PUSH2 0x1649 JUMP JUMPDEST DUP3 ADD SWAP2 SWAP1 PUSH1 0x0 MSTORE PUSH1 0x20 PUSH1 0x0 KECCAK256 SWAP1 JUMPDEST DUP2 SLOAD DUP2 MSTORE SWAP1 PUSH1 0x1 ADD SWAP1 PUSH1 0x20 ADD DUP1 DUP4 GT PUSH2 0x162C JUMPI DUP3 SWAP1 SUB PUSH1 0x1F AND DUP3 ADD SWAP2 JUMPDEST POP POP POP POP POP DUP2 MSTORE PUSH1 0x20 ADD PUSH1 0x1 DUP3 ADD DUP1 SLOAD PUSH2 0x1662 SWAP1 PUSH2 0x2A5D JUMP JUMPDEST DUP1 PUSH1 0x1F ADD PUSH1 0x20 DUP1 SWAP2 DIV MUL PUSH1 0x20 ADD PUSH1 0x40 MLOAD SWAP1 DUP2 ADD PUSH1 0x40 MSTORE DUP1 SWAP3 SWAP2 SWAP1 DUP2 DUP2 MSTORE PUSH1 0x20 ADD DUP3 DUP1 SLOAD PUSH2 0x168E SWAP1 PUSH2 0x2A5D JUMP JUMPDEST DUP1 ISZERO PUSH2 0x16DB JUMPI DUP1 PUSH1 0x1F LT PUSH2 0x16B0 JUMPI PUSH2 0x100 DUP1 DUP4 SLOAD DIV MUL DUP4 MSTORE SWAP2 PUSH1 0x20 ADD SWAP2 PUSH2 0x16DB JUMP JUMPDEST DUP3 ADD SWAP2 SWAP1 PUSH1 0x0 MSTORE PUSH1 0x20 PUSH1 0x0 KECCAK256 SWAP1 JUMPDEST DUP2 SLOAD DUP2 MSTORE SWAP1 PUSH1 0x1 ADD SWAP1 PUSH1 0x20 ADD DUP1 DUP4 GT PUSH2 0x16BE JUMPI DUP3 SWAP1 SUB PUSH1 0x1F AND DUP3 ADD SWAP2 JUMPDEST POP POP POP POP POP DUP2 MSTORE PUSH1 0x20 ADD PUSH1 0x2 DUP3 ADD SLOAD DUP2 MSTORE POP POP SWAP1 POP PUSH1 0x0 DUP2 PUSH1 0x0 ADD MLOAD MLOAD EQ ISZERO PUSH2 0x1739 JUMPI PUSH1 0x40 MLOAD PUSH32 0x8C379A000000000000000000000000000000000000000000000000000000000 DUP2 MSTORE PUSH1 0x4 ADD PUSH2 0x1730 SWAP1 PUSH2 0x2736 JUMP JUMPDEST PUSH1 0x40 MLOAD DUP1 SWAP2 SUB SWAP1 REVERT JUMPDEST DUP1 PUSH1 0x0 ADD MLOAD DUP2 PUSH1 0x20 ADD MLOAD DUP3 PUSH1 0x40 ADD MLOAD SWAP4 POP SWAP4 POP SWAP4 POP POP SWAP3 POP SWAP3 POP SWAP3 JUMP JUMPDEST PUSH1 0x40 MLOAD DUP1 PUSH1 0x60 ADD PUSH1 0x40 MSTORE DUP1 DUP5 DUP2 MSTORE PUSH1 0x20 ADD DUP4 DUP2 MSTORE PUSH1 0x20 ADD DUP3 DUP2 MSTORE POP PUSH1 0x5 DUP6 PUSH1 0x40 MLOAD PUSH2 0x1781 SWAP2 SWAP1 PUSH2 0x2583 JUMP JUMPDEST SWAP1 DUP2 MSTORE PUSH1 0x20 ADD PUSH1 0x40 MLOAD DUP1 SWAP2 SUB SWAP1 KECCAK256 DUP5 PUSH1 0x40 MLOAD PUSH2 0x179D SWAP2 SWAP1 PUSH2 0x2583 JUMP JUMPDEST SWAP1 DUP2 MSTORE PUSH1 0x20 ADD PUSH1 0x40 MLOAD DUP1 SWAP2 SUB SWAP1 KECCAK256 PUSH1 0x0 DUP3 ADD MLOAD DUP2 PUSH1 0x0 ADD SWAP1 DUP1 MLOAD SWAP1 PUSH1 0x20 ADD SWAP1 PUSH2 0x17C7 SWAP3 SWAP2 SWAP1 PUSH2 0x1D58 JUMP JUMPDEST POP PUSH1 0x20 DUP3 ADD MLOAD DUP2 PUSH1 0x1 ADD SWAP1 DUP1 MLOAD SWAP1 PUSH1 0x20 ADD SWAP1 PUSH2 0x17E4 SWAP3 SWAP2 SWAP1 PUSH2 0x1D58 JUMP JUMPDEST POP PUSH1 0x40 DUP3 ADD MLOAD DUP2 PUSH1 0x2 ADD SSTORE SWAP1 POP POP PUSH32 0x47A10ED39C81F9F7FBC51698556008663C5A73EC3E7D3FAB18C6A4B1AF09C7D0 DUP5 DUP5 DUP5 DUP5 PUSH1 0x40 MLOAD PUSH2 0x1827 SWAP5 SWAP4 SWAP3 SWAP2 SWAP1 PUSH2 0x2677 JUMP JUMPDEST PUSH1 0x40 MLOAD DUP1 SWAP2 SUB SWAP1 LOG1 POP POP POP POP JUMP JUMPDEST PUSH1 0x0 PUSH1 0x2 DUP5 PUSH1 0x40 MLOAD PUSH2 0x1847 SWAP2 SWAP1 PUSH2 0x2583 JUMP JUMPDEST SWAP1 DUP2 MSTORE PUSH1 0x20 ADD PUSH1 0x40 MLOAD DUP1 SWAP2 SUB SWAP1 KECCAK256 SWAP1 POP PUSH1 0x0 DUP2 PUSH1 0x0 ADD DUP1 SLOAD PUSH2 0x1868 SWAP1 PUSH2 0x2A5D JUMP JUMPDEST SWAP1 POP EQ ISZERO PUSH2 0x18AB JUMPI PUSH1 0x40 MLOAD PUSH32 0x8C379A000000000000000000000000000000000000000000000000000000000 DUP2 MSTORE PUSH1 0x4 ADD PUSH2 0x18A2 SWAP1 PUSH2 0x2796 JUMP JUMPDEST PUSH1 0x40 MLOAD DUP1 SWAP2 SUB SWAP1 REVERT JUMPDEST DUP2 DUP1 MLOAD SWAP1 PUSH1 0x20 ADD KECCAK256 DUP2 PUSH1 0x1 ADD PUSH1 0x40 MLOAD PUSH2 0x18C4 SWAP2 SWAP1 PUSH2 0x256C JUMP JUMPDEST PUSH1 0x40 MLOAD DUP1 SWAP2 SUB SWAP1 KECCAK256 EQ PUSH2 0x190C JUMPI PUSH1 0x40 MLOAD PUSH32 0x8C379A000000000000000000000000000000000000000000000000000000000 DUP2 MSTORE PUSH1 0x4 ADD PUSH2 0x1903 SWAP1 PUSH2 0x27B6 JUMP JUMPDEST PUSH1 0x40 MLOAD DUP1 SWAP2 SUB SWAP1 REVERT JUMPDEST PUSH1 0x0 DUP2 PUSH1 0x2 ADD DUP1 SLOAD PUSH2 0x191D SWAP1 PUSH2 0x2A5D JUMP JUMPDEST DUP1 PUSH1 0x1F ADD PUSH1 0x20 DUP1 SWAP2 DIV MUL PUSH1 0x20 ADD PUSH1 0x40 MLOAD SWAP1 DUP2 ADD PUSH1 0x40 MSTORE DUP1 SWAP3 SWAP2 SWAP1 DUP2 DUP2 MSTORE PUSH1 0x20 ADD DUP3 DUP1 SLOAD PUSH2 0x1949 SWAP1 PUSH2 0x2A5D JUMP JUMPDEST DUP1 ISZERO PUSH2 0x1996 JUMPI DUP1 PUSH1 0x1F LT PUSH2 0x196B JUMPI PUSH2 0x100 DUP1 DUP4 SLOAD DIV MUL DUP4 MSTORE SWAP2 PUSH1 0x20 ADD SWAP2 PUSH2 0x1996 JUMP JUMPDEST DUP3 ADD SWAP2 SWAP1 PUSH1 0x0 MSTORE PUSH1 0x20 PUSH1 0x0 KECCAK256 SWAP1 JUMPDEST DUP2 SLOAD DUP2 MSTORE SWAP1 PUSH1 0x1 ADD SWAP1 PUSH1 0x20 ADD DUP1 DUP4 GT PUSH2 0x1979 JUMPI DUP3 SWAP1 SUB PUSH1 0x1F AND DUP3 ADD SWAP2 JUMPDEST POP POP POP POP POP SWAP1 POP DUP4 DUP3 PUSH1 0x2 ADD SWAP1 DUP1 MLOAD SWAP1 PUSH1 0x20 ADD SWAP1 PUSH2 0x19B5 SWAP3 SWAP2 SWAP1 PUSH2 0x1D58 JUMP JUMPDEST POP PUSH32 0x827688BD0EA6902EC08E3A700169A47D5B58E633A7252D2D78A738E71DEBA3BE DUP6 DUP3 DUP7 PUSH1 0x40 MLOAD PUSH2 0x19E9 SWAP4 SWAP3 SWAP2 SWAP1 PUSH2 0x262B JUMP JUMPDEST PUSH1 0x40 MLOAD DUP1 SWAP2 SUB SWAP1 LOG1 POP POP POP POP POP JUMP JUMPDEST PUSH1 0x5 DUP3 DUP1 MLOAD PUSH1 0x20 DUP2 ADD DUP3 ADD DUP1 MLOAD DUP5 DUP3 MSTORE PUSH1 0x20 DUP4 ADD PUSH1 0x20 DUP6 ADD KECCAK256 DUP2 DUP4 MSTORE DUP1 SWAP6 POP POP POP POP POP POP DUP2 DUP1 MLOAD PUSH1 0x20 DUP2 ADD DUP3 ADD DUP1 MLOAD DUP5 DUP3 MSTORE PUSH1 0x20 DUP4 ADD PUSH1 0x20 DUP6 ADD KECCAK256 DUP2 DUP4 MSTORE DUP1 SWAP6 POP POP POP POP POP POP PUSH1 0x0 SWAP2 POP SWAP2 POP POP DUP1 PUSH1 0x0 ADD DUP1 SLOAD PUSH2 0x1A54 SWAP1 PUSH2 0x2A5D JUMP JUMPDEST DUP1 PUSH1 0x1F ADD PUSH1 0x20 DUP1 SWAP2 DIV MUL PUSH1 0x20 ADD PUSH1 0x40 MLOAD SWAP1 DUP2 ADD PUSH1 0x40 MSTORE DUP1 SWAP3 SWAP2 SWAP1 DUP2 DUP2 MSTORE PUSH1 0x20 ADD DUP3 DUP1 SLOAD PUSH2 0x1A80 SWAP1 PUSH2 0x2A5D JUMP JUMPDEST DUP1 ISZERO PUSH2 0x1ACD JUMPI DUP1 PUSH1 0x1F LT PUSH2 0x1AA2 JUMPI PUSH2 0x100 DUP1 DUP4 SLOAD DIV MUL DUP4 MSTORE SWAP2 PUSH1 0x20 ADD SWAP2 PUSH2 0x1ACD JUMP JUMPDEST DUP3 ADD SWAP2 SWAP1 PUSH1 0x0 MSTORE PUSH1 0x20 PUSH1 0x0 KECCAK256 SWAP1 JUMPDEST DUP2 SLOAD DUP2 MSTORE SWAP1 PUSH1 0x1 ADD SWAP1 PUSH1 0x20 ADD DUP1 DUP4 GT PUSH2 0x1AB0 JUMPI DUP3 SWAP1 SUB PUSH1 0x1F AND DUP3 ADD SWAP2 JUMPDEST POP POP POP POP POP SWAP1 DUP1 PUSH1 0x1 ADD DUP1 SLOAD PUSH2 0x1AE2 SWAP1 PUSH2 0x2A5D JUMP JUMPDEST DUP1 PUSH1 0x1F ADD PUSH1 0x20 DUP1 SWAP2 DIV MUL PUSH1 0x20 ADD PUSH1 0x40 MLOAD SWAP1 DUP2 ADD PUSH1 0x40 MSTORE DUP1 SWAP3 SWAP2 SWAP1 DUP2 DUP2 MSTORE PUSH1 0x20 ADD DUP3 DUP1 SLOAD PUSH2 0x1B0E SWAP1 PUSH2 0x2A5D JUMP JUMPDEST DUP1 ISZERO PUSH2 0x1B5B JUMPI DUP1 PUSH1 0x1F LT PUSH2 0x1B30 JUMPI PUSH2 0x100 DUP1 DUP4 SLOAD DIV MUL DUP4 MSTORE SWAP2 PUSH1 0x20 ADD SWAP2 PUSH2 0x1B5B JUMP JUMPDEST DUP3 ADD SWAP2 SWAP1 PUSH1 0x0 MSTORE PUSH1 0x20 PUSH1 0x0 KECCAK256 SWAP1 JUMPDEST DUP2 SLOAD DUP2 MSTORE SWAP1 PUSH1 0x1 ADD SWAP1 PUSH1 0x20 ADD DUP1 DUP4 GT PUSH2 0x1B3E JUMPI DUP3 SWAP1 SUB PUSH1 0x1F AND DUP3 ADD SWAP2 JUMPDEST POP POP POP POP POP SWAP1 DUP1 PUSH1 0x2 ADD SLOAD SWAP1 POP DUP4 JUMP JUMPDEST PUSH1 0x60 PUSH1 0x0 DUP3 EQ ISZERO PUSH2 0x1BB3 JUMPI PUSH1 0x40 MLOAD DUP1 PUSH1 0x40 ADD PUSH1 0x40 MSTORE DUP1 PUSH1 0x1 DUP2 MSTORE PUSH1 0x20 ADD PUSH32 0x3000000000000000000000000000000000000000000000000000000000000000 DUP2 MSTORE POP SWAP1 POP PUSH2 0x1D13 JUMP JUMPDEST PUSH1 0x0 DUP3 SWAP1 POP PUSH1 0x0 JUMPDEST PUSH1 0x0 DUP3 EQ PUSH2 0x1BE5 JUMPI DUP1 DUP1 PUSH2 0x1BCE SWAP1 PUSH2 0x2A8F JUMP JUMPDEST SWAP2 POP POP PUSH1 0xA DUP3 PUSH2 0x1BDE SWAP2 SWAP1 PUSH2 0x296E JUMP JUMPDEST SWAP2 POP PUSH2 0x1BBB JUMP JUMPDEST PUSH1 0x0 DUP2 PUSH8 0xFFFFFFFFFFFFFFFF DUP2 GT ISZERO PUSH2 0x1C27 JUMPI PUSH32 0x4E487B7100000000000000000000000000000000000000000000000000000000 PUSH1 0x0 MSTORE PUSH1 0x41 PUSH1 0x4 MSTORE PUSH1 0x24 PUSH1 0x0 REVERT JUMPDEST PUSH1 0x40 MLOAD SWAP1 DUP1 DUP3 MSTORE DUP1 PUSH1 0x1F ADD PUSH1 0x1F NOT AND PUSH1 0x20 ADD DUP3 ADD PUSH1 0x40 MSTORE DUP1 ISZERO PUSH2 0x1C59 JUMPI DUP2 PUSH1 0x20 ADD PUSH1 0x1 DUP3 MUL DUP1 CALLDATASIZE DUP4 CALLDATACOPY DUP1 DUP3 ADD SWAP2 POP POP SWAP1 POP JUMPDEST POP SWAP1 POP JUMPDEST PUSH1 0x0 DUP6 EQ PUSH2 0x1D0C JUMPI PUSH1 0x1 DUP3 PUSH2 0x1C72 SWAP2 SWAP1 PUSH2 0x299F JUMP JUMPDEST SWAP2 POP PUSH1 0xA DUP6 PUSH2 0x1C81 SWAP2 SWAP1 PUSH2 0x2AD8 JUMP JUMPDEST PUSH1 0x30 PUSH2 0x1C8D SWAP2 SWAP1 PUSH2 0x2918 JUMP JUMPDEST PUSH1 0xF8 SHL DUP2 DUP4 DUP2 MLOAD DUP2 LT PUSH2 0x1CC9 JUMPI PUSH32 0x4E487B7100000000000000000000000000000000000000000000000000000000 PUSH1 0x0 MSTORE PUSH1 0x32 PUSH1 0x4 MSTORE PUSH1 0x24 PUSH1 0x0 REVERT JUMPDEST PUSH1 0x20 ADD ADD SWAP1 PUSH31 0xFFFFFFFFFFFFFFFFFFFFFFFFFFFFFFFFFFFFFFFFFFFFFFFFFFFFFFFFFFFFFF NOT AND SWAP1 DUP2 PUSH1 0x0 BYTE SWAP1 MSTORE8 POP PUSH1 0xA DUP6 PUSH2 0x1D05 SWAP2 SWAP1 PUSH2 0x296E JUMP JUMPDEST SWAP5 POP PUSH2 0x1C5D JUMP JUMPDEST DUP1 SWAP4 POP POP POP POP JUMPDEST SWAP2 SWAP1 POP JUMP JUMPDEST POP DUP1 SLOAD PUSH2 0x1D24 SWAP1 PUSH2 0x2A5D JUMP JUMPDEST PUSH1 0x0 DUP3 SSTORE DUP1 PUSH1 0x1F LT PUSH2 0x1D36 JUMPI POP PUSH2 0x1D55 JUMP JUMPDEST PUSH1 0x1F ADD PUSH1 0x20 SWAP1 DIV SWAP1 PUSH1 0x0 MSTORE PUSH1 0x20 PUSH1 0x0 KECCAK256 SWAP1 DUP2 ADD SWAP1 PUSH2 0x1D54 SWAP2 SWAP1 PUSH2 0x1DFF JUMP JUMPDEST JUMPDEST POP JUMP JUMPDEST DUP3 DUP1 SLOAD PUSH2 0x1D64 SWAP1 PUSH2 0x2A5D JUMP JUMPDEST SWAP1 PUSH1 0x0 MSTORE PUSH1 0x20 PUSH1 0x0 KECCAK256 SWAP1 PUSH1 0x1F ADD PUSH1 0x20 SWAP1 DIV DUP2 ADD SWAP3 DUP3 PUSH2 0x1D86 JUMPI PUSH1 0x0 DUP6 SSTORE PUSH2 0x1DCD JUMP JUMPDEST DUP3 PUSH1 0x1F LT PUSH2 0x1D9F JUMPI DUP1 MLOAD PUSH1 0xFF NOT AND DUP4 DUP1 ADD OR DUP6 SSTORE PUSH2 0x1DCD JUMP JUMPDEST DUP3 DUP1 ADD PUSH1 0x1 ADD DUP6 SSTORE DUP3 ISZERO PUSH2 0x1DCD JUMPI SWAP2 DUP3 ADD JUMPDEST DUP3 DUP2 GT ISZERO PUSH2 0x1DCC JUMPI DUP3 MLOAD DUP3 SSTORE SWAP2 PUSH1 0x20 ADD SWAP2 SWAP1 PUSH1 0x1 ADD SWAP1 PUSH2 0x1DB1 JUMP JUMPDEST JUMPDEST POP SWAP1 POP PUSH2 0x1DDA SWAP2 SWAP1 PUSH2 0x1DFF JUMP JUMPDEST POP SWAP1 JUMP JUMPDEST PUSH1 0x40 MLOAD DUP1 PUSH1 0x60 ADD PUSH1 0x40 MSTORE DUP1 PUSH1 0x60 DUP2 MSTORE PUSH1 0x20 ADD PUSH1 0x60 DUP2 MSTORE PUSH1 0x20 ADD PUSH1 0x0 DUP2 MSTORE POP SWAP1 JUMP JUMPDEST JUMPDEST DUP1 DUP3 GT ISZERO PUSH2 0x1E18 JUMPI PUSH1 0x0 DUP2 PUSH1 0x0 SWAP1 SSTORE POP PUSH1 0x1 ADD PUSH2 0x1E00 JUMP JUMPDEST POP SWAP1 JUMP JUMPDEST PUSH1 0x0 PUSH2 0x1E2F PUSH2 0x1E2A DUP5 PUSH2 0x2842 JUMP JUMPDEST PUSH2 0x2811 JUMP JUMPDEST SWAP1 POP DUP3 DUP2 MSTORE PUSH1 0x20 DUP2 ADD DUP5 DUP5 DUP5 ADD GT ISZERO PUSH2 0x1E47 JUMPI PUSH1 0x0 DUP1 REVERT JUMPDEST PUSH2 0x1E52 DUP5 DUP3 DUP6 PUSH2 0x2A1B JUMP JUMPDEST POP SWAP4 SWAP3 POP POP POP JUMP JUMPDEST PUSH1 0x0 DUP2 CALLDATALOAD SWAP1 POP PUSH2 0x1E69 DUP2 PUSH2 0x2BD6 JUMP JUMPDEST SWAP3 SWAP2 POP POP JUMP JUMPDEST PUSH1 0x0 DUP3 PUSH1 0x1F DUP4 ADD SLT PUSH2 0x1E80 JUMPI PUSH1 0x0 DUP1 REVERT JUMPDEST DUP2 CALLDATALOAD PUSH2 0x1E90 DUP5 DUP3 PUSH1 0x20 DUP7 ADD PUSH2 0x1E1C JUMP JUMPDEST SWAP2 POP POP SWAP3 SWAP2 POP POP JUMP JUMPDEST PUSH1 0x0 DUP2 CALLDATALOAD SWAP1 POP PUSH2 0x1EA8 DUP2 PUSH2 0x2BED JUMP JUMPDEST SWAP3 SWAP2 POP POP JUMP JUMPDEST PUSH1 0x0 PUSH1 0x20 DUP3 DUP5 SUB SLT ISZERO PUSH2 0x1EC0 JUMPI PUSH1 0x0 DUP1 REVERT JUMPDEST PUSH1 0x0 PUSH2 0x1ECE DUP5 DUP3 DUP6 ADD PUSH2 0x1E5A JUMP JUMPDEST SWAP2 POP POP SWAP3 SWAP2 POP POP JUMP JUMPDEST PUSH1 0x0 PUSH1 0x20 DUP3 DUP5 SUB SLT ISZERO PUSH2 0x1EE9 JUMPI PUSH1 0x0 DUP1 REVERT JUMPDEST PUSH1 0x0 DUP3 ADD CALLDATALOAD PUSH8 0xFFFFFFFFFFFFFFFF DUP2 GT ISZERO PUSH2 0x1F03 JUMPI PUSH1 0x0 DUP1 REVERT JUMPDEST PUSH2 0x1F0F DUP5 DUP3 DUP6 ADD PUSH2 0x1E6F JUMP JUMPDEST SWAP2 POP POP SWAP3 SWAP2 POP POP JUMP JUMPDEST PUSH1 0x0 DUP1 PUSH1 0x40 DUP4 DUP6 SUB SLT ISZERO PUSH2 0x1F2B JUMPI PUSH1 0x0 DUP1 REVERT JUMPDEST PUSH1 0x0 DUP4 ADD CALLDATALOAD PUSH8 0xFFFFFFFFFFFFFFFF DUP2 GT ISZERO PUSH2 0x1F45 JUMPI PUSH1 0x0 DUP1 REVERT JUMPDEST PUSH2 0x1F51 DUP6 DUP3 DUP7 ADD PUSH2 0x1E6F JUMP JUMPDEST SWAP3 POP POP PUSH1 0x20 DUP4 ADD CALLDATALOAD PUSH8 0xFFFFFFFFFFFFFFFF DUP2 GT ISZERO PUSH2 0x1F6E JUMPI PUSH1 0x0 DUP1 REVERT JUMPDEST PUSH2 0x1F7A DUP6 DUP3 DUP7 ADD PUSH2 0x1E6F JUMP JUMPDEST SWAP2 POP POP SWAP3 POP SWAP3 SWAP1 POP JUMP JUMPDEST PUSH1 0x0 DUP1 PUSH1 0x0 PUSH1 0x60 DUP5 DUP7 SUB SLT ISZERO PUSH2 0x1F99 JUMPI PUSH1 0x0 DUP1 REVERT JUMPDEST PUSH1 0x0 DUP5 ADD CALLDATALOAD PUSH8 0xFFFFFFFFFFFFFFFF DUP2 GT ISZERO PUSH2 0x1FB3 JUMPI PUSH1 0x0 DUP1 REVERT JUMPDEST PUSH2 0x1FBF DUP7 DUP3 DUP8 ADD PUSH2 0x1E6F JUMP JUMPDEST SWAP4 POP POP PUSH1 0x20 DUP5 ADD CALLDATALOAD PUSH8 0xFFFFFFFFFFFFFFFF DUP2 GT ISZERO PUSH2 0x1FDC JUMPI PUSH1 0x0 DUP1 REVERT JUMPDEST PUSH2 0x1FE8 DUP7 DUP3 DUP8 ADD PUSH2 0x1E6F JUMP JUMPDEST SWAP3 POP POP PUSH1 0x40 DUP5 ADD CALLDATALOAD PUSH8 0xFFFFFFFFFFFFFFFF DUP2 GT ISZERO PUSH2 0x2005 JUMPI PUSH1 0x0 DUP1 REVERT JUMPDEST PUSH2 0x2011 DUP7 DUP3 DUP8 ADD PUSH2 0x1E6F JUMP JUMPDEST SWAP2 POP POP SWAP3 POP SWAP3 POP SWAP3 JUMP JUMPDEST PUSH1 0x0 DUP1 PUSH1 0x0 DUP1 PUSH1 0x80 DUP6 DUP8 SUB SLT ISZERO PUSH2 0x2031 JUMPI PUSH1 0x0 DUP1 REVERT JUMPDEST PUSH1 0x0 DUP6 ADD CALLDATALOAD PUSH8 0xFFFFFFFFFFFFFFFF DUP2 GT ISZERO PUSH2 0x204B JUMPI PUSH1 0x0 DUP1 REVERT JUMPDEST PUSH2 0x2057 DUP8 DUP3 DUP9 ADD PUSH2 0x1E6F JUMP JUMPDEST SWAP5 POP POP PUSH1 0x20 DUP6 ADD CALLDATALOAD PUSH8 0xFFFFFFFFFFFFFFFF DUP2 GT ISZERO PUSH2 0x2074 JUMPI PUSH1 0x0 DUP1 REVERT JUMPDEST PUSH2 0x2080 DUP8 DUP3 DUP9 ADD PUSH2 0x1E6F JUMP JUMPDEST SWAP4 POP POP PUSH1 0x40 DUP6 ADD CALLDATALOAD PUSH8 0xFFFFFFFFFFFFFFFF DUP2 GT ISZERO PUSH2 0x209D JUMPI PUSH1 0x0 DUP1 REVERT JUMPDEST PUSH2 0x20A9 DUP8 DUP3 DUP9 ADD PUSH2 0x1E6F JUMP JUMPDEST SWAP3 POP POP PUSH1 0x60 PUSH2 0x20BA DUP8 DUP3 DUP9 ADD PUSH2 0x1E99 JUMP JUMPDEST SWAP2 POP POP SWAP3 SWAP6 SWAP2 SWAP5 POP SWAP3 POP JUMP JUMPDEST PUSH1 0x0 PUSH1 0x20 DUP3 DUP5 SUB SLT ISZERO PUSH2 0x20D8 JUMPI PUSH1 0x0 DUP1 REVERT JUMPDEST PUSH1 0x0 PUSH2 0x20E6 DUP5 DUP3 DUP6 ADD PUSH2 0x1E99 JUMP JUMPDEST SWAP2 POP POP SWAP3 SWAP2 POP POP JUMP JUMPDEST PUSH1 0x0 PUSH2 0x20FB DUP4 DUP4 PUSH2 0x24F7 JUMP JUMPDEST SWAP1 POP SWAP3 SWAP2 POP POP JUMP JUMPDEST PUSH2 0x210C DUP2 PUSH2 0x29D3 JUMP JUMPDEST DUP3 MSTORE POP POP JUMP JUMPDEST PUSH1 0x0 PUSH2 0x211D DUP3 PUSH2 0x28AC JUMP JUMPDEST PUSH2 0x2127 DUP2 DUP6 PUSH2 0x28CF JUMP JUMPDEST SWAP4 POP DUP4 PUSH1 0x20 DUP3 MUL DUP6 ADD PUSH2 0x2139 DUP6 PUSH2 0x2872 JUMP JUMPDEST DUP1 PUSH1 0x0 JUMPDEST DUP6 DUP2 LT ISZERO PUSH2 0x2175 JUMPI DUP5 DUP5 SUB DUP10 MSTORE DUP2 MLOAD PUSH2 0x2156 DUP6 DUP3 PUSH2 0x20EF JUMP JUMPDEST SWAP5 POP PUSH2 0x2161 DUP4 PUSH2 0x28C2 JUMP JUMPDEST SWAP3 POP PUSH1 0x20 DUP11 ADD SWAP10 POP POP PUSH1 0x1 DUP2 ADD SWAP1 POP PUSH2 0x213D JUMP JUMPDEST POP DUP3 SWAP8 POP DUP8 SWAP6 POP POP POP POP POP POP SWAP3 SWAP2 POP POP JUMP JUMPDEST PUSH2 0x2190 DUP2 PUSH2 0x29E5 JUMP JUMPDEST DUP3 MSTORE POP POP JUMP JUMPDEST PUSH1 0x0 DUP2 SLOAD PUSH2 0x21A3 DUP2 PUSH2 0x2A5D JUMP JUMPDEST PUSH2 0x21AD DUP2 DUP7 PUSH2 0x28E0 JUMP JUMPDEST SWAP5 POP PUSH1 0x1 DUP3 AND PUSH1 0x0 DUP2 EQ PUSH2 0x21C8 JUMPI PUSH1 0x1 DUP2 EQ PUSH2 0x21D9 JUMPI PUSH2 0x220C JUMP JUMPDEST PUSH1 0xFF NOT DUP4 AND DUP7 MSTORE DUP2 DUP7 ADD SWAP4 POP PUSH2 0x220C JUMP JUMPDEST PUSH2 0x21E2 DUP6 PUSH2 0x2882 JUMP JUMPDEST PUSH1 0x0 JUMPDEST DUP4 DUP2 LT ISZERO PUSH2 0x2204 JUMPI DUP2 SLOAD DUP2 DUP10 ADD MSTORE PUSH1 0x1 DUP3 ADD SWAP2 POP PUSH1 0x20 DUP2 ADD SWAP1 POP PUSH2 0x21E5 JUMP JUMPDEST DUP4 DUP9 ADD SWAP6 POP POP POP JUMPDEST POP POP POP SWAP3 SWAP2 POP POP JUMP JUMPDEST PUSH1 0x0 PUSH2 0x2220 DUP3 PUSH2 0x28B7 JUMP JUMPDEST PUSH2 0x222A DUP2 DUP6 PUSH2 0x28EB JUMP JUMPDEST SWAP4 POP PUSH2 0x223A DUP2 DUP6 PUSH1 0x20 DUP7 ADD PUSH2 0x2A2A JUMP JUMPDEST PUSH2 0x2243 DUP2 PUSH2 0x2BC5 JUMP JUMPDEST DUP5 ADD SWAP2 POP POP SWAP3 SWAP2 POP POP JUMP JUMPDEST PUSH1 0x0 PUSH2 0x2259 DUP3 PUSH2 0x28B7 JUMP JUMPDEST PUSH2 0x2263 DUP2 DUP6 PUSH2 0x28FC JUMP JUMPDEST SWAP4 POP PUSH2 0x2273 DUP2 DUP6 PUSH1 0x20 DUP7 ADD PUSH2 0x2A2A JUMP JUMPDEST PUSH2 0x227C DUP2 PUSH2 0x2BC5 JUMP JUMPDEST DUP5 ADD SWAP2 POP POP SWAP3 SWAP2 POP POP JUMP JUMPDEST PUSH1 0x0 PUSH2 0x2292 DUP3 PUSH2 0x28B7 JUMP JUMPDEST PUSH2 0x229C DUP2 DUP6 PUSH2 0x290D JUMP JUMPDEST SWAP4 POP PUSH2 0x22AC DUP2 DUP6 PUSH1 0x20 DUP7 ADD PUSH2 0x2A2A JUMP JUMPDEST DUP1 DUP5 ADD SWAP2 POP POP SWAP3 SWAP2 POP POP JUMP JUMPDEST PUSH1 0x0 DUP2 SLOAD PUSH2 0x22C5 DUP2 PUSH2 0x2A5D JUMP JUMPDEST PUSH2 0x22CF DUP2 DUP7 PUSH2 0x290D JUMP JUMPDEST SWAP5 POP PUSH1 0x1 DUP3 AND PUSH1 0x0 DUP2 EQ PUSH2 0x22EA JUMPI PUSH1 0x1 DUP2 EQ PUSH2 0x22FB JUMPI PUSH2 0x232E JUMP JUMPDEST PUSH1 0xFF NOT DUP4 AND DUP7 MSTORE DUP2 DUP7 ADD SWAP4 POP PUSH2 0x232E JUMP JUMPDEST PUSH2 0x2304 DUP6 PUSH2 0x2897 JUMP JUMPDEST PUSH1 0x0 JUMPDEST DUP4 DUP2 LT ISZERO PUSH2 0x2326 JUMPI DUP2 SLOAD DUP2 DUP10 ADD MSTORE PUSH1 0x1 DUP3 ADD SWAP2 POP PUSH1 0x20 DUP2 ADD SWAP1 POP PUSH2 0x2307 JUMP JUMPDEST DUP4 DUP9 ADD SWAP6 POP POP POP JUMPDEST POP POP POP SWAP3 SWAP2 POP POP JUMP JUMPDEST PUSH1 0x0 PUSH2 0x2344 PUSH1 0x18 DUP4 PUSH2 0x28FC JUMP JUMPDEST SWAP2 POP PUSH32 0x4E6F206D61746368696E6720706F6C69637920666F756E640000000000000000 PUSH1 0x0 DUP4 ADD MSTORE PUSH1 0x20 DUP3 ADD SWAP1 POP SWAP2 SWAP1 POP JUMP JUMPDEST PUSH1 0x0 PUSH2 0x2384 PUSH1 0x18 DUP4 PUSH2 0x28FC JUMP JUMPDEST SWAP2 POP PUSH32 0x41747472696275746520646F6573206E6F742065786973740000000000000000 PUSH1 0x0 DUP4 ADD MSTORE PUSH1 0x20 DUP3 ADD SWAP1 POP SWAP2 SWAP1 POP JUMP JUMPDEST PUSH1 0x0 PUSH2 0x23C4 PUSH1 0x18 DUP4 PUSH2 0x28FC JUMP JUMPDEST SWAP2 POP PUSH32 0x46696E6765727072696E7420616C726561647920757365640000000000000000 PUSH1 0x0 DUP4 ADD MSTORE PUSH1 0x20 DUP3 ADD SWAP1 POP SWAP2 SWAP1 POP JUMP JUMPDEST PUSH1 0x0 PUSH2 0x2404 PUSH1 0x17 DUP4 PUSH2 0x28FC JUMP JUMPDEST SWAP2 POP PUSH32 0x557365726E616D6520616C726561647920657869737473000000000000000000 PUSH1 0x0 DUP4 ADD MSTORE PUSH1 0x20 DUP3 ADD SWAP1 POP SWAP2 SWAP1 POP JUMP JUMPDEST PUSH1 0x0 PUSH2 0x2444 PUSH1 0x13 DUP4 PUSH2 0x28FC JUMP JUMPDEST SWAP2 POP PUSH32 0x5573657220646F6573206E6F7420657869737400000000000000000000000000 PUSH1 0x0 DUP4 ADD MSTORE PUSH1 0x20 DUP3 ADD SWAP1 POP SWAP2 SWAP1 POP JUMP JUMPDEST PUSH1 0x0 PUSH2 0x2484 PUSH1 0x13 DUP4 PUSH2 0x28FC JUMP JUMPDEST SWAP2 POP PUSH32 0x496E76616C69642066696E6765727072696E7400000000000000000000000000 PUSH1 0x0 DUP4 ADD MSTORE PUSH1 0x20 DUP3 ADD SWAP1 POP SWAP2 SWAP1 POP JUMP JUMPDEST PUSH1 0x0 PUSH2 0x24C4 PUSH1 0xE DUP4 PUSH2 0x28FC JUMP JUMPDEST SWAP2 POP PUSH32 0x4E6F7420617574686F72697A6564000000000000000000000000000000000000 PUSH1 0x0 DUP4 ADD MSTORE PUSH1 0x20 DUP3 ADD SWAP1 POP SWAP2 SWAP1 POP JUMP JUMPDEST PUSH1 0x0 PUSH1 0x60 DUP4 ADD PUSH1 0x0 DUP4 ADD MLOAD DUP5 DUP3 SUB PUSH1 0x0 DUP7 ADD MSTORE PUSH2 0x2514 DUP3 DUP3 PUSH2 0x2215 JUMP JUMPDEST SWAP2 POP POP PUSH1 0x20 DUP4 ADD MLOAD DUP5 DUP3 SUB PUSH1 0x20 DUP7 ADD MSTORE PUSH2 0x252E DUP3 DUP3 PUSH2 0x2215 JUMP JUMPDEST SWAP2 POP POP PUSH1 0x40 DUP4 ADD MLOAD PUSH2 0x2543 PUSH1 0x40 DUP7 ADD DUP3 PUSH2 0x254E JUMP JUMPDEST POP DUP1 SWAP2 POP POP SWAP3 SWAP2 POP POP JUMP JUMPDEST PUSH2 0x2557 DUP2 PUSH2 0x2A11 JUMP JUMPDEST DUP3 MSTORE POP POP JUMP JUMPDEST PUSH2 0x2566 DUP2 PUSH2 0x2A11 JUMP JUMPDEST DUP3 MSTORE POP POP JUMP JUMPDEST PUSH1 0x0 PUSH2 0x2578 DUP3 DUP5 PUSH2 0x2196 JUMP JUMPDEST SWAP2 POP DUP2 SWAP1 POP SWAP3 SWAP2 POP POP JUMP JUMPDEST PUSH1 0x0 PUSH2 0x258F DUP3 DUP5 PUSH2 0x2287 JUMP JUMPDEST SWAP2 POP DUP2 SWAP1 POP SWAP3 SWAP2 POP POP JUMP JUMPDEST PUSH1 0x0 PUSH2 0x25A6 DUP3 DUP5 PUSH2 0x22B8 JUMP JUMPDEST SWAP2 POP DUP2 SWAP1 POP SWAP3 SWAP2 POP POP JUMP JUMPDEST PUSH1 0x0 PUSH1 0x20 DUP3 ADD SWAP1 POP PUSH2 0x25C6 PUSH1 0x0 DUP4 ADD DUP5 PUSH2 0x2103 JUMP JUMPDEST SWAP3 SWAP2 POP POP JUMP JUMPDEST PUSH1 0x0 PUSH1 0x20 DUP3 ADD SWAP1 POP DUP2 DUP2 SUB PUSH1 0x0 DUP4 ADD MSTORE PUSH2 0x25E6 DUP2 DUP5 PUSH2 0x2112 JUMP JUMPDEST SWAP1 POP SWAP3 SWAP2 POP POP JUMP JUMPDEST PUSH1 0x0 PUSH1 0x20 DUP3 ADD SWAP1 POP PUSH2 0x2603 PUSH1 0x0 DUP4 ADD DUP5 PUSH2 0x2187 JUMP JUMPDEST SWAP3 SWAP2 POP POP JUMP JUMPDEST PUSH1 0x0 PUSH1 0x20 DUP3 ADD SWAP1 POP DUP2 DUP2 SUB PUSH1 0x0 DUP4 ADD MSTORE PUSH2 0x2623 DUP2 DUP5 PUSH2 0x224E JUMP JUMPDEST SWAP1 POP SWAP3 SWAP2 POP POP JUMP JUMPDEST PUSH1 0x0 PUSH1 0x60 DUP3 ADD SWAP1 POP DUP2 DUP2 SUB PUSH1 0x0 DUP4 ADD MSTORE PUSH2 0x2645 DUP2 DUP7 PUSH2 0x224E JUMP JUMPDEST SWAP1 POP DUP2 DUP2 SUB PUSH1 0x20 DUP4 ADD MSTORE PUSH2 0x2659 DUP2 DUP6 PUSH2 0x224E JUMP JUMPDEST SWAP1 POP DUP2 DUP2 SUB PUSH1 0x40 DUP4 ADD MSTORE PUSH2 0x266D DUP2 DUP5 PUSH2 0x224E JUMP JUMPDEST SWAP1 POP SWAP5 SWAP4 POP POP POP POP JUMP JUMPDEST PUSH1 0x0 PUSH1 0x80 DUP3 ADD SWAP1 POP DUP2 DUP2 SUB PUSH1 0x0 DUP4 ADD MSTORE PUSH2 0x2691 DUP2 DUP8 PUSH2 0x224E JUMP JUMPDEST SWAP1 POP DUP2 DUP2 SUB PUSH1 0x20 DUP4 ADD MSTORE PUSH2 0x26A5 DUP2 DUP7 PUSH2 0x224E JUMP JUMPDEST SWAP1 POP DUP2 DUP2 SUB PUSH1 0x40 DUP4 ADD MSTORE PUSH2 0x26B9 DUP2 DUP6 PUSH2 0x224E JUMP JUMPDEST SWAP1 POP PUSH2 0x26C8 PUSH1 0x60 DUP4 ADD DUP5 PUSH2 0x255D JUMP JUMPDEST SWAP6 SWAP5 POP POP POP POP POP JUMP JUMPDEST PUSH1 0x0 PUSH1 0x60 DUP3 ADD SWAP1 POP DUP2 DUP2 SUB PUSH1 0x0 DUP4 ADD MSTORE PUSH2 0x26EB DUP2 DUP7 PUSH2 0x224E JUMP JUMPDEST SWAP1 POP DUP2 DUP2 SUB PUSH1 0x20 DUP4 ADD MSTORE PUSH2 0x26FF DUP2 DUP6 PUSH2 0x224E JUMP JUMPDEST SWAP1 POP PUSH2 0x270E PUSH1 0x40 DUP4 ADD DUP5 PUSH2 0x255D JUMP JUMPDEST SWAP5 SWAP4 POP POP POP POP JUMP JUMPDEST PUSH1 0x0 PUSH1 0x20 DUP3 ADD SWAP1 POP DUP2 DUP2 SUB PUSH1 0x0 DUP4 ADD MSTORE PUSH2 0x272F DUP2 PUSH2 0x2337 JUMP JUMPDEST SWAP1 POP SWAP2 SWAP1 POP JUMP JUMPDEST PUSH1 0x0 PUSH1 0x20 DUP3 ADD SWAP1 POP DUP2 DUP2 SUB PUSH1 0x0 DUP4 ADD MSTORE PUSH2 0x274F DUP2 PUSH2 0x2377 JUMP JUMPDEST SWAP1 POP SWAP2 SWAP1 POP JUMP JUMPDEST PUSH1 0x0 PUSH1 0x20 DUP3 ADD SWAP1 POP DUP2 DUP2 SUB PUSH1 0x0 DUP4 ADD MSTORE PUSH2 0x276F DUP2 PUSH2 0x23B7 JUMP JUMPDEST SWAP1 POP SWAP2 SWAP1 POP JUMP JUMPDEST PUSH1 0x0 PUSH1 0x20 DUP3 ADD SWAP1 POP DUP2 DUP2 SUB PUSH1 0x0 DUP4 ADD MSTORE PUSH2 0x278F DUP2 PUSH2 0x23F7 JUMP JUMPDEST SWAP1 POP SWAP2 SWAP1 POP JUMP JUMPDEST PUSH1 0x0 PUSH1 0x20 DUP3 ADD SWAP1 POP DUP2 DUP2 SUB PUSH1 0x0 DUP4 ADD MSTORE PUSH2 0x27AF DUP2 PUSH2 0x2437 JUMP JUMPDEST SWAP1 POP SWAP2 SWAP1 POP JUMP JUMPDEST PUSH1 0x0 PUSH1 0x20 DUP3 ADD SWAP1 POP DUP2 DUP2 SUB PUSH1 0x0 DUP4 ADD MSTORE PUSH2 0x27CF DUP2 PUSH2 0x2477 JUMP JUMPDEST SWAP1 POP SWAP2 SWAP1 POP JUMP JUMPDEST PUSH1 0x0 PUSH1 0x20 DUP3 ADD SWAP1 POP DUP2 DUP2 SUB PUSH1 0x0 DUP4 ADD MSTORE PUSH2 0x27EF DUP2 PUSH2 0x24B7 JUMP JUMPDEST SWAP1 POP SWAP2 SWAP1 POP JUMP JUMPDEST PUSH1 0x0 PUSH1 0x20 DUP3 ADD SWAP1 POP PUSH2 0x280B PUSH1 0x0 DUP4 ADD DUP5 PUSH2 0x255D JUMP JUMPDEST SWAP3 SWAP2 POP POP JUMP JUMPDEST PUSH1 0x0 PUSH1 0x40 MLOAD SWAP1 POP DUP2 DUP2 ADD DUP2 DUP2 LT PUSH8 0xFFFFFFFFFFFFFFFF DUP3 GT OR ISZERO PUSH2 0x2838 JUMPI PUSH2 0x2837 PUSH2 0x2B96 JUMP JUMPDEST JUMPDEST DUP1 PUSH1 0x40 MSTORE POP SWAP2 SWAP1 POP JUMP JUMPDEST PUSH1 0x0 PUSH8 0xFFFFFFFFFFFFFFFF DUP3 GT ISZERO PUSH2 0x285D JUMPI PUSH2 0x285C PUSH2 0x2B96 JUMP JUMPDEST JUMPDEST PUSH1 0x1F NOT PUSH1 0x1F DUP4 ADD AND SWAP1 POP PUSH1 0x20 DUP2 ADD SWAP1 POP SWAP2 SWAP1 POP JUMP JUMPDEST PUSH1 0x0 DUP2 SWAP1 POP PUSH1 0x20 DUP3 ADD SWAP1 POP SWAP2 SWAP1 POP JUMP JUMPDEST PUSH1 0x0 DUP2 SWAP1 POP DUP2 PUSH1 0x0 MSTORE PUSH1 0x20 PUSH1 0x0 KECCAK256 SWAP1 POP SWAP2 SWAP1 POP JUMP JUMPDEST PUSH1 0x0 DUP2 SWAP1 POP DUP2 PUSH1 0x0 MSTORE PUSH1 0x20 PUSH1 0x0 KECCAK256 SWAP1 POP SWAP2 SWAP1 POP JUMP JUMPDEST PUSH1 0x0 DUP2 MLOAD SWAP1 POP SWAP2 SWAP1 POP JUMP JUMPDEST PUSH1 0x0 DUP2 MLOAD SWAP1 POP SWAP2 SWAP1 POP JUMP JUMPDEST PUSH1 0x0 PUSH1 0x20 DUP3 ADD SWAP1 POP SWAP2 SWAP1 POP JUMP JUMPDEST PUSH1 0x0 DUP3 DUP3 MSTORE PUSH1 0x20 DUP3 ADD SWAP1 POP SWAP3 SWAP2 POP POP JUMP JUMPDEST PUSH1 0x0 DUP2 SWAP1 POP SWAP3 SWAP2 POP POP JUMP JUMPDEST PUSH1 0x0 DUP3 DUP3 MSTORE PUSH1 0x20 DUP3 ADD SWAP1 POP SWAP3 SWAP2 POP POP JUMP JUMPDEST PUSH1 0x0 DUP3 DUP3 MSTORE PUSH1 0x20 DUP3 ADD SWAP1 POP SWAP3 SWAP2 POP POP JUMP JUMPDEST PUSH1 0x0 DUP2 SWAP1 POP SWAP3 SWAP2 POP POP JUMP JUMPDEST PUSH1 0x0 PUSH2 0x2923 DUP3 PUSH2 0x2A11 JUMP JUMPDEST SWAP2 POP PUSH2 0x292E DUP4 PUSH2 0x2A11 JUMP JUMPDEST SWAP3 POP DUP3 PUSH32 0xFFFFFFFFFFFFFFFFFFFFFFFFFFFFFFFFFFFFFFFFFFFFFFFFFFFFFFFFFFFFFFFF SUB DUP3 GT ISZERO PUSH2 0x2963 JUMPI PUSH2 0x2962 PUSH2 0x2B09 JUMP JUMPDEST JUMPDEST DUP3 DUP3 ADD SWAP1 POP SWAP3 SWAP2 POP POP JUMP JUMPDEST PUSH1 0x0 PUSH2 0x2979 DUP3 PUSH2 0x2A11 JUMP JUMPDEST SWAP2 POP PUSH2 0x2984 DUP4 PUSH2 0x2A11 JUMP JUMPDEST SWAP3 POP DUP3 PUSH2 0x2994 JUMPI PUSH2 0x2993 PUSH2 0x2B38 JUMP JUMPDEST JUMPDEST DUP3 DUP3 DIV SWAP1 POP SWAP3 SWAP2 POP POP JUMP JUMPDEST PUSH1 0x0 PUSH2 0x29AA DUP3 PUSH2 0x2A11 JUMP JUMPDEST SWAP2 POP PUSH2 0x29B5 DUP4 PUSH2 0x2A11 JUMP JUMPDEST SWAP3 POP DUP3 DUP3 LT ISZERO PUSH2 0x29C8 JUMPI PUSH2 0x29C7 PUSH2 0x2B09 JUMP JUMPDEST JUMPDEST DUP3 DUP3 SUB SWAP1 POP SWAP3 SWAP2 POP POP JUMP JUMPDEST PUSH1 0x0 PUSH2 0x29DE DUP3 PUSH2 0x29F1 JUMP JUMPDEST SWAP1 POP SWAP2 SWAP1 POP JUMP JUMPDEST PUSH1 0x0 DUP2 ISZERO ISZERO SWAP1 POP SWAP2 SWAP1 POP JUMP JUMPDEST PUSH1 0x0 PUSH20 0xFFFFFFFFFFFFFFFFFFFFFFFFFFFFFFFFFFFFFFFF DUP3 AND SWAP1 POP SWAP2 SWAP1 POP JUMP JUMPDEST PUSH1 0x0 DUP2 SWAP1 POP SWAP2 SWAP1 POP JUMP JUMPDEST DUP3 DUP2 DUP4 CALLDATACOPY PUSH1 0x0 DUP4 DUP4 ADD MSTORE POP POP POP JUMP JUMPDEST PUSH1 0x0 JUMPDEST DUP4 DUP2 LT ISZERO PUSH2 0x2A48 JUMPI DUP1 DUP3 ADD MLOAD DUP2 DUP5 ADD MSTORE PUSH1 0x20 DUP2 ADD SWAP1 POP PUSH2 0x2A2D JUMP JUMPDEST DUP4 DUP2 GT ISZERO PUSH2 0x2A57 JUMPI PUSH1 0x0 DUP5 DUP5 ADD MSTORE JUMPDEST POP POP POP POP JUMP JUMPDEST PUSH1 0x0 PUSH1 0x2 DUP3 DIV SWAP1 POP PUSH1 0x1 DUP3 AND DUP1 PUSH2 0x2A75 JUMPI PUSH1 0x7F DUP3 AND SWAP2 POP JUMPDEST PUSH1 0x20 DUP3 LT DUP2 EQ ISZERO PUSH2 0x2A89 JUMPI PUSH2 0x2A88 PUSH2 0x2B67 JUMP JUMPDEST JUMPDEST POP SWAP2 SWAP1 POP JUMP JUMPDEST PUSH1 0x0 PUSH2 0x2A9A DUP3 PUSH2 0x2A11 JUMP JUMPDEST SWAP2 POP PUSH32 0xFFFFFFFFFFFFFFFFFFFFFFFFFFFFFFFFFFFFFFFFFFFFFFFFFFFFFFFFFFFFFFFF DUP3 EQ ISZERO PUSH2 0x2ACD JUMPI PUSH2 0x2ACC PUSH2 0x2B09 JUMP JUMPDEST JUMPDEST PUSH1 0x1 DUP3 ADD SWAP1 POP SWAP2 SWAP1 POP JUMP JUMPDEST PUSH1 0x0 PUSH2 0x2AE3 DUP3 PUSH2 0x2A11 JUMP JUMPDEST SWAP2 POP PUSH2 0x2AEE DUP4 PUSH2 0x2A11 JUMP JUMPDEST SWAP3 POP DUP3 PUSH2 0x2AFE JUMPI PUSH2 0x2AFD PUSH2 0x2B38 JUMP JUMPDEST JUMPDEST DUP3 DUP3 MOD SWAP1 POP SWAP3 SWAP2 POP POP JUMP JUMPDEST PUSH32 0x4E487B7100000000000000000000000000000000000000000000000000000000 PUSH1 0x0 MSTORE PUSH1 0x11 PUSH1 0x4 MSTORE PUSH1 0x24 PUSH1 0x0 REVERT JUMPDEST PUSH32 0x4E487B7100000000000000000000000000000000000000000000000000000000 PUSH1 0x0 MSTORE PUSH1 0x12 PUSH1 0x4 MSTORE PUSH1 0x24 PUSH1 0x0 REVERT JUMPDEST PUSH32 0x4E487B7100000000000000000000000000000000000000000000000000000000 PUSH1 0x0 MSTORE PUSH1 0x22 PUSH1 0x4 MSTORE PUSH1 0x24 PUSH1 0x0 REVERT JUMPDEST PUSH32 0x4E487B7100000000000000000000000000000000000000000000000000000000 PUSH1 0x0 MSTORE PUSH1 0x41 PUSH1 0x4 MSTORE PUSH1 0x24 PUSH1 0x0 REVERT JUMPDEST PUSH1 0x0 PUSH1 0x1F NOT PUSH1 0x1F DUP4 ADD AND SWAP1 POP SWAP2 SWAP1 POP JUMP JUMPDEST PUSH2 0x2BDF DUP2 PUSH2 0x29D3 JUMP JUMPDEST DUP2 EQ PUSH2 0x2BEA JUMPI PUSH1 0x0 DUP1 REVERT JUMPDEST POP JUMP JUMPDEST PUSH2 0x2BF6 DUP2 PUSH2 0x2A11 JUMP JUMPDEST DUP2 EQ PUSH2 0x2C01 JUMPI PUSH1 0x0 DUP1 REVERT JUMPDEST POP JUMP INVALID LOG2 PUSH5 0x6970667358 0x22 SLT KECCAK256 0x1E SLOAD CALLVALUE 0xA7 0xD8 PUSH23 0x874F9C84892DCEE3D47B6327FBF649B4CD39986FD4FF96 0xC7 GT 0xCE PUSH5 0x736F6C6343 STOP ADDMOD STOP STOP CALLER "},"methodIdentifiers":{"accessPolicies(string)":"11c4c4bc","addAccessPolicy(string,string,string)":"b2f0383d","addAttribute(string,string,string,uint256)":"cd7a4996","addUserIdentity(string,string,string)":"8a6d7388","getAccessPolicy(string,string)":"3ef69c8b","getAttribute(string,string)":"bf2d0daf","getUserAttributes(string)":"70978a30","getUserAttributesCount(string)":"774e11dc","owner()":"8da5cb5b","publicKeys(address)":"a3d6f9a9","recoverUserIdentity(string,string,string)":"efd0ce07","retrievePublicKey()":"757a408f","revokeUserIdentity(string,string)":"0a3756cb","setPublicKey(string)":"6f6fc077","usedFingerprints(string)":"7e0eb265","userAttributes(string,string)":"f12ae456","userIdentities(string)":"63d8331a","userIdentityKeys(uint256)":"0cd9adf0"}}}}}