{
  "_format": "hh-sol-artifact-1",
  "contractName": "IdentityManagement",
  "sourceName": "contracts/IdentityManagement.sol",
  "abi": [
    {
      "inputs": [],
      "stateMutability": "nonpayable",
      "type": "constructor"
    },
    {
      "anonymous": false,
      "inputs": [
        {
          "indexed": false,
          "internalType": "string",
          "name": "username",
          "type": "string"
        },
        {
          "indexed": false,
          "internalType": "string",
          "name": "fingerprint",
          "type": "string"
        },
        {
          "indexed": false,
          "internalType": "string",
          "name": "publicKey",
          "type": "string"
        }
      ],
      "name": "UserIdentityAdded",
      "type": "event"
    },
    {
      "anonymous": false,
      "inputs": [
        {
          "indexed": false,
          "internalType": "string",
          "name": "username",
          "type": "string"
        },
        {
          "indexed": false,
          "internalType": "string",
          "name": "oldPublicKey",
          "type": "string"
        },
        {
          "indexed": false,
          "internalType": "string",
          "name": "newPublicKey",
          "type": "string"
        }
      ],
      "name": "UserIdentityRecovered",
      "type": "event"
    },
    {
      "anonymous": false,
      "inputs": [
        {
          "indexed": false,
          "internalType": "string",
          "name": "username",
          "type": "string"
        }
      ],
      "name": "UserIdentityRevoked",
      "type": "event"
    },
    {
      "inputs": [
        {
          "internalType": "string",
          "name": "_username",
          "type": "string"
        },
        {
          "internalType": "string",
          "name": "_fingerprint",
          "type": "string"
        },
        {
          "internalType": "string",
          "name": "_publicKey",
          "type": "string"
        }
      ],
      "name": "addUserIdentity",
      "outputs": [],
      "stateMutability": "nonpayable",
      "type": "function"
    },
    {
      "inputs": [],
      "name": "owner",
      "outputs": [
        {
          "internalType": "address",
          "name": "",
          "type": "address"
        }
      ],
      "stateMutability": "view",
      "type": "function"
    },
    {
      "inputs": [
        {
          "internalType": "address",
          "name": "",
          "type": "address"
        }
      ],
      "name": "publicKeys",
      "outputs": [
        {
          "internalType": "string",
          "name": "",
          "type": "string"
        }
      ],
      "stateMutability": "view",
      "type": "function"
    },
    {
      "inputs": [
        {
          "internalType": "string",
          "name": "_username",
          "type": "string"
        },
        {
          "internalType": "string",
          "name": "_newPublicKey",
          "type": "string"
        },
        {
          "internalType": "string",
          "name": "_fingerprint",
          "type": "string"
        }
      ],
      "name": "recoverUserIdentity",
      "outputs": [],
      "stateMutability": "nonpayable",
      "type": "function"
    },
    {
      "inputs": [],
      "name": "retrievePublicKey",
      "outputs": [
        {
          "internalType": "string",
          "name": "",
          "type": "string"
        }
      ],
      "stateMutability": "view",
      "type": "function"
    },
    {
      "inputs": [
        {
          "internalType": "string",
          "name": "_username",
          "type": "string"
        },
        {
          "internalType": "string",
          "name": "_fingerprint",
          "type": "string"
        }
      ],
      "name": "revokeUserIdentity",
      "outputs": [],
      "stateMutability": "nonpayable",
      "type": "function"
    },
    {
      "inputs": [
        {
          "internalType": "string",
          "name": "_publicKey",
          "type": "string"
        }
      ],
      "name": "setPublicKey",
      "outputs": [
        {
          "internalType": "bool",
          "name": "",
          "type": "bool"
        }
      ],
      "stateMutability": "nonpayable",
      "type": "function"
    },
    {
      "inputs": [
        {
          "internalType": "string",
          "name": "",
          "type": "string"
        }
      ],
      "name": "usedFingerprints",
      "outputs": [
        {
          "internalType": "bool",
          "name": "",
          "type": "bool"
        }
      ],
      "stateMutability": "view",
      "type": "function"
    },
    {
      "inputs": [
        {
          "internalType": "string",
          "name": "",
          "type": "string"
        }
      ],
      "name": "userIdentities",
      "outputs": [
        {
          "internalType": "string",
          "name": "username",
          "type": "string"
        },
        {
          "internalType": "string",
          "name": "fingerprint",
          "type": "string"
        },
        {
          "internalType": "string",
          "name": "publicKey",
          "type": "string"
        }
      ],
      "stateMutability": "view",
      "type": "function"
    },
    {
      "inputs": [
        {
          "internalType": "uint256",
          "name": "",
          "type": "uint256"
        }
      ],
      "name": "userIdentityKeys",
      "outputs": [
        {
          "internalType": "string",
          "name": "",
          "type": "string"
        }
      ],
      "stateMutability": "view",
      "type": "function"
    }
  ],
  "bytecode": "0x608060405234801561001057600080fd5b50336000806101000a81548173ffffffffffffffffffffffffffffffffffffffff021916908373ffffffffffffffffffffffffffffffffffffffff160217905550611680806100606000396000f3fe608060405234801561001057600080fd5b506004361061009e5760003560e01c80637e0eb265116100665780637e0eb2651461016f5780638a6d73881461019f5780638da5cb5b146101bb578063a3d6f9a9146101d9578063efd0ce07146102095761009e565b80630a3756cb146100a35780630cd9adf0146100bf57806363d8331a146100ef5780636f6fc07714610121578063757a408f14610151575b600080fd5b6100bd60048036038101906100b89190610eb9565b610225565b005b6100d960048036038101906100d49190610fbc565b6103ba565b6040516100e69190611326565b60405180910390f35b61010960048036038101906101049190610e78565b610466565b60405161011893929190611348565b60405180910390f35b61013b60048036038101906101369190610e78565b61063e565b604051610148919061130b565b60405180910390f35b61015961072c565b6040516101669190611326565b60405180910390f35b61018960048036038101906101849190610e78565b6107fb565b604051610196919061130b565b60405180910390f35b6101b960048036038101906101b49190610f25565b610831565b005b6101c3610a53565b6040516101d091906112f0565b60405180910390f35b6101f360048036038101906101ee9190610e4f565b610a77565b6040516102009190611326565b60405180910390f35b610223600480360381019061021e9190610f25565b610b17565b005b600060028360405161023791906112c2565b9081526020016040518091039020905060008160000180546102589061157b565b9050141561029b576040517f08c379a0000000000000000000000000000000000000000000000000000000008152600401610292906113d4565b60405180910390fd5b8180519060200120816001016040516102b491906112ab565b6040518091039020146102fc576040517f08c379a00000000000000000000000000000000000000000000000000000000081526004016102f3906113f4565b60405180910390fd5b60038160010160405161030f91906112d9565b908152602001604051809103902060006101000a81549060ff021916905560028360405161033d91906112c2565b90815260200160405180910390206000808201600061035c9190610cda565b60018201600061036c9190610cda565b60028201600061037c9190610cda565b50507fcac1ad720d45ac4c27b66d58f8da61d658da25d9ca0194ff38bd98838f9502d0836040516103ad9190611326565b60405180910390a1505050565b600481815481106103ca57600080fd5b9060005260206000200160009150905080546103e59061157b565b80601f01602080910402602001604051908101604052809291908181526020018280546104119061157b565b801561045e5780601f106104335761010080835404028352916020019161045e565b820191906000526020600020905b81548152906001019060200180831161044157829003601f168201915b505050505081565b60028180516020810182018051848252602083016020850120818352809550505050505060009150905080600001805461049f9061157b565b80601f01602080910402602001604051908101604052809291908181526020018280546104cb9061157b565b80156105185780601f106104ed57610100808354040283529160200191610518565b820191906000526020600020905b8154815290600101906020018083116104fb57829003601f168201915b50505050509080600101805461052d9061157b565b80601f01602080910402602001604051908101604052809291908181526020018280546105599061157b565b80156105a65780601f1061057b576101008083540402835291602001916105a6565b820191906000526020600020905b81548152906001019060200180831161058957829003601f168201915b5050505050908060020180546105bb9061157b565b80601f01602080910402602001604051908101604052809291908181526020018280546105e79061157b565b80156106345780601f1061060957610100808354040283529160200191610634565b820191906000526020600020905b81548152906001019060200180831161061757829003601f168201915b5050505050905083565b60008060009054906101000a900473ffffffffffffffffffffffffffffffffffffffff1673ffffffffffffffffffffffffffffffffffffffff163373ffffffffffffffffffffffffffffffffffffffff16146106cf576040517f08c379a00000000000000000000000000000000000000000000000000000000081526004016106c690611414565b60405180910390fd5b81600160003373ffffffffffffffffffffffffffffffffffffffff1673ffffffffffffffffffffffffffffffffffffffff1681526020019081526020016000209080519060200190610722929190610d1a565b5060019050919050565b6060600160003373ffffffffffffffffffffffffffffffffffffffff1673ffffffffffffffffffffffffffffffffffffffff16815260200190815260200160002080546107789061157b565b80601f01602080910402602001604051908101604052809291908181526020018280546107a49061157b565b80156107f15780601f106107c6576101008083540402835291602001916107f1565b820191906000526020600020905b8154815290600101906020018083116107d457829003601f168201915b5050505050905090565b6003818051602081018201805184825260208301602085012081835280955050505050506000915054906101000a900460ff1681565b600060028460405161084391906112c2565b9081526020016040518091039020600001805461085f9061157b565b9050146108a1576040517f08c379a0000000000000000000000000000000000000000000000000000000008152600401610898906113b4565b60405180910390fd5b6003826040516108b191906112c2565b908152602001604051809103902060009054906101000a900460ff161561090d576040517f08c379a000000000000000000000000000000000000000000000000000000000815260040161090490611394565b60405180910390fd5b60405180606001604052808481526020018381526020018281525060028460405161093891906112c2565b90815260200160405180910390206000820151816000019080519060200190610962929190610d1a565b50602082015181600101908051906020019061097f929190610d1a565b50604082015181600201908051906020019061099c929190610d1a565b509050506004839080600181540180825580915050600190039060005260206000200160009091909190915090805190602001906109db929190610d1a565b5060016003836040516109ee91906112c2565b908152602001604051809103902060006101000a81548160ff0219169083151502179055507fe89f9d1db4a80497359a0e8138342d3dc7a087c12a922ffbfa1b1f4516f080b8838383604051610a4693929190611348565b60405180910390a1505050565b60008054906101000a900473ffffffffffffffffffffffffffffffffffffffff1681565b60016020528060005260406000206000915090508054610a969061157b565b80601f0160208091040260200160405190810160405280929190818152602001828054610ac29061157b565b8015610b0f5780601f10610ae457610100808354040283529160200191610b0f565b820191906000526020600020905b815481529060010190602001808311610af257829003601f168201915b505050505081565b6000600284604051610b2991906112c2565b908152602001604051809103902090506000816000018054610b4a9061157b565b90501415610b8d576040517f08c379a0000000000000000000000000000000000000000000000000000000008152600401610b84906113d4565b60405180910390fd5b818051906020012081600101604051610ba691906112ab565b604051809103902014610bee576040517f08c379a0000000000000000000000000000000000000000000000000000000008152600401610be5906113f4565b60405180910390fd5b6000816002018054610bff9061157b565b80601f0160208091040260200160405190810160405280929190818152602001828054610c2b9061157b565b8015610c785780601f10610c4d57610100808354040283529160200191610c78565b820191906000526020600020905b815481529060010190602001808311610c5b57829003601f168201915b5050505050905083826002019080519060200190610c97929190610d1a565b507f827688bd0ea6902ec08e3a700169a47d5b58e633a7252d2d78a738e71deba3be858286604051610ccb93929190611348565b60405180910390a15050505050565b508054610ce69061157b565b6000825580601f10610cf85750610d17565b601f016020900490600052602060002090810190610d169190610da0565b5b50565b828054610d269061157b565b90600052602060002090601f016020900481019282610d485760008555610d8f565b82601f10610d6157805160ff1916838001178555610d8f565b82800160010185558215610d8f579182015b82811115610d8e578251825591602001919060010190610d73565b5b509050610d9c9190610da0565b5090565b5b80821115610db9576000816000905550600101610da1565b5090565b6000610dd0610dcb84611465565b611434565b905082815260208101848484011115610de857600080fd5b610df3848285611539565b509392505050565b600081359050610e0a8161161c565b92915050565b600082601f830112610e2157600080fd5b8135610e31848260208601610dbd565b91505092915050565b600081359050610e4981611633565b92915050565b600060208284031215610e6157600080fd5b6000610e6f84828501610dfb565b91505092915050565b600060208284031215610e8a57600080fd5b600082013567ffffffffffffffff811115610ea457600080fd5b610eb084828501610e10565b91505092915050565b60008060408385031215610ecc57600080fd5b600083013567ffffffffffffffff811115610ee657600080fd5b610ef285828601610e10565b925050602083013567ffffffffffffffff811115610f0f57600080fd5b610f1b85828601610e10565b9150509250929050565b600080600060608486031215610f3a57600080fd5b600084013567ffffffffffffffff811115610f5457600080fd5b610f6086828701610e10565b935050602084013567ffffffffffffffff811115610f7d57600080fd5b610f8986828701610e10565b925050604084013567ffffffffffffffff811115610fa657600080fd5b610fb286828701610e10565b9150509250925092565b600060208284031215610fce57600080fd5b6000610fdc84828501610e3a565b91505092915050565b610fee816114f1565b82525050565b610ffd81611503565b82525050565b600081546110108161157b565b61101a81866114ca565b94506001821660008114611035576001811461104657611079565b60ff19831686528186019350611079565b61104f85611495565b60005b8381101561107157815481890152600182019150602081019050611052565b838801955050505b50505092915050565b600061108d826114bf565b61109781856114d5565b93506110a7818560208601611548565b6110b08161160b565b840191505092915050565b60006110c6826114bf565b6110d081856114e6565b93506110e0818560208601611548565b80840191505092915050565b600081546110f98161157b565b61110381866114e6565b9450600182166000811461111e576001811461112f57611162565b60ff19831686528186019350611162565b611138856114aa565b60005b8381101561115a5781548189015260018201915060208101905061113b565b838801955050505b50505092915050565b60006111786018836114d5565b91507f46696e6765727072696e7420616c7265616479207573656400000000000000006000830152602082019050919050565b60006111b86017836114d5565b91507f557365726e616d6520616c7265616479206578697374730000000000000000006000830152602082019050919050565b60006111f86013836114d5565b91507f5573657220646f6573206e6f74206578697374000000000000000000000000006000830152602082019050919050565b60006112386013836114d5565b91507f496e76616c69642066696e6765727072696e74000000000000000000000000006000830152602082019050919050565b6000611278600e836114d5565b91507f4e6f7420617574686f72697a65640000000000000000000000000000000000006000830152602082019050919050565b60006112b78284611003565b915081905092915050565b60006112ce82846110bb565b915081905092915050565b60006112e582846110ec565b915081905092915050565b60006020820190506113056000830184610fe5565b92915050565b60006020820190506113206000830184610ff4565b92915050565b600060208201905081810360008301526113408184611082565b905092915050565b600060608201905081810360008301526113628186611082565b905081810360208301526113768185611082565b9050818103604083015261138a8184611082565b9050949350505050565b600060208201905081810360008301526113ad8161116b565b9050919050565b600060208201905081810360008301526113cd816111ab565b9050919050565b600060208201905081810360008301526113ed816111eb565b9050919050565b6000602082019050818103600083015261140d8161122b565b9050919050565b6000602082019050818103600083015261142d8161126b565b9050919050565b6000604051905081810181811067ffffffffffffffff8211171561145b5761145a6115dc565b5b8060405250919050565b600067ffffffffffffffff8211156114805761147f6115dc565b5b601f19601f8301169050602081019050919050565b60008190508160005260206000209050919050565b60008190508160005260206000209050919050565b600081519050919050565b600081905092915050565b600082825260208201905092915050565b600081905092915050565b60006114fc8261150f565b9050919050565b60008115159050919050565b600073ffffffffffffffffffffffffffffffffffffffff82169050919050565b6000819050919050565b82818337600083830152505050565b60005b8381101561156657808201518184015260208101905061154b565b83811115611575576000848401525b50505050565b6000600282049050600182168061159357607f821691505b602082108114156115a7576115a66115ad565b5b50919050565b7f4e487b7100000000000000000000000000000000000000000000000000000000600052602260045260246000fd5b7f4e487b7100000000000000000000000000000000000000000000000000000000600052604160045260246000fd5b6000601f19601f8301169050919050565b611625816114f1565b811461163057600080fd5b50565b61163c8161152f565b811461164757600080fd5b5056fea26469706673582212200915f9068e20224096f78934cb80001a6206d92f15dfa254ac92f8e972738ae464736f6c63430008000033",
  "linkReferences": {},
  "deployedLinkReferences": {}
}