{
  "_format": "hh-sol-artifact-1",
  "contractName": "IdentityAndAccessManagement",
  "sourceName": "contracts/IdentityAndAccessManagement.sol",
  "abi": [
    {
      "inputs": [],
      "stateMutability": "nonpayable",
      "type": "constructor"
    },
    {
      "anonymous": false,
      "inputs": [
        {
          "indexed": false,
          "internalType": "string",
          "name": "attributeID",
          "type": "string"
        },
        {
          "indexed": false,
          "internalType": "string",
          "name": "platform",
          "type": "string"
        },
        {
          "indexed": false,
          "internalType": "string",
          "name": "permission",
          "type": "string"
        }
      ],
      "name": "AccessPolicyAdded",
      "type": "event"
    },
    {
      "anonymous": false,
      "inputs": [
        {
          "indexed": false,
          "internalType": "string",
          "name": "fingerprint",
          "type": "string"
        },
        {
          "indexed": false,
          "internalType": "string",
          "name": "attributeKey",
          "type": "string"
        },
        {
          "indexed": false,
          "internalType": "string",
          "name": "attributeValue",
          "type": "string"
        },
        {
          "indexed": false,
          "internalType": "uint256",
          "name": "timestamp",
          "type": "uint256"
        }
      ],
      "name": "AttributeAdded",
      "type": "event"
    },
    {
      "anonymous": false,
      "inputs": [
        {
          "indexed": false,
          "internalType": "string",
          "name": "username",
          "type": "string"
        },
        {
          "indexed": false,
          "internalType": "string",
          "name": "fingerprint",
          "type": "string"
        },
        {
          "indexed": false,
          "internalType": "string",
          "name": "publicKey",
          "type": "string"
        }
      ],
      "name": "UserIdentityAdded",
      "type": "event"
    },
    {
      "anonymous": false,
      "inputs": [
        {
          "indexed": false,
          "internalType": "string",
          "name": "username",
          "type": "string"
        },
        {
          "indexed": false,
          "internalType": "string",
          "name": "oldPublicKey",
          "type": "string"
        },
        {
          "indexed": false,
          "internalType": "string",
          "name": "newPublicKey",
          "type": "string"
        }
      ],
      "name": "UserIdentityRecovered",
      "type": "event"
    },
    {
      "anonymous": false,
      "inputs": [
        {
          "indexed": false,
          "internalType": "string",
          "name": "username",
          "type": "string"
        }
      ],
      "name": "UserIdentityRevoked",
      "type": "event"
    },
    {
      "inputs": [
        {
          "internalType": "string",
          "name": "",
          "type": "string"
        }
      ],
      "name": "accessPolicies",
      "outputs": [
        {
          "internalType": "string",
          "name": "attributeID",
          "type": "string"
        },
        {
          "internalType": "string",
          "name": "platform",
          "type": "string"
        },
        {
          "internalType": "string",
          "name": "permission",
          "type": "string"
        }
      ],
      "stateMutability": "view",
      "type": "function"
    },
    {
      "inputs": [
        {
          "internalType": "string",
          "name": "_attributeID",
          "type": "string"
        },
        {
          "internalType": "string",
          "name": "_platform",
          "type": "string"
        },
        {
          "internalType": "string",
          "name": "_permission",
          "type": "string"
        }
      ],
      "name": "addAccessPolicy",
      "outputs": [],
      "stateMutability": "nonpayable",
      "type": "function"
    },
    {
      "inputs": [
        {
          "internalType": "string",
          "name": "_fingerprint",
          "type": "string"
        },
        {
          "internalType": "string",
          "name": "_attributeKey",
          "type": "string"
        },
        {
          "internalType": "string",
          "name": "_attributeValue",
          "type": "string"
        },
        {
          "internalType": "uint256",
          "name": "_timestamp",
          "type": "uint256"
        }
      ],
      "name": "addAttribute",
      "outputs": [],
      "stateMutability": "nonpayable",
      "type": "function"
    },
    {
      "inputs": [
        {
          "internalType": "string",
          "name": "_username",
          "type": "string"
        },
        {
          "internalType": "string",
          "name": "_fingerprint",
          "type": "string"
        },
        {
          "internalType": "string",
          "name": "_publicKey",
          "type": "string"
        }
      ],
      "name": "addUserIdentity",
      "outputs": [],
      "stateMutability": "nonpayable",
      "type": "function"
    },
    {
      "inputs": [
        {
          "internalType": "string",
          "name": "_attributeID",
          "type": "string"
        },
        {
          "internalType": "string",
          "name": "_platform",
          "type": "string"
        }
      ],
      "name": "getAccessPolicy",
      "outputs": [
        {
          "internalType": "string",
          "name": "",
          "type": "string"
        }
      ],
      "stateMutability": "view",
      "type": "function"
    },
    {
      "inputs": [
        {
          "internalType": "string",
          "name": "_fingerprint",
          "type": "string"
        },
        {
          "internalType": "string",
          "name": "_attributeKey",
          "type": "string"
        }
      ],
      "name": "getAttribute",
      "outputs": [
        {
          "internalType": "string",
          "name": "",
          "type": "string"
        },
        {
          "internalType": "string",
          "name": "",
          "type": "string"
        },
        {
          "internalType": "uint256",
          "name": "",
          "type": "uint256"
        }
      ],
      "stateMutability": "view",
      "type": "function"
    },
    {
      "inputs": [
        {
          "internalType": "string",
          "name": "_fingerprint",
          "type": "string"
        }
      ],
      "name": "getUserAttributes",
      "outputs": [
        {
          "components": [
            {
              "internalType": "string",
              "name": "key",
              "type": "string"
            },
            {
              "internalType": "string",
              "name": "value",
              "type": "string"
            },
            {
              "internalType": "uint256",
              "name": "timestamp",
              "type": "uint256"
            }
          ],
          "internalType": "struct IdentityAndAccessManagement.Attribute[]",
          "name": "",
          "type": "tuple[]"
        }
      ],
      "stateMutability": "view",
      "type": "function"
    },
    {
      "inputs": [
        {
          "internalType": "string",
          "name": "_fingerprint",
          "type": "string"
        }
      ],
      "name": "getUserAttributesCount",
      "outputs": [
        {
          "internalType": "uint256",
          "name": "",
          "type": "uint256"
        }
      ],
      "stateMutability": "view",
      "type": "function"
    },
    {
      "inputs": [],
      "name": "owner",
      "outputs": [
        {
          "internalType": "address",
          "name": "",
          "type": "address"
        }
      ],
      "stateMutability": "view",
      "type": "function"
    },
    {
      "inputs": [
        {
          "internalType": "address",
          "name": "",
          "type": "address"
        }
      ],
      "name": "publicKeys",
      "outputs": [
        {
          "internalType": "string",
          "name": "",
          "type": "string"
        }
      ],
      "stateMutability": "view",
      "type": "function"
    },
    {
      "inputs": [
        {
          "internalType": "string",
          "name": "_username",
          "type": "string"
        },
        {
          "internalType": "string",
          "name": "_newPublicKey",
          "type": "string"
        },
        {
          "internalType": "string",
          "name": "_fingerprint",
          "type": "string"
        }
      ],
      "name": "recoverUserIdentity",
      "outputs": [],
      "stateMutability": "nonpayable",
      "type": "function"
    },
    {
      "inputs": [],
      "name": "retrievePublicKey",
      "outputs": [
        {
          "internalType": "string",
          "name": "",
          "type": "string"
        }
      ],
      "stateMutability": "view",
      "type": "function"
    },
    {
      "inputs": [
        {
          "internalType": "string",
          "name": "_username",
          "type": "string"
        },
        {
          "internalType": "string",
          "name": "_fingerprint",
          "type": "string"
        }
      ],
      "name": "revokeUserIdentity",
      "outputs": [],
      "stateMutability": "nonpayable",
      "type": "function"
    },
    {
      "inputs": [
        {
          "internalType": "string",
          "name": "_publicKey",
          "type": "string"
        }
      ],
      "name": "setPublicKey",
      "outputs": [
        {
          "internalType": "bool",
          "name": "",
          "type": "bool"
        }
      ],
      "stateMutability": "nonpayable",
      "type": "function"
    },
    {
      "inputs": [
        {
          "internalType": "string",
          "name": "",
          "type": "string"
        }
      ],
      "name": "usedFingerprints",
      "outputs": [
        {
          "internalType": "bool",
          "name": "",
          "type": "bool"
        }
      ],
      "stateMutability": "view",
      "type": "function"
    },
    {
      "inputs": [
        {
          "internalType": "string",
          "name": "",
          "type": "string"
        },
        {
          "internalType": "string",
          "name": "",
          "type": "string"
        }
      ],
      "name": "userAttributes",
      "outputs": [
        {
          "internalType": "string",
          "name": "key",
          "type": "string"
        },
        {
          "internalType": "string",
          "name": "value",
          "type": "string"
        },
        {
          "internalType": "uint256",
          "name": "timestamp",
          "type": "uint256"
        }
      ],
      "stateMutability": "view",
      "type": "function"
    },
    {
      "inputs": [
        {
          "internalType": "string",
          "name": "",
          "type": "string"
        }
      ],
      "name": "userIdentities",
      "outputs": [
        {
          "internalType": "string",
          "name": "username",
          "type": "string"
        },
        {
          "internalType": "string",
          "name": "fingerprint",
          "type": "string"
        },
        {
          "internalType": "string",
          "name": "publicKey",
          "type": "string"
        }
      ],
      "stateMutability": "view",
      "type": "function"
    },
    {
      "inputs": [
        {
          "internalType": "uint256",
          "name": "",
          "type": "uint256"
        }
      ],
      "name": "userIdentityKeys",
      "outputs": [
        {
          "internalType": "string",
          "name": "",
          "type": "string"
        }
      ],
      "stateMutability": "view",
      "type": "function"
    }
  ],
  "bytecode": "0x608060405234801561001057600080fd5b50336000806101000a81548173ffffffffffffffffffffffffffffffffffffffff021916908373ffffffffffffffffffffffffffffffffffffffff160217905550612c3a806100606000396000f3fe608060405234801561001057600080fd5b50600436106101165760003560e01c80637e0eb265116100a2578063b2f0383d11610071578063b2f0383d14610343578063bf2d0daf1461035f578063cd7a499614610391578063efd0ce07146103ad578063f12ae456146103c957610116565b80637e0eb265146102a95780638a6d7388146102d95780638da5cb5b146102f5578063a3d6f9a91461031357610116565b806363d8331a116100e957806363d8331a146101c95780636f6fc077146101fb57806370978a301461022b578063757a408f1461025b578063774e11dc1461027957610116565b80630a3756cb1461011b5780630cd9adf01461013757806311c4c4bc146101675780633ef69c8b14610199575b600080fd5b61013560048036038101906101309190611f18565b6103fb565b005b610151600480360381019061014c91906120c6565b610590565b60405161015e9190612609565b60405180910390f35b610181600480360381019061017c9190611ed7565b61063c565b6040516101909392919061262b565b60405180910390f35b6101b360048036038101906101ae9190611f18565b610814565b6040516101c09190612609565b60405180910390f35b6101e360048036038101906101de9190611ed7565b610a5b565b6040516101f29392919061262b565b60405180910390f35b61021560048036038101906102109190611ed7565b610c33565b60405161022291906125ee565b60405180910390f35b61024560048036038101906102409190611ed7565b610d21565b60405161025291906125cc565b60405180910390f35b610263610fac565b6040516102709190612609565b60405180910390f35b610293600480360381019061028e9190611ed7565b61107b565b6040516102a091906127f6565b60405180910390f35b6102c360048036038101906102be9190611ed7565b6110f8565b6040516102d091906125ee565b60405180910390f35b6102f360048036038101906102ee9190611f84565b61112e565b005b6102fd611350565b60405161030a91906125b1565b60405180910390f35b61032d60048036038101906103289190611eae565b611374565b60405161033a9190612609565b60405180910390f35b61035d60048036038101906103589190611f84565b611414565b005b61037960048036038101906103749190611f18565b611575565b604051610388939291906126d1565b60405180910390f35b6103ab60048036038101906103a6919061201b565b611756565b005b6103c760048036038101906103c29190611f84565b611835565b005b6103e360048036038101906103de9190611f18565b6119f8565b6040516103f2939291906126d1565b60405180910390f35b600060028360405161040d9190612583565b90815260200160405180910390209050600081600001805461042e90612a5d565b90501415610471576040517f08c379a000000000000000000000000000000000000000000000000000000000815260040161046890612796565b60405180910390fd5b81805190602001208160010160405161048a919061256c565b6040518091039020146104d2576040517f08c379a00000000000000000000000000000000000000000000000000000000081526004016104c9906127b6565b60405180910390fd5b6003816001016040516104e5919061259a565b908152602001604051809103902060006101000a81549060ff02191690556002836040516105139190612583565b9081526020016040518091039020600080820160006105329190611d18565b6001820160006105429190611d18565b6002820160006105529190611d18565b50507fcac1ad720d45ac4c27b66d58f8da61d658da25d9ca0194ff38bd98838f9502d0836040516105839190612609565b60405180910390a1505050565b600481815481106105a057600080fd5b9060005260206000200160009150905080546105bb90612a5d565b80601f01602080910402602001604051908101604052809291908181526020018280546105e790612a5d565b80156106345780601f1061060957610100808354040283529160200191610634565b820191906000526020600020905b81548152906001019060200180831161061757829003601f168201915b505050505081565b60068180516020810182018051848252602083016020850120818352809550505050505060009150905080600001805461067590612a5d565b80601f01602080910402602001604051908101604052809291908181526020018280546106a190612a5d565b80156106ee5780601f106106c3576101008083540402835291602001916106ee565b820191906000526020600020905b8154815290600101906020018083116106d157829003601f168201915b50505050509080600101805461070390612a5d565b80601f016020809104026020016040519081016040528092919081815260200182805461072f90612a5d565b801561077c5780601f106107515761010080835404028352916020019161077c565b820191906000526020600020905b81548152906001019060200180831161075f57829003601f168201915b50505050509080600201805461079190612a5d565b80601f01602080910402602001604051908101604052809291908181526020018280546107bd90612a5d565b801561080a5780601f106107df5761010080835404028352916020019161080a565b820191906000526020600020905b8154815290600101906020018083116107ed57829003601f168201915b5050505050905083565b606060006006846040516108289190612583565b908152602001604051809103902060405180606001604052908160008201805461085190612a5d565b80601f016020809104026020016040519081016040528092919081815260200182805461087d90612a5d565b80156108ca5780601f1061089f576101008083540402835291602001916108ca565b820191906000526020600020905b8154815290600101906020018083116108ad57829003601f168201915b505050505081526020016001820180546108e390612a5d565b80601f016020809104026020016040519081016040528092919081815260200182805461090f90612a5d565b801561095c5780601f106109315761010080835404028352916020019161095c565b820191906000526020600020905b81548152906001019060200180831161093f57829003601f168201915b5050505050815260200160028201805461097590612a5d565b80601f01602080910402602001604051908101604052809291908181526020018280546109a190612a5d565b80156109ee5780601f106109c3576101008083540402835291602001916109ee565b820191906000526020600020905b8154815290600101906020018083116109d157829003601f168201915b5050505050815250509050828051906020012081602001518051906020012014610a4d576040517f08c379a0000000000000000000000000000000000000000000000000000000008152600401610a4490612716565b60405180910390fd5b806040015191505092915050565b600281805160208101820180518482526020830160208501208183528095505050505050600091509050806000018054610a9490612a5d565b80601f0160208091040260200160405190810160405280929190818152602001828054610ac090612a5d565b8015610b0d5780601f10610ae257610100808354040283529160200191610b0d565b820191906000526020600020905b815481529060010190602001808311610af057829003601f168201915b505050505090806001018054610b2290612a5d565b80601f0160208091040260200160405190810160405280929190818152602001828054610b4e90612a5d565b8015610b9b5780601f10610b7057610100808354040283529160200191610b9b565b820191906000526020600020905b815481529060010190602001808311610b7e57829003601f168201915b505050505090806002018054610bb090612a5d565b80601f0160208091040260200160405190810160405280929190818152602001828054610bdc90612a5d565b8015610c295780601f10610bfe57610100808354040283529160200191610c29565b820191906000526020600020905b815481529060010190602001808311610c0c57829003601f168201915b5050505050905083565b60008060009054906101000a900473ffffffffffffffffffffffffffffffffffffffff1673ffffffffffffffffffffffffffffffffffffffff163373ffffffffffffffffffffffffffffffffffffffff1614610cc4576040517f08c379a0000000000000000000000000000000000000000000000000000000008152600401610cbb906127d6565b60405180910390fd5b81600160003373ffffffffffffffffffffffffffffffffffffffff1673ffffffffffffffffffffffffffffffffffffffff1681526020019081526020016000209080519060200190610d17929190611d58565b5060019050919050565b60606000610d2e8361107b565b905060008167ffffffffffffffff811115610d72577f4e487b7100000000000000000000000000000000000000000000000000000000600052604160045260246000fd5b604051908082528060200260200182016040528015610dab57816020015b610d98611dde565b815260200190600190039081610d905790505b5090506000805b83811015610fa0576000610dc582611b6b565b9050600587604051610dd79190612583565b908152602001604051809103902081604051610df39190612583565b9081526020016040518091039020604051806060016040529081600082018054610e1c90612a5d565b80601f0160208091040260200160405190810160405280929190818152602001828054610e4890612a5d565b8015610e955780601f10610e6a57610100808354040283529160200191610e95565b820191906000526020600020905b815481529060010190602001808311610e7857829003601f168201915b50505050508152602001600182018054610eae90612a5d565b80601f0160208091040260200160405190810160405280929190818152602001828054610eda90612a5d565b8015610f275780601f10610efc57610100808354040283529160200191610f27565b820191906000526020600020905b815481529060010190602001808311610f0a57829003601f168201915b50505050508152602001600282015481525050848481518110610f73577f4e487b7100000000000000000000000000000000000000000000000000000000600052603260045260246000fd5b60200260200101819052508280610f8990612a8f565b935050508080610f9890612a8f565b915050610db2565b50819350505050919050565b6060600160003373ffffffffffffffffffffffffffffffffffffffff1673ffffffffffffffffffffffffffffffffffffffff1681526020019081526020016000208054610ff890612a5d565b80601f016020809104026020016040519081016040528092919081815260200182805461102490612a5d565b80156110715780601f1061104657610100808354040283529160200191611071565b820191906000526020600020905b81548152906001019060200180831161105457829003601f168201915b5050505050905090565b600080600090505b60006005846040516110959190612583565b90815260200160405180910390206110ac83611b6b565b6040516110b99190612583565b908152602001604051809103902060000180546110d590612a5d565b9050146110ef5780806110e790612a8f565b915050611083565b80915050919050565b6003818051602081018201805184825260208301602085012081835280955050505050506000915054906101000a900460ff1681565b60006002846040516111409190612583565b9081526020016040518091039020600001805461115c90612a5d565b90501461119e576040517f08c379a000000000000000000000000000000000000000000000000000000000815260040161119590612776565b60405180910390fd5b6003826040516111ae9190612583565b908152602001604051809103902060009054906101000a900460ff161561120a576040517f08c379a000000000000000000000000000000000000000000000000000000000815260040161120190612756565b60405180910390fd5b6040518060600160405280848152602001838152602001828152506002846040516112359190612583565b9081526020016040518091039020600082015181600001908051906020019061125f929190611d58565b50602082015181600101908051906020019061127c929190611d58565b506040820151816002019080519060200190611299929190611d58565b509050506004839080600181540180825580915050600190039060005260206000200160009091909190915090805190602001906112d8929190611d58565b5060016003836040516112eb9190612583565b908152602001604051809103902060006101000a81548160ff0219169083151502179055507fe89f9d1db4a80497359a0e8138342d3dc7a087c12a922ffbfa1b1f4516f080b88383836040516113439392919061262b565b60405180910390a1505050565b60008054906101000a900473ffffffffffffffffffffffffffffffffffffffff1681565b6001602052806000526040600020600091509050805461139390612a5d565b80601f01602080910402602001604051908101604052809291908181526020018280546113bf90612a5d565b801561140c5780601f106113e15761010080835404028352916020019161140c565b820191906000526020600020905b8154815290600101906020018083116113ef57829003601f168201915b505050505081565b60008054906101000a900473ffffffffffffffffffffffffffffffffffffffff1673ffffffffffffffffffffffffffffffffffffffff163373ffffffffffffffffffffffffffffffffffffffff16146114a2576040517f08c379a0000000000000000000000000000000000000000000000000000000008152600401611499906127d6565b60405180910390fd5b6040518060600160405280848152602001838152602001828152506006846040516114cd9190612583565b908152602001604051809103902060008201518160000190805190602001906114f7929190611d58565b506020820151816001019080519060200190611514929190611d58565b506040820151816002019080519060200190611531929190611d58565b509050507f09bacb16a856389bf4d5e2dd536a58997f73bf52fc710c76d32f543e86ce7b868383836040516115689392919061262b565b60405180910390a1505050565b60608060008060058660405161158b9190612583565b9081526020016040518091039020856040516115a79190612583565b90815260200160405180910390206040518060600160405290816000820180546115d090612a5d565b80601f01602080910402602001604051908101604052809291908181526020018280546115fc90612a5d565b80156116495780601f1061161e57610100808354040283529160200191611649565b820191906000526020600020905b81548152906001019060200180831161162c57829003601f168201915b5050505050815260200160018201805461166290612a5d565b80601f016020809104026020016040519081016040528092919081815260200182805461168e90612a5d565b80156116db5780601f106116b0576101008083540402835291602001916116db565b820191906000526020600020905b8154815290600101906020018083116116be57829003601f168201915b50505050508152602001600282015481525050905060008160000151511415611739576040517f08c379a000000000000000000000000000000000000000000000000000000000815260040161173090612736565b60405180910390fd5b806000015181602001518260400151935093509350509250925092565b6040518060600160405280848152602001838152602001828152506005856040516117819190612583565b90815260200160405180910390208460405161179d9190612583565b908152602001604051809103902060008201518160000190805190602001906117c7929190611d58565b5060208201518160010190805190602001906117e4929190611d58565b50604082015181600201559050507f47a10ed39c81f9f7fbc51698556008663c5a73ec3e7d3fab18c6a4b1af09c7d0848484846040516118279493929190612677565b60405180910390a150505050565b60006002846040516118479190612583565b90815260200160405180910390209050600081600001805461186890612a5d565b905014156118ab576040517f08c379a00000000000000000000000000000000000000000000000000000000081526004016118a290612796565b60405180910390fd5b8180519060200120816001016040516118c4919061256c565b60405180910390201461190c576040517f08c379a0000000000000000000000000000000000000000000000000000000008152600401611903906127b6565b60405180910390fd5b600081600201805461191d90612a5d565b80601f016020809104026020016040519081016040528092919081815260200182805461194990612a5d565b80156119965780601f1061196b57610100808354040283529160200191611996565b820191906000526020600020905b81548152906001019060200180831161197957829003601f168201915b50505050509050838260020190805190602001906119b5929190611d58565b507f827688bd0ea6902ec08e3a700169a47d5b58e633a7252d2d78a738e71deba3be8582866040516119e99392919061262b565b60405180910390a15050505050565b6005828051602081018201805184825260208301602085012081835280955050505050508180516020810182018051848252602083016020850120818352809550505050505060009150915050806000018054611a5490612a5d565b80601f0160208091040260200160405190810160405280929190818152602001828054611a8090612a5d565b8015611acd5780601f10611aa257610100808354040283529160200191611acd565b820191906000526020600020905b815481529060010190602001808311611ab057829003601f168201915b505050505090806001018054611ae290612a5d565b80601f0160208091040260200160405190810160405280929190818152602001828054611b0e90612a5d565b8015611b5b5780601f10611b3057610100808354040283529160200191611b5b565b820191906000526020600020905b815481529060010190602001808311611b3e57829003601f168201915b5050505050908060020154905083565b60606000821415611bb3576040518060400160405280600181526020017f30000000000000000000000000000000000000000000000000000000000000008152509050611d13565b600082905060005b60008214611be5578080611bce90612a8f565b915050600a82611bde919061296e565b9150611bbb565b60008167ffffffffffffffff811115611c27577f4e487b7100000000000000000000000000000000000000000000000000000000600052604160045260246000fd5b6040519080825280601f01601f191660200182016040528015611c595781602001600182028036833780820191505090505b5090505b60008514611d0c57600182611c72919061299f565b9150600a85611c819190612ad8565b6030611c8d9190612918565b60f81b818381518110611cc9577f4e487b7100000000000000000000000000000000000000000000000000000000600052603260045260246000fd5b60200101907effffffffffffffffffffffffffffffffffffffffffffffffffffffffffffff1916908160001a905350600a85611d05919061296e565b9450611c5d565b8093505050505b919050565b508054611d2490612a5d565b6000825580601f10611d365750611d55565b601f016020900490600052602060002090810190611d549190611dff565b5b50565b828054611d6490612a5d565b90600052602060002090601f016020900481019282611d865760008555611dcd565b82601f10611d9f57805160ff1916838001178555611dcd565b82800160010185558215611dcd579182015b82811115611dcc578251825591602001919060010190611db1565b5b509050611dda9190611dff565b5090565b60405180606001604052806060815260200160608152602001600081525090565b5b80821115611e18576000816000905550600101611e00565b5090565b6000611e2f611e2a84612842565b612811565b905082815260208101848484011115611e4757600080fd5b611e52848285612a1b565b509392505050565b600081359050611e6981612bd6565b92915050565b600082601f830112611e8057600080fd5b8135611e90848260208601611e1c565b91505092915050565b600081359050611ea881612bed565b92915050565b600060208284031215611ec057600080fd5b6000611ece84828501611e5a565b91505092915050565b600060208284031215611ee957600080fd5b600082013567ffffffffffffffff811115611f0357600080fd5b611f0f84828501611e6f565b91505092915050565b60008060408385031215611f2b57600080fd5b600083013567ffffffffffffffff811115611f4557600080fd5b611f5185828601611e6f565b925050602083013567ffffffffffffffff811115611f6e57600080fd5b611f7a85828601611e6f565b9150509250929050565b600080600060608486031215611f9957600080fd5b600084013567ffffffffffffffff811115611fb357600080fd5b611fbf86828701611e6f565b935050602084013567ffffffffffffffff811115611fdc57600080fd5b611fe886828701611e6f565b925050604084013567ffffffffffffffff81111561200557600080fd5b61201186828701611e6f565b9150509250925092565b6000806000806080858703121561203157600080fd5b600085013567ffffffffffffffff81111561204b57600080fd5b61205787828801611e6f565b945050602085013567ffffffffffffffff81111561207457600080fd5b61208087828801611e6f565b935050604085013567ffffffffffffffff81111561209d57600080fd5b6120a987828801611e6f565b92505060606120ba87828801611e99565b91505092959194509250565b6000602082840312156120d857600080fd5b60006120e684828501611e99565b91505092915050565b60006120fb83836124f7565b905092915050565b61210c816129d3565b82525050565b600061211d826128ac565b61212781856128cf565b93508360208202850161213985612872565b8060005b85811015612175578484038952815161215685826120ef565b9450612161836128c2565b925060208a0199505060018101905061213d565b50829750879550505050505092915050565b612190816129e5565b82525050565b600081546121a381612a5d565b6121ad81866128e0565b945060018216600081146121c857600181146121d95761220c565b60ff1983168652818601935061220c565b6121e285612882565b60005b83811015612204578154818901526001820191506020810190506121e5565b838801955050505b50505092915050565b6000612220826128b7565b61222a81856128eb565b935061223a818560208601612a2a565b61224381612bc5565b840191505092915050565b6000612259826128b7565b61226381856128fc565b9350612273818560208601612a2a565b61227c81612bc5565b840191505092915050565b6000612292826128b7565b61229c818561290d565b93506122ac818560208601612a2a565b80840191505092915050565b600081546122c581612a5d565b6122cf818661290d565b945060018216600081146122ea57600181146122fb5761232e565b60ff1983168652818601935061232e565b61230485612897565b60005b8381101561232657815481890152600182019150602081019050612307565b838801955050505b50505092915050565b60006123446018836128fc565b91507f4e6f206d61746368696e6720706f6c69637920666f756e6400000000000000006000830152602082019050919050565b60006123846018836128fc565b91507f41747472696275746520646f6573206e6f7420657869737400000000000000006000830152602082019050919050565b60006123c46018836128fc565b91507f46696e6765727072696e7420616c7265616479207573656400000000000000006000830152602082019050919050565b60006124046017836128fc565b91507f557365726e616d6520616c7265616479206578697374730000000000000000006000830152602082019050919050565b60006124446013836128fc565b91507f5573657220646f6573206e6f74206578697374000000000000000000000000006000830152602082019050919050565b60006124846013836128fc565b91507f496e76616c69642066696e6765727072696e74000000000000000000000000006000830152602082019050919050565b60006124c4600e836128fc565b91507f4e6f7420617574686f72697a65640000000000000000000000000000000000006000830152602082019050919050565b600060608301600083015184820360008601526125148282612215565b9150506020830151848203602086015261252e8282612215565b9150506040830151612543604086018261254e565b508091505092915050565b61255781612a11565b82525050565b61256681612a11565b82525050565b60006125788284612196565b915081905092915050565b600061258f8284612287565b915081905092915050565b60006125a682846122b8565b915081905092915050565b60006020820190506125c66000830184612103565b92915050565b600060208201905081810360008301526125e68184612112565b905092915050565b60006020820190506126036000830184612187565b92915050565b60006020820190508181036000830152612623818461224e565b905092915050565b60006060820190508181036000830152612645818661224e565b90508181036020830152612659818561224e565b9050818103604083015261266d818461224e565b9050949350505050565b60006080820190508181036000830152612691818761224e565b905081810360208301526126a5818661224e565b905081810360408301526126b9818561224e565b90506126c8606083018461255d565b95945050505050565b600060608201905081810360008301526126eb818661224e565b905081810360208301526126ff818561224e565b905061270e604083018461255d565b949350505050565b6000602082019050818103600083015261272f81612337565b9050919050565b6000602082019050818103600083015261274f81612377565b9050919050565b6000602082019050818103600083015261276f816123b7565b9050919050565b6000602082019050818103600083015261278f816123f7565b9050919050565b600060208201905081810360008301526127af81612437565b9050919050565b600060208201905081810360008301526127cf81612477565b9050919050565b600060208201905081810360008301526127ef816124b7565b9050919050565b600060208201905061280b600083018461255d565b92915050565b6000604051905081810181811067ffffffffffffffff8211171561283857612837612b96565b5b8060405250919050565b600067ffffffffffffffff82111561285d5761285c612b96565b5b601f19601f8301169050602081019050919050565b6000819050602082019050919050565b60008190508160005260206000209050919050565b60008190508160005260206000209050919050565b600081519050919050565b600081519050919050565b6000602082019050919050565b600082825260208201905092915050565b600081905092915050565b600082825260208201905092915050565b600082825260208201905092915050565b600081905092915050565b600061292382612a11565b915061292e83612a11565b9250827fffffffffffffffffffffffffffffffffffffffffffffffffffffffffffffffff0382111561296357612962612b09565b5b828201905092915050565b600061297982612a11565b915061298483612a11565b92508261299457612993612b38565b5b828204905092915050565b60006129aa82612a11565b91506129b583612a11565b9250828210156129c8576129c7612b09565b5b828203905092915050565b60006129de826129f1565b9050919050565b60008115159050919050565b600073ffffffffffffffffffffffffffffffffffffffff82169050919050565b6000819050919050565b82818337600083830152505050565b60005b83811015612a48578082015181840152602081019050612a2d565b83811115612a57576000848401525b50505050565b60006002820490506001821680612a7557607f821691505b60208210811415612a8957612a88612b67565b5b50919050565b6000612a9a82612a11565b91507fffffffffffffffffffffffffffffffffffffffffffffffffffffffffffffffff821415612acd57612acc612b09565b5b600182019050919050565b6000612ae382612a11565b9150612aee83612a11565b925082612afe57612afd612b38565b5b828206905092915050565b7f4e487b7100000000000000000000000000000000000000000000000000000000600052601160045260246000fd5b7f4e487b7100000000000000000000000000000000000000000000000000000000600052601260045260246000fd5b7f4e487b7100000000000000000000000000000000000000000000000000000000600052602260045260246000fd5b7f4e487b7100000000000000000000000000000000000000000000000000000000600052604160045260246000fd5b6000601f19601f8301169050919050565b612bdf816129d3565b8114612bea57600080fd5b50565b612bf681612a11565b8114612c0157600080fd5b5056fea26469706673582212201e5434a7d876874f9c84892dcee3d47b6327fbf649b4cd39986fd4ff96c711ce64736f6c63430008000033",
  "linkReferences": {},
  "deployedLinkReferences": {}
}