{
  "_format": "hh-sol-artifact-1",
  "contractName": "AccessManagement",
  "sourceName": "contracts/AccessManagement.sol",
  "abi": [
    {
      "inputs": [],
      "stateMutability": "nonpayable",
      "type": "constructor"
    },
    {
      "anonymous": false,
      "inputs": [
        {
          "indexed": false,
          "internalType": "string",
          "name": "attributeID",
          "type": "string"
        },
        {
          "indexed": false,
          "internalType": "string",
          "name": "platform",
          "type": "string"
        },
        {
          "indexed": false,
          "internalType": "string",
          "name": "permission",
          "type": "string"
        }
      ],
      "name": "AccessPolicyAdded",
      "type": "event"
    },
    {
      "anonymous": false,
      "inputs": [
        {
          "indexed": false,
          "internalType": "string",
          "name": "fingerprint",
          "type": "string"
        },
        {
          "indexed": false,
          "internalType": "string",
          "name": "attributeKey",
          "type": "string"
        },
        {
          "indexed": false,
          "internalType": "string",
          "name": "attributeValue",
          "type": "string"
        },
        {
          "indexed": false,
          "internalType": "uint256",
          "name": "timestamp",
          "type": "uint256"
        }
      ],
      "name": "AttributeAdded",
      "type": "event"
    },
    {
      "inputs": [
        {
          "internalType": "string",
          "name": "",
          "type": "string"
        }
      ],
      "name": "accessPolicies",
      "outputs": [
        {
          "internalType": "string",
          "name": "attributeID",
          "type": "string"
        },
        {
          "internalType": "string",
          "name": "platform",
          "type": "string"
        },
        {
          "internalType": "string",
          "name": "permission",
          "type": "string"
        }
      ],
      "stateMutability": "view",
      "type": "function"
    },
    {
      "inputs": [
        {
          "internalType": "string",
          "name": "_attributeID",
          "type": "string"
        },
        {
          "internalType": "string",
          "name": "_platform",
          "type": "string"
        },
        {
          "internalType": "string",
          "name": "_permission",
          "type": "string"
        }
      ],
      "name": "addAccessPolicy",
      "outputs": [],
      "stateMutability": "nonpayable",
      "type": "function"
    },
    {
      "inputs": [
        {
          "internalType": "string",
          "name": "_fingerprint",
          "type": "string"
        },
        {
          "internalType": "string",
          "name": "_attributeKey",
          "type": "string"
        },
        {
          "internalType": "string",
          "name": "_attributeValue",
          "type": "string"
        },
        {
          "internalType": "uint256",
          "name": "_timestamp",
          "type": "uint256"
        }
      ],
      "name": "addAttribute",
      "outputs": [],
      "stateMutability": "nonpayable",
      "type": "function"
    },
    {
      "inputs": [
        {
          "internalType": "string",
          "name": "_attributeID",
          "type": "string"
        },
        {
          "internalType": "string",
          "name": "_platform",
          "type": "string"
        }
      ],
      "name": "getAccessPolicy",
      "outputs": [
        {
          "internalType": "string",
          "name": "",
          "type": "string"
        }
      ],
      "stateMutability": "view",
      "type": "function"
    },
    {
      "inputs": [
        {
          "internalType": "string",
          "name": "_fingerprint",
          "type": "string"
        },
        {
          "internalType": "string",
          "name": "_attributeKey",
          "type": "string"
        }
      ],
      "name": "getAttribute",
      "outputs": [
        {
          "internalType": "string",
          "name": "",
          "type": "string"
        },
        {
          "internalType": "string",
          "name": "",
          "type": "string"
        },
        {
          "internalType": "uint256",
          "name": "",
          "type": "uint256"
        }
      ],
      "stateMutability": "view",
      "type": "function"
    },
    {
      "inputs": [
        {
          "internalType": "string",
          "name": "_fingerprint",
          "type": "string"
        }
      ],
      "name": "getUserAttributes",
      "outputs": [
        {
          "components": [
            {
              "internalType": "string",
              "name": "key",
              "type": "string"
            },
            {
              "internalType": "string",
              "name": "value",
              "type": "string"
            },
            {
              "internalType": "uint256",
              "name": "timestamp",
              "type": "uint256"
            }
          ],
          "internalType": "struct AccessManagement.Attribute[]",
          "name": "",
          "type": "tuple[]"
        }
      ],
      "stateMutability": "view",
      "type": "function"
    },
    {
      "inputs": [
        {
          "internalType": "string",
          "name": "_fingerprint",
          "type": "string"
        }
      ],
      "name": "getUserAttributesCount",
      "outputs": [
        {
          "internalType": "uint256",
          "name": "",
          "type": "uint256"
        }
      ],
      "stateMutability": "view",
      "type": "function"
    },
    {
      "inputs": [],
      "name": "owner",
      "outputs": [
        {
          "internalType": "address",
          "name": "",
          "type": "address"
        }
      ],
      "stateMutability": "view",
      "type": "function"
    },
    {
      "inputs": [
        {
          "internalType": "string",
          "name": "",
          "type": "string"
        },
        {
          "internalType": "string",
          "name": "",
          "type": "string"
        }
      ],
      "name": "userAttributes",
      "outputs": [
        {
          "internalType": "string",
          "name": "key",
          "type": "string"
        },
        {
          "internalType": "string",
          "name": "value",
          "type": "string"
        },
        {
          "internalType": "uint256",
          "name": "timestamp",
          "type": "uint256"
        }
      ],
      "stateMutability": "view",
      "type": "function"
    }
  ],
  "bytecode": "0x608060405234801561001057600080fd5b50336000806101000a81548173ffffffffffffffffffffffffffffffffffffffff021916908373ffffffffffffffffffffffffffffffffffffffff160217905550611bed806100606000396000f3fe608060405234801561001057600080fd5b50600436106100935760003560e01c80638da5cb5b116100665780638da5cb5b1461015a578063b2f0383d14610178578063bf2d0daf14610194578063cd7a4996146101c6578063f12ae456146101e257610093565b806311c4c4bc146100985780633ef69c8b146100ca57806370978a30146100fa578063774e11dc1461012a575b600080fd5b6100b260048036038101906100ad91906111e1565b610214565b6040516100c1939291906116b6565b60405180910390f35b6100e460048036038101906100df9190611222565b6103ec565b6040516100f19190611694565b60405180910390f35b610114600480360381019061010f91906111e1565b610633565b6040516101219190611672565b60405180910390f35b610144600480360381019061013f91906111e1565b6108be565b6040516101519190611801565b60405180910390f35b61016261093b565b60405161016f9190611657565b60405180910390f35b610192600480360381019061018d919061128e565b61095f565b005b6101ae60048036038101906101a99190611222565b610ac0565b6040516101bd9392919061175c565b60405180910390f35b6101e060048036038101906101db9190611325565b610ca1565b005b6101fc60048036038101906101f79190611222565b610d80565b60405161020b9392919061175c565b60405180910390f35b60028180516020810182018051848252602083016020850120818352809550505050505060009150905080600001805461024d90611a27565b80601f016020809104026020016040519081016040528092919081815260200182805461027990611a27565b80156102c65780601f1061029b576101008083540402835291602001916102c6565b820191906000526020600020905b8154815290600101906020018083116102a957829003601f168201915b5050505050908060010180546102db90611a27565b80601f016020809104026020016040519081016040528092919081815260200182805461030790611a27565b80156103545780601f1061032957610100808354040283529160200191610354565b820191906000526020600020905b81548152906001019060200180831161033757829003601f168201915b50505050509080600201805461036990611a27565b80601f016020809104026020016040519081016040528092919081815260200182805461039590611a27565b80156103e25780601f106103b7576101008083540402835291602001916103e2565b820191906000526020600020905b8154815290600101906020018083116103c557829003601f168201915b5050505050905083565b606060006002846040516104009190611640565b908152602001604051809103902060405180606001604052908160008201805461042990611a27565b80601f016020809104026020016040519081016040528092919081815260200182805461045590611a27565b80156104a25780601f10610477576101008083540402835291602001916104a2565b820191906000526020600020905b81548152906001019060200180831161048557829003601f168201915b505050505081526020016001820180546104bb90611a27565b80601f01602080910402602001604051908101604052809291908181526020018280546104e790611a27565b80156105345780601f1061050957610100808354040283529160200191610534565b820191906000526020600020905b81548152906001019060200180831161051757829003601f168201915b5050505050815260200160028201805461054d90611a27565b80601f016020809104026020016040519081016040528092919081815260200182805461057990611a27565b80156105c65780601f1061059b576101008083540402835291602001916105c6565b820191906000526020600020905b8154815290600101906020018083116105a957829003601f168201915b5050505050815250509050828051906020012081602001518051906020012014610625576040517f08c379a000000000000000000000000000000000000000000000000000000000815260040161061c906117a1565b60405180910390fd5b806040015191505092915050565b60606000610640836108be565b905060008167ffffffffffffffff811115610684577f4e487b7100000000000000000000000000000000000000000000000000000000600052604160045260246000fd5b6040519080825280602002602001820160405280156106bd57816020015b6106aa6110a0565b8152602001906001900390816106a25790505b5090506000805b838110156108b25760006106d782610ef3565b90506001876040516106e99190611640565b9081526020016040518091039020816040516107059190611640565b908152602001604051809103902060405180606001604052908160008201805461072e90611a27565b80601f016020809104026020016040519081016040528092919081815260200182805461075a90611a27565b80156107a75780601f1061077c576101008083540402835291602001916107a7565b820191906000526020600020905b81548152906001019060200180831161078a57829003601f168201915b505050505081526020016001820180546107c090611a27565b80601f01602080910402602001604051908101604052809291908181526020018280546107ec90611a27565b80156108395780601f1061080e57610100808354040283529160200191610839565b820191906000526020600020905b81548152906001019060200180831161081c57829003601f168201915b50505050508152602001600282015481525050848481518110610885577f4e487b7100000000000000000000000000000000000000000000000000000000600052603260045260246000fd5b6020026020010181905250828061089b90611a59565b9350505080806108aa90611a59565b9150506106c4565b50819350505050919050565b600080600090505b60006001846040516108d89190611640565b90815260200160405180910390206108ef83610ef3565b6040516108fc9190611640565b9081526020016040518091039020600001805461091890611a27565b90501461093257808061092a90611a59565b9150506108c6565b80915050919050565b60008054906101000a900473ffffffffffffffffffffffffffffffffffffffff1681565b60008054906101000a900473ffffffffffffffffffffffffffffffffffffffff1673ffffffffffffffffffffffffffffffffffffffff163373ffffffffffffffffffffffffffffffffffffffff16146109ed576040517f08c379a00000000000000000000000000000000000000000000000000000000081526004016109e4906117e1565b60405180910390fd5b604051806060016040528084815260200183815260200182815250600284604051610a189190611640565b90815260200160405180910390206000820151816000019080519060200190610a429291906110c1565b506020820151816001019080519060200190610a5f9291906110c1565b506040820151816002019080519060200190610a7c9291906110c1565b509050507f09bacb16a856389bf4d5e2dd536a58997f73bf52fc710c76d32f543e86ce7b86838383604051610ab3939291906116b6565b60405180910390a1505050565b606080600080600186604051610ad69190611640565b908152602001604051809103902085604051610af29190611640565b9081526020016040518091039020604051806060016040529081600082018054610b1b90611a27565b80601f0160208091040260200160405190810160405280929190818152602001828054610b4790611a27565b8015610b945780601f10610b6957610100808354040283529160200191610b94565b820191906000526020600020905b815481529060010190602001808311610b7757829003601f168201915b50505050508152602001600182018054610bad90611a27565b80601f0160208091040260200160405190810160405280929190818152602001828054610bd990611a27565b8015610c265780601f10610bfb57610100808354040283529160200191610c26565b820191906000526020600020905b815481529060010190602001808311610c0957829003601f168201915b50505050508152602001600282015481525050905060008160000151511415610c84576040517f08c379a0000000000000000000000000000000000000000000000000000000008152600401610c7b906117c1565b60405180910390fd5b806000015181602001518260400151935093509350509250925092565b604051806060016040528084815260200183815260200182815250600185604051610ccc9190611640565b908152602001604051809103902084604051610ce89190611640565b90815260200160405180910390206000820151816000019080519060200190610d129291906110c1565b506020820151816001019080519060200190610d2f9291906110c1565b50604082015181600201559050507f47a10ed39c81f9f7fbc51698556008663c5a73ec3e7d3fab18c6a4b1af09c7d084848484604051610d729493929190611702565b60405180910390a150505050565b6001828051602081018201805184825260208301602085012081835280955050505050508180516020810182018051848252602083016020850120818352809550505050505060009150915050806000018054610ddc90611a27565b80601f0160208091040260200160405190810160405280929190818152602001828054610e0890611a27565b8015610e555780601f10610e2a57610100808354040283529160200191610e55565b820191906000526020600020905b815481529060010190602001808311610e3857829003601f168201915b505050505090806001018054610e6a90611a27565b80601f0160208091040260200160405190810160405280929190818152602001828054610e9690611a27565b8015610ee35780601f10610eb857610100808354040283529160200191610ee3565b820191906000526020600020905b815481529060010190602001808311610ec657829003601f168201915b5050505050908060020154905083565b60606000821415610f3b576040518060400160405280600181526020017f3000000000000000000000000000000000000000000000000000000000000000815250905061109b565b600082905060005b60008214610f6d578080610f5690611a59565b915050600a82610f669190611944565b9150610f43565b60008167ffffffffffffffff811115610faf577f4e487b7100000000000000000000000000000000000000000000000000000000600052604160045260246000fd5b6040519080825280601f01601f191660200182016040528015610fe15781602001600182028036833780820191505090505b5090505b6000851461109457600182610ffa9190611975565b9150600a856110099190611aa2565b603061101591906118ee565b60f81b818381518110611051577f4e487b7100000000000000000000000000000000000000000000000000000000600052603260045260246000fd5b60200101907effffffffffffffffffffffffffffffffffffffffffffffffffffffffffffff1916908160001a905350600a8561108d9190611944565b9450610fe5565b8093505050505b919050565b60405180606001604052806060815260200160608152602001600081525090565b8280546110cd90611a27565b90600052602060002090601f0160209004810192826110ef5760008555611136565b82601f1061110857805160ff1916838001178555611136565b82800160010185558215611136579182015b8281111561113557825182559160200191906001019061111a565b5b5090506111439190611147565b5090565b5b80821115611160576000816000905550600101611148565b5090565b60006111776111728461184d565b61181c565b90508281526020810184848401111561118f57600080fd5b61119a8482856119e5565b509392505050565b600082601f8301126111b357600080fd5b81356111c3848260208601611164565b91505092915050565b6000813590506111db81611ba0565b92915050565b6000602082840312156111f357600080fd5b600082013567ffffffffffffffff81111561120d57600080fd5b611219848285016111a2565b91505092915050565b6000806040838503121561123557600080fd5b600083013567ffffffffffffffff81111561124f57600080fd5b61125b858286016111a2565b925050602083013567ffffffffffffffff81111561127857600080fd5b611284858286016111a2565b9150509250929050565b6000806000606084860312156112a357600080fd5b600084013567ffffffffffffffff8111156112bd57600080fd5b6112c9868287016111a2565b935050602084013567ffffffffffffffff8111156112e657600080fd5b6112f2868287016111a2565b925050604084013567ffffffffffffffff81111561130f57600080fd5b61131b868287016111a2565b9150509250925092565b6000806000806080858703121561133b57600080fd5b600085013567ffffffffffffffff81111561135557600080fd5b611361878288016111a2565b945050602085013567ffffffffffffffff81111561137e57600080fd5b61138a878288016111a2565b935050604085013567ffffffffffffffff8111156113a757600080fd5b6113b3878288016111a2565b92505060606113c4878288016111cc565b91505092959194509250565b60006113dc83836115cb565b905092915050565b6113ed816119a9565b82525050565b60006113fe8261188d565b61140881856118b0565b93508360208202850161141a8561187d565b8060005b85811015611456578484038952815161143785826113d0565b9450611442836118a3565b925060208a0199505060018101905061141e565b50829750879550505050505092915050565b600061147382611898565b61147d81856118c1565b935061148d8185602086016119f4565b61149681611b8f565b840191505092915050565b60006114ac82611898565b6114b681856118d2565b93506114c68185602086016119f4565b6114cf81611b8f565b840191505092915050565b60006114e582611898565b6114ef81856118e3565b93506114ff8185602086016119f4565b80840191505092915050565b60006115186018836118d2565b91507f4e6f206d61746368696e6720706f6c69637920666f756e6400000000000000006000830152602082019050919050565b60006115586018836118d2565b91507f41747472696275746520646f6573206e6f7420657869737400000000000000006000830152602082019050919050565b6000611598600e836118d2565b91507f4e6f7420617574686f72697a65640000000000000000000000000000000000006000830152602082019050919050565b600060608301600083015184820360008601526115e88282611468565b915050602083015184820360208601526116028282611468565b91505060408301516116176040860182611622565b508091505092915050565b61162b816119db565b82525050565b61163a816119db565b82525050565b600061164c82846114da565b915081905092915050565b600060208201905061166c60008301846113e4565b92915050565b6000602082019050818103600083015261168c81846113f3565b905092915050565b600060208201905081810360008301526116ae81846114a1565b905092915050565b600060608201905081810360008301526116d081866114a1565b905081810360208301526116e481856114a1565b905081810360408301526116f881846114a1565b9050949350505050565b6000608082019050818103600083015261171c81876114a1565b9050818103602083015261173081866114a1565b9050818103604083015261174481856114a1565b90506117536060830184611631565b95945050505050565b6000606082019050818103600083015261177681866114a1565b9050818103602083015261178a81856114a1565b90506117996040830184611631565b949350505050565b600060208201905081810360008301526117ba8161150b565b9050919050565b600060208201905081810360008301526117da8161154b565b9050919050565b600060208201905081810360008301526117fa8161158b565b9050919050565b60006020820190506118166000830184611631565b92915050565b6000604051905081810181811067ffffffffffffffff8211171561184357611842611b60565b5b8060405250919050565b600067ffffffffffffffff82111561186857611867611b60565b5b601f19601f8301169050602081019050919050565b6000819050602082019050919050565b600081519050919050565b600081519050919050565b6000602082019050919050565b600082825260208201905092915050565b600082825260208201905092915050565b600082825260208201905092915050565b600081905092915050565b60006118f9826119db565b9150611904836119db565b9250827fffffffffffffffffffffffffffffffffffffffffffffffffffffffffffffffff0382111561193957611938611ad3565b5b828201905092915050565b600061194f826119db565b915061195a836119db565b92508261196a57611969611b02565b5b828204905092915050565b6000611980826119db565b915061198b836119db565b92508282101561199e5761199d611ad3565b5b828203905092915050565b60006119b4826119bb565b9050919050565b600073ffffffffffffffffffffffffffffffffffffffff82169050919050565b6000819050919050565b82818337600083830152505050565b60005b83811015611a125780820151818401526020810190506119f7565b83811115611a21576000848401525b50505050565b60006002820490506001821680611a3f57607f821691505b60208210811415611a5357611a52611b31565b5b50919050565b6000611a64826119db565b91507fffffffffffffffffffffffffffffffffffffffffffffffffffffffffffffffff821415611a9757611a96611ad3565b5b600182019050919050565b6000611aad826119db565b9150611ab8836119db565b925082611ac857611ac7611b02565b5b828206905092915050565b7f4e487b7100000000000000000000000000000000000000000000000000000000600052601160045260246000fd5b7f4e487b7100000000000000000000000000000000000000000000000000000000600052601260045260246000fd5b7f4e487b7100000000000000000000000000000000000000000000000000000000600052602260045260246000fd5b7f4e487b7100000000000000000000000000000000000000000000000000000000600052604160045260246000fd5b6000601f19601f8301169050919050565b611ba9816119db565b8114611bb457600080fd5b5056fea2646970667358221220c3cb953e13ce8d683b5e5940ab6216b8842068ea533b5a69d95b4447c7417b7e64736f6c63430008000033",
  "linkReferences": {},
  "deployedLinkReferences": {}
}